S012000041546D656761424F4F542E73726563AF
S1131C0012C02CC02BC02AC029C028C027C026C09F
S1131C1025C024C023C022C021C020C01FC01EC0B4
S1131C201DC01CC01BC011241FBECFE5D4E0DEBF05
S1131C30CDBF10E0A0E6B0E0ECEDFFE102C00590FE
S1131C400D92A236B107D9F711E0A2E6B0E001C0C7
S1131C501D92AA36B107E1F74AD0BEC1D1CF5D9B30
S1131C60FECF8CB90895CF92DF92EF92FF92C12CF0
S1131C70D12C76015F9913C08FEFC81AD80AE80AED
S1131C80F80A81E8C8168DE8D8068BE5E806F10461
S1131C9088F3E0916200F09163000995EBCF8CB179
S1131CA0FF90EF90DF90CF900895CF93DF93D82FDC
S1131CB0C0E0CD1719F0D7DFCF5FFBCFDF91CF9115
S1131CC00895CF93C82FCFDF803239F484E1C7DF82
S1131CD08C2FC5DF80E1CF91C2CFCF910895C3DFB0
S1131CE0803221F484E1BBDF80E1B9CF08950000A4
S1131CF010BC83E389B988E18AB986E880BDA09ADB
S1131D001092680121E040E050E080916801803148
S1131D10B8F485B3822785BBCA010197F1F7809196
S1131D2068018F5F80936801F0CF813369F080345C
S1131D30F1F0813449F597DF8038F1F482E0C1DFB6
S1131D4092DF803391F724C08EDF8032C9F784E1BB
S1131D5086DF81E484DF86E582DF82E580DF80E25E
S1131D607EDF89E47CDF83E57ADF80E518C17BDFF1
S1131D70863870F078DF0CC0813811F481E0DFCF51
S1131D808238E9F482E1DBCF823421F484E18DDF0F
S1131D90A6DFD6CF853411F485E0F9CF90EB980F08
S1131DA09330B0F3853539F45EDF809364005BDFF4
S1131DB080936500EDCF863521F484E076DF80E002
S1131DC0BECF843609F090C04EDF809367014BDFAD
S1131DD080936601809169018E7F8093690143DF5E
S1131DE0853429F48091690181608093690106E654
S1131DF010E02091660130916701C8018656904039
S1131E008217930728F42FDFF80181938F01F1CF14
S1131E102ADF803209F094CF8091690180FF1FC0CE
S1131E2006E610E02091660130916701C8018656EC
S1131E3090408217930708F055C0F80161918F0113
S1131E408091640090916500BAD080916400909173
S1131E50650001969093650080936400E3CFF89445
S1131E60E199FECF1127E0916400F0916500EE0F37
S1131E70FF1FC6E6D0E0809166019091670180FF64
S1131E8001C00196103051F422D003E000935700B2
S1131E90E8951DD001E100935700E8950990199049
S1131EA016D001E000935700E8951395103258F0CE
S1131EB011270DD005E000935700E89508D001E103
S1131EC000935700E8953296029739F0DBCF0091E2
S1131ED0570001700130D9F30895103011F00296C3
S1131EE0E7CF112484E15BC0843709F04BC0BBDE2B
S1131EF080936701B8DE80936601B5DE853431F4E2
S1131F00809169018160809369010FC080916901AA
S1131F108E7F809369018091640090916500880FA1
S1131F20991F90936500809364009DDE803209F0D0
S1131F3007CF84E194DE00E010E080916601909187
S1131F4067010817190760F58091690180FF06C0D1
S1131F5080916400909165002AD007C081FD06C07D
S1131F60E0916400F0916500849179DE80916400D1
S1131F7090916500019690936500809364000F5FD3
S1131F801F4FDBCF853779F46EDE803209F0D8CE6F
S1131F9084E165DE8EE163DE83E961DE87E05FDE96
S1131FA080E15DDECDCE863709F0CACE08CFE19957
S1131FB0FECF9FBB8EBBE09A99278DB30895262F41
S1131FC0E199FECF9FBB8EBB2DBB0FB6F894E29A6E
S10F1FD0E19A0FBE01960895F894FFCF2B
S1051FDC80007F
S9031C00E0
