:1000000028C142C141C140C13FC13EC13DC13CC107
:100010003BC13AC139C138C137C136C135C134C11C
:1000200033C132C131C1000000000000005F000098
:100030000007000700147F147F14242A7F2A12234C
:100040001308646236495522500005030000001C65
:100050002241000041221C00082A1C2A0808083EF0
:100060000808005030000008080808080060600018
:100070000020100804023E5149453E00427F4000E6
:1000800042615149462141454B311814127F1027D6
:10009000454545393C4A494930017109050336490E
:1000A000494936064949291E0036360000005636B1
:1000B00000000008142241141414141441221408DE
:1000C000000201510906324979413E7E1111117E2B
:1000D0007F494949363E414141227F4141221C7FAF
:1000E000494949417F090901013E414151327F0897
:1000F00008087F00417F41002040413F017F0814F4
:1001000022417F404040407F0204027F7F0408106C
:100110007F3E4141413E7F090909063E4151215E32
:100120007F09192946464949493101017F01013FAB
:100130004040403F1F2040201F7F2018207F631435
:100140000814630304780403615149454300007FA8
:100150004141020408102041417F00007F7F7F7FE2
:100160007F40404040400001020400205454547835
:100170007F484444383844444420384444487F3815
:1001800054545418087E090102081454543C7F0842
:1001900004047800447D40002040443D00007F106E
:1001A000284400417F40007C041804787C08040443
:1001B0007838444444387C14141408081414187C07
:1001C0007C080404084854545420043F4440203C14
:1001D0004040207C1C2040201C3C4030403C4428B7
:1001E0001028440C5050503C4464544C4400083691
:1001F000410000007F0000004136080008082A1C6A
:1002000008081C2A080838555655084855565524DC
:1002100038454645287C090605084465564D440C7A
:100220005052513C205456557800447E4100385479
:100230005655083C4042217C3C4043237C7C0906C7
:100240000578043F4440233844487F0338444645FA
:10025000380011241FBECFE5D4E0DEBFCDBF10E0D3
:10026000A0E6B0E0E4E5FDE102C005900D92AA3AF7
:10027000B107D9F711E0AAEAB0E001C01D92AF338F
:10028000B107E1F763D864CDBBCECF93DF93CDB791
:10029000DEB786E590E024EAFC012083000086E5D5
:1002A00090E0FC0180818823D4F7DF91CF910895FD
:1002B000CF93DF931F92CDB7DEB7898383E290E0BF
:1002C0002981FC01208386E590E024E8FC0120835D
:1002D000000086E590E0FC0180818823D4F70F9030
:1002E000DF91CF910895CF93DF93CDB7DEB786E549
:1002F00090E024E9FC012083DF91CF910895CF9312
:10030000DF93CDB7DEB785E390E025E330E0F90178
:1003100020812063FC01208380E290E024E3FC0143
:10032000208380E690E090933C0180933B01109203
:10033000380110923701A9DF88E7BADF84ECB8DF13
:100340008CE7B6DFD0DFDF91CF9108951F93CF9375
:10035000DF93CDB7DEB765970FB6F894DEBF0FBE5B
:10036000CDBF8A8B6B8B4C8B2D8B8D8980528D8B67
:100370008D89282F332727FD3095C901880F991FB4
:10038000880F991F820F931F9A8389837EDF88E7E6
:100390008FDF8A89806E8CDF8B89806F89DF9C89F3
:1003A000892F880F880F890F83DF89819A818A5D61
:1003B0009F4F9C838B8389819A8101969A8389833D
:1003C0008B819C81FC0114911D838D8171DF89815A
:1003D0009A818A5D9F4F9F838E8389819A8101963E
:1003E0009A8389838E819F81FC0114911887888567
:1003F0005FDF89819A818A5D9F4F9A87898789818A
:100400009A8101969A83898389859A85FC01149142
:100410001B878B854DDF89819A818A5D9F4F9D87E0
:100420008C8789819A8101969A8389838C859D85A1
:10043000FC0114911E878E853BDF89819A818A5D3C
:100440009F4F988B8F8789819A8101969A838983A0
:100450008F859889FC011491198B898929DF43DFE5
:1004600065960FB6F894DEBF0FBECDBFDF91CF917A
:100470001F9108951F93CF93DF93CDB7DEB7659794
:100480000FB6F894DEBF0FBECDBF8A8B6B8B4C8B43
:100490002D8B8D8980528D8B97E08C89292F281B7D
:1004A000822F8C8B8D89282F332727FD3095C9010A
:1004B000880F991F880F991F820F931F04969A83A4
:1004C0008983E3DE88E7F4DE8A89806EF1DE8B893A
:1004D000806FEEDE9C89892F880F880F890FE8DEF8
:1004E00089819A818A5D9F4F9C838B8389819A81C0
:1004F00001979A8389838B819C81FC0114911D83D0
:100500008D81D6DE89819A818A5D9F4F9F838E83FC
:1005100089819A8101979A8389838E819F81FC01C9
:10052000149118878885C4DE89819A818A5D9F4FDE
:100530009A87898789819A8101979A838983898596
:100540009A85FC0114911B878B85B2DE89819A8183
:100550008A5D9F4F9D878C8789819A8101979A83B5
:1005600089838C859D85FC0114911E878E85A0DE74
:1005700089819A818A5D9F4F988B8F8789819A8123
:1005800001979A8389838F859889FC011491198B2F
:1005900089898EDEA8DE65960FB6F894DEBF0FBEA1
:1005A000CDBFDF91CF911F910895CF93DF931F921D
:1005B000CDB7DEB7898380913801883050F49091AF
:1005C0003801809137012981492F682F80E0BEDEF4
:1005D0001BC080913801803160F080913801982FE4
:1005E0009051809137012981492F682F82E0AEDE3A
:1005F0000BC080913801982F985080913701298144
:10060000492F682F81E036DF80913801873178F0FB
:100610001092380180913701833030F48091370196
:100620008F5F8093370108C01092370105C0809119
:1006300038018F5F809338010F90DF91CF9108953B
:10064000CF93DF9300D0CDB7DEB79A8389838981BA
:100650009A81FC0180818A3061F410923801809186
:1006600037018F5F8093370189819A8101969A8340
:10067000898389819A81FC01808197DF89819A81B0
:1006800001969A83898389819A81FC0180818823DC
:10069000F1F60F900F90DF91CF910895CF93DF93F4
:1006A00000D01F92CDB7DEB789837B836A838981AF
:1006B0008A3041F410923801809137018F5F809326
:1006C000370102C0898171DF80E090E00F900F90C8
:1006D0000F90DF91CF910895CF93DF9300D01F92B9
:1006E000CDB7DEB78B8380910B01882309F047C01B
:1006F0008091F200882309F442C081E089833CC0E4
:100700001A8234C08981882F90E09C0121503109E0
:100710008A81682F70E08981482F50E08A81E82F14
:10072000F0E0CA01880F991F840F951F880F991F49
:10073000880F991F880F991F8E0F9F1F86559F4FF7
:10074000FC014081C901880F991F820F931F880FF8
:10075000991F880F991F880F991F860F971F86551D
:100760009F4FFC0140838A818F5F8A838A81883111
:1007700048F289818F5F89838981843008F21982E8
:1007800003C089818F5F898389818330A0F4898147
:10079000282F30E0C901880F991F820F931F880FFF
:1007A000991F880F991F880F991F86559F4FFC012D
:1007B0008081882331F780910B018823B9F08981EA
:1007C000282F30E0C901880F991F820F931F880FCF
:1007D000991F880F991F880F991F86559F4FFC01FD
:1007E0008081882319F489818150898381E08093F5
:1007F0000B011A823FC09B818DEC989F812D1124A3
:10080000982F969596958A818917C8F48981282F03
:1008100030E08A81482F50E0C901880F991F820F6C
:10082000931F880F991F880F991F880F991F840F96
:10083000951F86559F4F2EE5FC01208318C08981A6
:10084000282F30E08A81482F50E0C901880F991F76
:10085000820F931F880F991F880F991F880F991F68
:10086000840F951F86559F4F20E2FC0120838A81CB
:100870008F5F8A838A81843108F4BDCF84E18A83C3
:100880001BC08981282F30E08A81482F50E0C901A0
:10089000880F991F820F931F880F991F880F991F28
:1008A000880F991F840F951F86559F4F20E2FC01EA
:1008B00020838A818F5F8A838A81883110F38B81BC
:1008C0008436D8F08981282F30E09B8189E2989F77
:1008D000812D112482958F70805D482FC901880F6A
:1008E000991F820F931F880F991F880F991F880FD8
:1008F000991F82549F4FFC0140838B818A3048F1BD
:100900008981282F30E09B8189E2989F812D1124D5
:1009100082958F7044E6849F802D1124F92FF81B57
:100920008F2F9DEC899F812D112486958695869524
:10093000805D482FC901880F991F820F931F880F70
:10094000991F880F991F880F991F81549F4FFC0191
:1009500040838981282F30E09B818DEC989F812DE9
:100960001124869586958695880F482F440F440F4D
:10097000840FF92FF81B8F2F805D482FC901880F36
:10098000991F820F931F880F991F880F991F880F37
:10099000991F80549F4FFC0140838981282F30E0AC
:1009A000C901880F991F820F931F880F991F880F05
:1009B000991F880F991F8F539F4F25E2FC012083B9
:1009C0008B81843610F010920B0153D10F900F9051
:1009D0000F90DF91CF910895CF93DF9300D000D097
:1009E00000D0CDB7DEB79D838C836E831B82809150
:1009F000F200882309F446C08E81882309F442C09E
:100A000081E089833CC01A8234C08981882F90E0BC
:100A10009C01215031098A81682F70E08981482F1B
:100A200050E08A81E82FF0E0CA01880F991F840FF7
:100A3000951F880F991F880F991F880F991F8E0F78
:100A40009F1F86559F4FFC014081C901880F991F48
:100A5000820F931F880F991F880F991F880F991F66
:100A6000860F971F86559F4FFC0140838A818F5FB9
:100A70008A838A81883148F289818F5F898389815D
:100A8000843008F2198203C089818F5F898389814C
:100A90008330A0F48981282F30E0C901880F991F85
:100AA000820F931F880F991F880F991F880F991F16
:100AB00086559F4FFC018081882331F71A824CC0F4
:100AC0008A81882F90E02C813D81820F931FFC0149
:100AD0008081882311F481E08B838B81882309F541
:100AE0008981282F30E08A81482F50E08A81882F21
:100AF00090E06C817D81860F971FFC016081C901A8
:100B0000880F991F820F931F880F991F880F991FB5
:100B1000880F991F840F951F86559F4FFC01608396
:100B200018C08981282F30E08A81482F50E0C90100
:100B3000880F991F820F931F880F991F880F991F85
:100B4000880F991F840F951F86559F4F20E2FC0147
:100B500020838A818F5F8A838A81883108F4B0CFAD
:100B600088D026960FB6F894DEBF0FBECDBFDF91BA
:100B7000CF910895CF93DF93CDB7DEB76C970FB6C3
:100B8000F894DEBF0FBECDBF9C8F8B8F1A828BE592
:100B900092E4ADE5888F998FAA8F80910A0188230E
:100BA00011F08FE3B5D0198232C08981882F90E08F
:100BB0002B8D3C8D820F931FFC018081882311F4C3
:100BC00081E08A838A818823A1F48981882F90E03B
:100BD0002981222F30E04B8D5C8D240F351FF901C8
:100BE00040819E012D5F3F4F820F931FFC01408388
:100BF0000BC08981882F90E09E012D5F3F4F820FAF
:100C0000931F20E2FC01208389818F5F8983898182
:100C1000853158F285E1898319C08981882F90E058
:100C20002981222F30E025513109AE01485E5F4F06
:100C3000240F351FF90140819E012D5F3F4F820F28
:100C4000931FFC01408389818F5F8983898188316B
:100C500020F3CE01039661E0BFDE81E080930A01BC
:100C60006C960FB6F894DEBF0FBECDBFDF91CF916B
:100C70000895CF93DF9300D0CDB7DEB7109238013F
:100C8000109237011A823CC019821BC08A81282F1A
:100C900030E08981482F50E0C901880F991F820FE9
:100CA000931F880F991F880F991F880F991F840F12
:100CB000951F86559F4FFC01808177DC89818F5F6E
:100CC000898389818831C8F48A81282F30E089811D
:100CD000482F50E0C901880F991F820F931F880F7A
:100CE000991F880F991F880F991F840F951F86558C
:100CF0009F4FFC018081882349F68A818F5F8A8318
:100D00008A81843008F20F900F90DF91CF9108957F
:100D1000CF93DF9300D0CDB7DEB78A8380910A01ED
:100D2000882309F447C083E0898303C08981815007
:100D3000898389818823A1F08981282F30E0C90126
:100D4000880F991F820F931F880F991F880F991F73
:100D5000880F991F80549F4FFC018081823431F7A6
:100D60008981282F30E0C901880F991F820F931FB6
:100D7000880F991F880F991F880F991F80549F4FC4
:100D8000FC0180818234A1F48981282F30E0C901DF
:100D9000880F991F820F931F880F991F880F991F23
:100DA000880F991F80549F4F2A81FC01208302C025
:100DB00010920A015EDF10920A010F900F90DF91EE
:100DC000CF910895CF93DF93CDB7DEB72C970FB6B1
:100DD000F894DEBF0FBECDBF688779878A879B876F
:100DE0004C8727E0EEE6F0E0CE010196DC010190B1
:100DF0000D922A95E1F788859985AA85BB859E0184
:100E00002F5F3F4FA901BC01CD010DD06C85CE01F4
:100E10000196E2DD2C960FB6F894DEBF0FBECDBF73
:100E2000DF91CF9108950F931F93CF93DF9300D05D
:100E300000D000D0CDB7DEB769837A838B839C83E3
:100E40005E834D8389819A81AB81BC81803A26E89B
:100E5000920721E0A207B105A0F089819A81AB81B8
:100E6000BC8120EA36E841E050E0BC01CD0127D743
:100E7000DA01C901805D282F8D819E81FC012083CC
:100E800005C08D819E8120E2FC01208389819A81A9
:100E9000AB81BC818031F7E29F07A105B105F8F075
:100EA0008D819E818C010F5F1F4F89819A81AB815B
:100EB000BC8120E137E240E050E0BC01CD01FFD62B
:100EC000DA01C9012AE030E040E050E0BC01CD0188
:100ED000F6D6DC01CB01805DF801808306C08D81F0
:100EE0009E81019620E2FC01208389819A81AB8159
:100EF000BC81883EF3E09F07A105B105F8F08D8124
:100F00009E818C010E5F1F4F89819A81AB81BC81CC
:100F100028EE33E040E050E0BC01CD01D0D6DA014C
:100F2000C9012AE030E040E050E0BC01CD01C7D665
:100F3000DC01CB01805DF801808306C08D819E813C
:100F4000029620E2FC01208389819A81AB81BC81D9
:100F500084369105A105B105F8F08D819E818C0143
:100F60000D5F1F4F89819A81AB81BC8124E630E0FF
:100F700040E050E0BC01CD01A2D6DA01C9012AE06F
:100F800030E040E050E0BC01CD0199D6DC01CB015E
:100F9000805DF801808306C08D819E81039620E2EA
:100FA000FC01208389819A81AB81BC818A309105C3
:100FB000A105B105F8F08D819E818C010C5F1F4F5A
:100FC00089819A81AB81BC812AE030E040E050E029
:100FD000BC01CD0174D6DA01C9012AE030E040E05D
:100FE00050E0BC01CD016BD6DC01CB01805DF80186
:100FF000808306C08D819E81049620E2FC012083BF
:1010000089819A81AB81BC810097A105B105B1F0BE
:101010008D819E818C010B5F1F4F89819A81AB81ED
:10102000BC812AE030E040E050E0BC01CD0147D671
:10103000DC01CB01805DF801808306C08D819E813B
:10104000059628E5FC01208326960FB6F894DEBFAE
:101050000FBECDBFDF91CF911F910F910895CF9318
:10106000DF93CDB7DEB781E290E0FC01108280E231
:1010700090E028E4FC012083DF91CF910895CF9385
:10108000DF9300D0CDB7DEB78A8386E590E024EA0F
:10109000FC012083000086E590E0FC01808188232C
:1010A000D4F781E290E0FC018081887F8983898187
:1010B000883029F08981803111F081E020C083E2FD
:1010C00090E02A81FC01208386E590E024E8FC0181
:1010D0002083000086E590E0FC0180818823D4F71E
:1010E00081E290E0FC018081887F89838981883159
:1010F00029F08981803411F081E001C080E00F90F7
:101100000F90DF91CF910895CF93DF9300D0CDB7AB
:10111000DEB78A8386E590E024EAFC0120830000A4
:1011200086E590E0FC0180818823D4F781E290E09D
:10113000FC018081887F89838981883019F08981C9
:10114000803171F583E290E02A81FC01208386E5FD
:1011500090E024E8FC012083000086E590E0FC019B
:1011600080818823D4F781E290E0FC018081887F30
:1011700089838981803219F08981883599F486E5DF
:1011800090E024E9FC012083000086E590E0FC016A
:101190008081882F90E0807199270097B1F701C076
:1011A0000000B8CF00000F900F90DF91CF9108950D
:1011B000CF93DF931F92CDB7DEB7898389815FDF3D
:1011C0000F90DF91CF910895CF93DF93CDB7DEB726
:1011D00086E590E024E9FC012083000086E590E0AC
:1011E000FC018081882F90E0807199270097B1F7EA
:1011F000DF91CF910895CF93DF9300D0CDB7DEB7C5
:101200008A8383E290E02A81FC01208386E590E0D6
:1012100024E8FC012083000086E590E0FC01808149
:101220008823D4F781E290E0FC018081887F898364
:101230008981883211F081E001C080E00F900F9029
:10124000DF91CF910895CF93DF93CDB7DEB786E5D9
:1012500090E024ECFC012083000086E590E0FC0196
:1012600080818823D4F783E290E0FC018081DF91C4
:10127000CF910895CF93DF93CDB7DEB786E590E0A9
:1012800024E8FC012083000086E590E0FC018081D9
:101290008823D4F783E290E0FC018081DF91CF9135
:1012A0000895CF93DF93CDB7DEB78FE599E0A0E047
:1012B000B0E080932A0190932B01A0932C01B0936E
:1012C0002D0188E991E090930D0180930C0188EB4A
:1012D0009FEF90930F0180930E0181ED97EC909317
:1012E00011018093100185EE9FE790931301809385
:1012F000120185EF9FE7909315018093140181E718
:101300009AE590931701809316018EE298E19093ED
:1013100019018093180184E090E090931B01809361
:101320001A0181E090E890931D0180931C0189EFE0
:101330009DED90931F0180931E0184E39BE09093A9
:10134000210180932001DF91CF910895CF93DF9306
:10135000CDB7DEB729970FB6F894DEBF0FBECDBF6D
:10136000CED780E6898305C080E21FD9898181506C
:10137000898389818823C1F710923801109237013F
:1013800061E085E790E028DB81E890E0F3DB2CD09A
:1013900089E5BEDC61E085E990E01EDB61E08FE974
:1013A00090E01ADB1AD1DC01CB018A839B83AC83EA
:1013B000BD83C8D1DC01CB018E839F83A887B98709
:1013C0008E819F81A885B98541E0BC01CD01FADC01
:1013D0008A819B81AC81BD8141E0BC01CD01F2DC01
:1013E00088E893E11FD4DECFCF93DF93CDB7DEB78C
:1013F00062E08AEA63D0DC01CB0190930D01809317
:101400000C0162E08CEA5AD0DC01CB0190930F0111
:1014100080930E0162E08EEA51D0DC01CB01909303
:1014200011018093100162E080EB48D0DC01CB0118
:10143000909313018093120162E082EB3FD0DC01B4
:10144000CB01909315018093140162E084EB36D0B8
:10145000DC01CB01909317018093160162E086EBCB
:101460002DD0DC01CB01909319018093180162E02B
:1014700088EB24D0DC01CB0190931B0180931A01EF
:1014800062E08AEB1BD0DC01CB0190931D018093BD
:101490001C0162E08CEB12D0DC01CB0190931F01A8
:1014A00080931E0162E08EEB09D0DC01CB019093AA
:1014B000210180932001DF91CF9108950F931F9315
:1014C000CF93DF93CDB7DEB72B970FB6F894DEBF7F
:1014D0000FBECDBF8A876B871E821F821886198632
:1014E00019821A821B821C828B85853010F084E061
:1014F0008B878B8581508B878EEEC1DD8A857BDE65
:101500008FEE56DE1D820EC08D81082F10E09BDE0F
:10151000282FCE010696800F911FFC0120838D811C
:101520008F5F8D839D818B85981770F38D81082F38
:1015300010E0A0DE282FCE010696800F911FFC013F
:10154000208342DE1D8234C08D81882F90E09E0171
:101550002A5F3F4F820F931FFC018081882F90E00C
:10156000A0E0B0E02B85422F50E02D81222F30E00B
:10157000BA01621B730B9B01220F331F220F331F13
:10158000220F331F04C0880F991FAA1FBB1F2A9563
:10159000D2F729813A814B815C81822B932BA42B3A
:1015A000B52B89839A83AB83BC838D818F5F8D83B9
:1015B0009D818B85891740F689819A81AB81BC8199
:1015C000BC01CD012B960FB6F894DEBF0FBECDBF88
:1015D000DF91CF911F910F910895EF92FF920F939A
:1015E0001F93CF93DF93CDB7DEB72B970FB6F89449
:1015F000DEBF0FBECDBF19828EEE41DD84EFFBDD75
:101600009981890F89838EE2F6DD9981890F89831B
:10161000DBDD86E390E0FC018081882F90E0817023
:1016200099270097B1F362E086EF48DFDC01CB0138
:101630009B838A838A819B819C0140E050E080915A
:10164000160190911701CC01A0E0B0E0281B390BE6
:101650004A0B5B0B8091140190911501CC01A0E025
:10166000B0E0BC01CD011CD3DC01CB01072E7FE033
:10167000B595A795979587957A95D1F7702D8C8319
:101680009D83AE83BF8380911E0190911F01AA2785
:1016900097FDA095BA2F072E7BE0880F991FAA1FF0
:1016A000BB1F7A95D1F7702D209120013091210137
:1016B00079010027F7FC0095102F2C813D814E8188
:1016C0005F812E0D3F1D401F511FBC01CD0119D35D
:1016D000288739874A875B872C813D814E815F81CE
:1016E00088859985AA85BB85820F931FA41FB51F86
:1016F00080932A0190932B01A0932C01B0932D018C
:1017000080912A0190912B01A0912C01B0912D0183
:101710000896A11DB11D689413F8B595A7959795E6
:1017200087951694D1F7BC01CD012B960FB6F8948E
:10173000DEBF0FBECDBFDF91CF911F910F91FF9004
:10174000EF900895EF92FF920F931F93CF93DF9343
:10175000CDB7DEB765970FB6F894DEBF0FBECDBF2D
:101760001D828EEE8CDC84EF46DD9D81890F8D839A
:1017700084EF41DD9D81890F8D8326DD86E390E036
:10178000FC018081882F90E0817099270097B1F348
:1017900063E086EF93DEDC01CB01689414F8B69524
:1017A000A795979587951694D1F78E839F83A887E1
:1017B000B98780912A0190912B01A0912C01B091C1
:1017C0002D01805A9F40A109B10980932601909371
:1017D0002701A0932801B093290180911A019091CB
:1017E0001B017C010027F7FC0095102F209126019A
:1017F00030912701409128015091290180912601C3
:1018000090912701A0912801B0912901BC01CD013F
:1018100047D2DC01CB01072E7CE0B595A7959795C3
:1018200087957A95D1F7702DA8019701BC01CD015C
:1018300037D2DC01CB01CD01BB2797FDB095AB2F93
:101840008A879B87AC87BD8780910E0190910F019D
:101850009C01442737FD4095542F8091260190919B
:101860002701A0912801B0912901BC01CD0118D216
:10187000DC01CB01072E7BE0B595A7959795879561
:101880007A95D1F7702D8E879F87A88BB98B2A8583
:101890003B854C855D858E859F85A889B989820F9A
:1018A000931FA41FB51F8A8B9B8BAC8BBD8B809124
:1018B0000C0190910D01AA2797FDA095BA2F9C01CC
:1018C000AD01220F331F441F551F220F331F441F2A
:1018D000551F8A899B89AC89BD89820F931FA41FDC
:1018E000B51F880F991FAA1FBB1F880F991FAA1F1A
:1018F000BB1F880F991FAA1FBB1F0296A11DB11DF8
:10190000B695A79597958795B695A7959795879539
:101910008093320190933301A0933401B093350149
:1019200080911001909111019C01442737FD409551
:10193000542F8091260190912701A0912801B09108
:101940002901BC01CD01ACD1DC01CB01072E7DE02A
:10195000B595A795979587957A95D1F7702D8A8734
:101960009B87AC87BD8780911801909119017C01FC
:101970000027F7FC0095102F2091260130912701B8
:1019800040912801509129018091260190912701D1
:10199000A0912801B0912901BC01CD0181D1DC01C8
:1019A000CB01072E7CE0B595A795979587957A95FD
:1019B000D1F7702DA8019701BC01CD0171D1DC01D7
:1019C000CB01CD01BB2797FDB095AB2F8E879F87AD
:1019D000A88BB98B2A853B854C855D858E859F8537
:1019E000A889B989820F931FA41FB51F0296A11D54
:1019F000B11DB595A79597958795B595A795979599
:101A000087958A8B9B8BAC8BBD8B809112019091BB
:101A100013019C0140E050E08A899B89AC89BD8913
:101A20009058AF4FBF4FBC01CD013AD1DC01CB0183
:101A3000072E7FE0B695A795979587957A95D1F76C
:101A4000702D80932E0190932F01A0933001B093BD
:101A500031018091320190913301A0913401B09114
:101A600035012E813F8148855985281B390B4A0B4A
:101A70005B0B8AE698E1DC0103D1DC01CB018093AA
:101A8000220190932301A0932401B093250180911A
:101A9000220190912301A0912401B0912501BB2343
:101AA000F4F08091220190912301A0912401B09142
:101AB0002501880F991FAA1FBB1F20912E0130916D
:101AC0002F014091300150913101BC01CD01F7D07F
:101AD000DA01C90189839A83AB83BC831DC08091DD
:101AE000220190912301A0912401B0912501209120
:101AF0002E0130912F014091300150913101BC01F4
:101B0000CD01DDD0DA01C901880F991FAA1FBB1FC3
:101B100089839A83AB83BC8389819A81AB81BC81A1
:101B2000292F3A2F4B2F552747FD5A9589819A81A6
:101B3000AB81BC81892F9A2FAB2FBB27A7FDBA950C
:101B4000BC01CD01ADD0DC01CB018A879B87AC877E
:101B5000BD872A853B854C855D858EED9BE0DC014C
:101B60008FD0DC01CB01CD01BB2797FDB095AB2F0A
:101B70008A879B87AC87BD8729813A814B815C81AD
:101B800083E493EEDC0188D0DC01CB01CD01BB27DF
:101B900097FDB095AB2F8E879F87A88BB98B2A8531
:101BA0003B854C855D858E859F85A889B989820F87
:101BB000931FA41FB51F8153914FAF4FBF4F689420
:101BC00013F8B595A795979587951694D1F7298120
:101BD0003A814B815C81820F931FA41FB51F8983BB
:101BE0009A83AB83BC8389819A81AB81BC81885BFA
:101BF000924FAF4FBF4F89839A83AB83BC83898158
:101C00009A81AB81BC81BC01CD0165960FB6F89479
:101C1000DEBF0FBECDBFDF91CF911F910F91FF901F
:101C2000EF900895CF93DF9300D000D000D0CDB7D0
:101C3000DEB79E838D831A82198212C01C821B829A
:101C400005C08B819C8101969C838B838B819C81B9
:101C500084369105B0F389819A8101969A838983AC
:101C600029813A818D819E812817390738F326967C
:101C70000FB6F894DEBF0FBECDBFDF91CF910895B0
:101C80005BD0A59F900DB49F900DA49F800D911DDA
:101C900011240895B7FFF4CFF3DF821B930B08954F
:101CA000DB018F939F93ECDFBF91AF91A29F800DDB
:101CB000911DA39F900DB29F900D11240895A1E254
:101CC0001A2EAA1BBB1BFD010DC0AA1FBB1FEE1FB6
:101CD000FF1FA217B307E407F50720F0A21BB30B01
:101CE000E40BF50B661F771F881F991F1A9469F77D
:101CF00060957095809590959B01AC01BD01CF01D9
:101D00000895052E97FB16F4009406D057FD0CD0CD
:101D1000D6DF07FC09D07EF490958095709561958B
:101D20007F4F8F4F9F4F0895509540953095219547
:101D30003F4F4F4F5F4F0895A29FB001B39FC00127
:101D4000A39F01D0B29F700D811D1124911D089594
:041D5000F894FFCF35
:101D540000000002000000004E030000000051518A
:101D640051515151007374617274696E672E2E2E35
:101D74000072656164696E672063616C69622E201C
:101D840076616C73007265616C2074656D700070AF
:0A1D9400726573737572653A000002
:00000001FF
