:1000000028C142C141C140C13FC13EC13DC13CC107
:100010003BC13AC139C138C137C136C135C134C11C
:1000200033C132C131C1000000000000005F000098
:100030000007000700147F147F14242A7F2A12234C
:100040001308646236495522500005030000001C65
:100050002241000041221C00082A1C2A0808083EF0
:100060000808005030000008080808080060600018
:100070000020100804023E5149453E00427F4000E6
:1000800042615149462141454B311814127F1027D6
:10009000454545393C4A494930017109050336490E
:1000A000494936064949291E0036360000005636B1
:1000B00000000008142241141414141441221408DE
:1000C000000201510906324979413E7E1111117E2B
:1000D0007F494949363E414141227F4141221C7FAF
:1000E000494949417F090901013E414151327F0897
:1000F00008087F00417F41002040413F017F0814F4
:1001000022417F404040407F0204027F7F0408106C
:100110007F3E4141413E7F090909063E4151215E32
:100120007F09192946464949493101017F01013FAB
:100130004040403F1F2040201F7F2018207F631435
:100140000814630304780403615149454300007FA8
:100150004141020408102041417F00007F7F7F7FE2
:100160007F40404040400001020400205454547835
:100170007F484444383844444420384444487F3815
:1001800054545418087E090102081454543C7F0842
:1001900004047800447D40002040443D00007F106E
:1001A000284400417F40007C041804787C08040443
:1001B0007838444444387C14141408081414187C07
:1001C0007C080404084854545420043F4440203C14
:1001D0004040207C1C2040201C3C4030403C4428B7
:1001E0001028440C5050503C4464544C4400083691
:1001F000410000007F0000004136080008082A1C6A
:1002000008081C2A080838555655084855565524DC
:1002100038454645287C090605084465564D440C7A
:100220005052513C205456557800447E4100385479
:100230005655083C4042217C3C4043237C7C0906C7
:100240000578043F4440233844487F0338444645FA
:10025000380011241FBECFE5D4E0DEBFCDBF10E0D3
:10026000A0E6B0E0EAE6F6E102C005900D92AE3AF3
:10027000B107D9F711E0AEEAB0E001C01D92AF328C
:10028000B107E1F700D6EFC9BBCECF93DF93CDB76F
:10029000DEB786E590E024EAFC012083000086E5D5
:1002A00090E0FC0180818823D4F7DF91CF910895FD
:1002B000CF93DF931F92CDB7DEB7898383E290E0BF
:1002C0002981FC01208386E590E024E8FC0120835D
:1002D000000086E590E0FC0180818823D4F70F9030
:1002E000DF91CF910895CF93DF93CDB7DEB786E549
:1002F00090E024E9FC012083DF91CF910895CF9312
:10030000DF93CDB7DEB785E390E025E330E0F90178
:1003100020812063FC01208380E290E024E3FC0143
:10032000208380E690E090932C0180932B01109223
:10033000280110922701A9DF88E7BADF84ECB8DF33
:100340008CE7B6DFD0DFDF91CF9108951F93CF9375
:10035000DF93CDB7DEB765970FB6F894DEBF0FBE5B
:10036000CDBF8A8B6B8B4C8B2D8B8D8980528D8B67
:100370008D89282F332727FD3095C901880F991FB4
:10038000880F991F820F931F9A8389837EDF88E7E6
:100390008FDF8A89806E8CDF8B89806F89DF9C89F3
:1003A000892F880F880F890F83DF89819A818A5D61
:1003B0009F4F9C838B8389819A8101969A8389833D
:1003C0008B819C81FC0114911D838D8171DF89815A
:1003D0009A818A5D9F4F9F838E8389819A8101963E
:1003E0009A8389838E819F81FC0114911887888567
:1003F0005FDF89819A818A5D9F4F9A87898789818A
:100400009A8101969A83898389859A85FC01149142
:100410001B878B854DDF89819A818A5D9F4F9D87E0
:100420008C8789819A8101969A8389838C859D85A1
:10043000FC0114911E878E853BDF89819A818A5D3C
:100440009F4F988B8F8789819A8101969A838983A0
:100450008F859889FC011491198B898929DF43DFE5
:1004600065960FB6F894DEBF0FBECDBFDF91CF917A
:100470001F9108951F93CF93DF93CDB7DEB7659794
:100480000FB6F894DEBF0FBECDBF8A8B6B8B4C8B43
:100490002D8B8D8980528D8B97E08C89292F281B7D
:1004A000822F8C8B8D89282F332727FD3095C9010A
:1004B000880F991F880F991F820F931F04969A83A4
:1004C0008983E3DE88E7F4DE8A89806EF1DE8B893A
:1004D000806FEEDE9C89892F880F880F890FE8DEF8
:1004E00089819A818A5D9F4F9C838B8389819A81C0
:1004F00001979A8389838B819C81FC0114911D83D0
:100500008D81D6DE89819A818A5D9F4F9F838E83FC
:1005100089819A8101979A8389838E819F81FC01C9
:10052000149118878885C4DE89819A818A5D9F4FDE
:100530009A87898789819A8101979A838983898596
:100540009A85FC0114911B878B85B2DE89819A8183
:100550008A5D9F4F9D878C8789819A8101979A83B5
:1005600089838C859D85FC0114911E878E85A0DE74
:1005700089819A818A5D9F4F988B8F8789819A8123
:1005800001979A8389838F859889FC011491198B2F
:1005900089898EDEA8DE65960FB6F894DEBF0FBEA1
:1005A000CDBFDF91CF911F910895CF93DF931F921D
:1005B000CDB7DEB7898380912801883050F49091BF
:1005C0002801809127012981492F682F80E0BEDE14
:1005D0001BC080912801803160F080912801982F04
:1005E0009051809127012981492F682F82E0AEDE4A
:1005F0000BC080912801982F985080912701298164
:10060000492F682F81E036DF80912801873178F00B
:100610001092280180912701833030F480912701C6
:100620008F5F8093270108C01092270105C0809139
:1006300028018F5F809328010F90DF91CF9108955B
:10064000CF93DF9300D0CDB7DEB79A8389838981BA
:100650009A81FC0180818A3061F410922801809196
:1006600027018F5F8093270189819A8101969A8360
:10067000898389819A81FC01808197DF89819A81B0
:1006800001969A83898389819A81FC0180818823DC
:10069000F1F60F900F90DF91CF910895CF93DF93F4
:1006A00000D01F92CDB7DEB789837B836A838981AF
:1006B0008A3041F410922801809127018F5F809346
:1006C000270102C0898171DF80E090E00F900F90D8
:1006D0000F90DF91CF910895CF93DF93CDB7DEB721
:1006E00081E290E0FC01108280E290E028E4FC01CD
:1006F0002083DF91CF910895CF93DF9300D0CDB7C2
:10070000DEB78A8386E590E024EAFC0120830000BE
:1007100086E590E0FC0180818823D4F781E290E0B7
:10072000FC018081887F89838981883029F08981D3
:10073000803111F081E020C083E290E02A81FC0149
:10074000208386E590E024E8FC012083000086E514
:1007500090E0FC0180818823D4F781E290E0FC01E5
:100760008081887F89838981883129F089818034DB
:1007700011F081E001C080E00F900F90DF91CF91E8
:100780000895CF93DF9300D0CDB7DEB78A8386E597
:1007900090E024EAFC012083000086E590E0FC0163
:1007A00080818823D4F781E290E0FC018081887FFA
:1007B00089838981883019F08981803171F583E2DC
:1007C00090E02A81FC01208386E590E024E8FC018A
:1007D0002083000086E590E0FC0180818823D4F727
:1007E00081E290E0FC018081887F89838981803269
:1007F00019F08981883599F486E590E024E9FC01B7
:100800002083000086E590E0FC018081882F90E045
:10081000807199270097B1F701C00000B8CF0000A0
:100820000F900F90DF91CF910895CF93DF931F9298
:10083000CDB7DEB7898389815FDF0F90DF91CF91DC
:100840000895CF93DF93CDB7DEB786E590E024E936
:10085000FC012083000086E590E0FC018081882F68
:1008600090E0807199270097B1F7DF91CF910895BB
:10087000CF93DF9300D0CDB7DEB78A8383E290E0D9
:100880002A81FC01208386E590E024E8FC01208396
:10089000000086E590E0FC0180818823D4F781E2A6
:1008A00090E0FC018081887F89838981883211F002
:1008B00081E001C080E00F900F90DF91CF9108950B
:1008C000CF93DF93CDB7DEB786E590E024ECFC0153
:1008D0002083000086E590E0FC0180818823D4F726
:1008E00083E290E0FC018081DF91CF910895CF9366
:1008F000DF93CDB7DEB786E590E024E8FC012083E6
:10090000000086E590E0FC0180818823D4F783E233
:1009100090E0FC018081DF91CF910895CF93DF9328
:1009200000D0CDB7DEB78A8380910E01882309F409
:1009300047C083E0898303C089818150898389818D
:100940008823A1F08981282F30E0C901880F991FE1
:10095000820F931F880F991F880F991F880F991F67
:100960008C539F4FFC018081823431F78981282F7D
:1009700030E0C901880F991F820F931F880F991FBC
:10098000880F991F880F991F8C539F4FFC018081FE
:100990008234A1F48981282F30E0C901880F991F82
:1009A000820F931F880F991F880F991F880F991F17
:1009B0008C539F4F2A81FC01208302C010920E01AC
:1009C0004CD510920E010F900F90DF91CF910895AA
:1009D000CF93DF9300D000D0CDB7DEB79A83898361
:1009E0007C836B8389819A81803127E29207C8F0EA
:1009F00089819A81929582958F7089279F70892726
:100A00009C01A7E4B3E0A6D5969587959695879522
:100A100096958795805D282F8B819C81FC01208392
:100A200005C08B819C8120E2FC01208389819A8111
:100A3000883EF3E09F0788F18B819C81FC01319611
:100A400089819A81969587959695879596958795AC
:100A50009C01A5ECB0E27ED5AC01529542954F7059
:100A600045275F7045279A01ADECBCEC73D5969590
:100A700087959695879596958795880F991F9C01E0
:100A8000220F331F220F331F820F931F9A01281B3F
:100A9000390BC901805D808306C08B819C810196E2
:100AA00020E2FC01208389819A818436910558F1E6
:100AB0008B819C81FC01329689819A8196958795DC
:100AC000969587959C01ABE7B4E144D5AC0156956A
:100AD00047959A01ADECBCEC3DD5969587959695DA
:100AE000879596958795880F991F9C01220F331F34
:100AF000220F331F820F931F9A01281B390BC90144
:100B0000805D808306C08B819C81029620E2FC017F
:100B1000208389819A818A30910558F18B819C814B
:100B2000FC01339689819A819C01ADECBCEC12D515
:100B3000AC015695479556954795569547959A0118
:100B4000ADECBCEC07D596958795969587959695CF
:100B50008795880F991F9C01220F331F220F331F87
:100B6000820F931F9A01281B390BC901805D808376
:100B700006C08B819C81039620E2FC012083898141
:100B80009A81009701F18B819C81FC013496498107
:100B90005A819A01ADECBCECDDD49695879596957B
:100BA000879596958795880F991F9C01220F331F73
:100BB000220F331F820F931F9A01281B390BC90183
:100BC000805D808306C08B819C81049628E5FC01B2
:100BD00020830F900F900F900F90DF91CF91089589
:100BE000CF93DF9300D01F92CDB7DEB78B838EEE0D
:100BF00083DD8B813DDE8FEE18DE62DE898377DE5A
:100C00008A831FDE8981882F90E0382F22278A81EE
:100C1000882F90E0822B932B0F900F900F90DF91F5
:100C2000CF910895CF93DF9300D0CDB7DEB78A83FD
:100C30008EEE62DD8A811CDE8FEEF7DD58DE898361
:100C400000DE8981882F90E00F900F90DF91CF9187
:100C50000895CF93DF93CDB7DEB78AEAC1DF9093D3
:100C60001101809310018CEABBDF909313018093F4
:100C700012018EEAB5DF909315018093140180EB89
:100C8000AFDF909317018093160182EBA9DF909359
:100C900019018093180184EBA3DF90931B018093CB
:100CA0001A0186EB9DDF90931D0180931C0188EB58
:100CB00097DF90931F0180931E018AEB91DF909341
:100CC0002101809320018CEB8BDF90932301809393
:100CD00022018EEB85DF9093250180932401DF9123
:100CE000CF910895EF92FF920F931F93CF93DF93CD
:100CF000CDB7DEB72B970FB6F894DEBF0FBECDBFD2
:100D000019828EE690E02BD38EEEF6DC84EFB0DD18
:100D1000982F8981890F89838EE2AADD982F898196
:100D2000890F89838981882319F086E4F7DD02C061
:100D300089E5F4DD86DD84E690E0DED386EF50DFE2
:100D40009B838A838A819B819C01442737FD409540
:100D5000542F80911A0190911B01CC01A0E0B0E0CA
:100D6000281B390B4A0B5B0B8091180190911901DC
:100D7000CC01A0E0B0E0BC01CD01F8D3DC01CB0197
:100D8000072E7FE0B595A795979587957A95D1F72A
:100D9000702D8C839D83AE83BF83809122019091BF
:100DA0002301AA2797FDA095BA2F072E7BE0880F75
:100DB000991FAA1FBB1F7A95D1F7702D209124018E
:100DC0003091250179010027F7FC0095102F2C8127
:100DD0003D814E815F812E0D3F1D401F511FBC0183
:100DE000CD01E6D3288739874A875B872C813D81EF
:100DF0004E815F8188859985AA85BB85820F931F67
:100E0000A41FB51F0896A11DB11D689413F8B595D0
:100E1000A795979587951694D1F72B960FB6F894CA
:100E2000DEBF0FBECDBFDF91CF911F910F91FF901D
:100E3000EF900895CF93DF93CDB7DEB728970FB625
:100E4000F894DEBF0FBECDBF98878F8326E0EEE714
:100E5000F0E0CE010196DC0101900D922A95E1F7B8
:100E60008F8198859E012F5F3F4FB901B1DDCE0183
:100E70000196ADD128960FB6F894DEBF0FBECDBF58
:100E8000DF91CF910895CF93DF931F92CDB7DEB757
:100E900036DA80E6898305C080E287DB898181506C
:100EA000898389818823C1F7109228011092270134
:100EB00084E890E08CD180E990E051D2CADE89E5E7
:100EC0002DDD84EA90E083D10DDFB4DF80E090E097
:100ED0000F90DF91CF910895CF93DF9300D000D092
:100EE000CDB7DEB79C838B8380910F01882309F0F7
:100EF00047C08091F600882309F442C081E08983CD
:100F00003CC01A8234C08981882F90E09C01215016
:100F100031098A81682F70E08981482F50E08A81E9
:100F2000E82FF0E0CA01880F991F840F951F880FE2
:100F3000991F880F991F880F991F8E0F9F1F825529
:100F40009F4FFC014081C901880F991F820F931F99
:100F5000880F991F880F991F880F991F860F971F59
:100F600082559F4FFC0140838A818F5F8A838A81EB
:100F7000883148F289818F5F89838981843008F2C2
:100F8000198203C089818F5F898389818330A0F4AE
:100F90008981282F30E0C901880F991F820F931F84
:100FA000880F991F880F991F880F991F82559F4F8F
:100FB000FC018081882331F780910F018823B9F0EB
:100FC0008981282F30E0C901880F991F820F931F54
:100FD000880F991F880F991F880F991F82559F4F5F
:100FE000FC018081882319F489818150898381E003
:100FF00080930F011A8241C08B819C8125E030E0F3
:10100000B901C3D29B018A81882F90E08217930790
:10101000CCF48981282F30E08A81482F50E0C90123
:10102000880F991F820F931F880F991F880F991F90
:10103000880F991F840F951F82559F4F2EE5FC0145
:10104000208318C08981282F30E08A81482F50E002
:10105000C901880F991F820F931F880F991F880F4E
:10106000991F880F991F840F951F82559F4F20E26B
:10107000FC0120838A818F5F8A838A81843108F40E
:10108000BBCF84E18A831BC08981282F30E08A810D
:10109000482F50E0C901880F991F820F931F880FB6
:1010A000991F880F991F880F991F840F951F8255CC
:1010B0009F4F20E2FC0120838A818F5F8A838A818F
:1010C000883110F38B819C818D599F4F873C91050E
:1010D000E0F08981282F30E08B819C8144E650E04C
:1010E000BA0153D2AB01CA01805D482FC901880FF4
:1010F000991F820F931F880F991F880F991F880FC0
:10110000991F8E539F4FFC0140838B819C810996D0
:101110008331910500F18981282F30E08B819C81FA
:1011200044E650E0BA0131D24AE050E0BA012DD293
:10113000AB01CA01805D482FC901880F991F820F3A
:10114000931F880F991F880F991F880F991F8D5320
:101150009F4FFC0140838981282F30E08B819C8147
:101160004AE050E0BA0111D2805D482FC901880FD2
:10117000991F820F931F880F991F880F991F880F3F
:10118000991F8C539F4FFC0140838981282F30E0A9
:10119000C901880F991F820F931F880F991F880F0D
:1011A000991F880F991F8B539F4F25E2FC012083C5
:1011B0008B819C818436910514F010920F014DD1E2
:1011C0000F900F900F900F90DF91CF910895CF93D4
:1011D000DF9300D000D01F92CDB7DEB79D838C8304
:1011E0001B828091F600882309F442C081E0898344
:1011F0003CC01A8234C08981882F90E09C01215024
:1012000031098A81682F70E08981482F50E08A81F6
:10121000E82FF0E0CA01880F991F840F951F880FEF
:10122000991F880F991F880F991F8E0F9F1F825536
:101230009F4FFC014081C901880F991F820F931FA6
:10124000880F991F880F991F880F991F860F971F66
:1012500082559F4FFC0140838A818F5F8A838A81F8
:10126000883148F289818F5F89838981843008F2CF
:10127000198203C089818F5F898389818330A0F4BB
:101280008981282F30E0C901880F991F820F931F91
:10129000880F991F880F991F880F991F82559F4F9C
:1012A000FC018081882331F71A824CC08A81882F03
:1012B00090E02C813D81820F931FFC018081882367
:1012C00011F481E08B838B81882309F58981282F94
:1012D00030E08A81482F50E08A81882F90E06C812D
:1012E0007D81860F971FFC016081C901880F991FBE
:1012F000820F931F880F991F880F991F880F991FBE
:10130000840F951F82559F4FFC01608318C089810F
:10131000282F30E08A81482F50E0C901880F991F9B
:10132000820F931F880F991F880F991F880F991F8D
:10133000840F951F82559F4F20E2FC0120838A81F4
:101340008F5F8A838A81883108F4B0CF86D00F906E
:101350000F900F900F900F90DF91CF910895CF9342
:10136000DF93CDB7DEB76C970FB6F894DEBF0FBE34
:10137000CDBF9C8F8B8F1A828BE592E4ADE5888F71
:10138000998FAA8F80910E01882311F08FE3C6DA1E
:10139000198232C08981882F90E02B8D3C8D820F7D
:1013A000931FFC018081882311F481E08A838A8164
:1013B0008823A1F48981882F90E02981222F30E0B1
:1013C0004B8D5C8D240F351FF90140819E012D5FEF
:1013D0003F4F820F931FFC0140830BC08981882FF0
:1013E00090E09E012D5F3F4F820F931F20E2FC0192
:1013F000208389818F5F89838981853158F285E1D6
:10140000898319C08981882F90E02981222F30E0BB
:1014100025513109AE01485E5F4F240F351FF90198
:1014200040819E012D5F3F4F820F931FFC0140833F
:1014300089818F5F89838981883120F3CE0103966A
:10144000C6DE81E080930E016C960FB6F894DEBF85
:101450000FBECDBFDF91CF910895CF93DF9300D022
:10146000CDB7DEB710922801109227011A823CC036
:1014700019821BC08A81282F30E08981482F50E0D3
:10148000C901880F991F820F931F880F991F880F1A
:10149000991F880F991F840F951F82559F4FFC013C
:1014A000808183D889818F5F898389818831C8F45D
:1014B0008A81282F30E08981482F50E0C901880FA8
:1014C000991F820F931F880F991F880F991F880FEC
:1014D000991F840F951F82559F4FFC01808188239F
:1014E00049F68A818F5F8A838A81843008F20F905F
:1014F0000F90DF91CF910895CF93DF9300D000D06C
:1015000000D0CDB7DEB79E838D831A82198212C0B8
:101510001C821B8205C08B819C8101969C838B83DE
:101520008B819C8184369105B0F389819A810196E3
:101530009A83898329813A818D819E812817390771
:1015400038F326960FB6F894DEBF0FBECDBFDF91FD
:10155000CF910895A29FB001B39FC001A39F01D076
:10156000B29F700D811D1124911D0895DB018F9391
:101570009F9339D0BF91AF91A29F800D911DA39FE2
:10158000900DB29F900D1124089597FB072E16F42D
:10159000009406D077FD08D030D007FC05D03EF48B
:1015A000909581959F4F0895709561957F4F08950F
:1015B000052E97FB16F4009406D057FD0CD031D0C1
:1015C00007FC09D07EF490958095709561957F4FCA
:1015D0008F4F9F4F089550954095309521953F4FDF
:1015E0004F4F5F4F0895B6DFA59F900DB49F900DAC
:1015F000A49F800D911D11240895AA1BBB1B51E1CE
:1016000007C0AA1FBB1FA617B70710F0A61BB70B72
:10161000881F991F5A95A9F780959095BC01CD0117
:101620000895A1E21A2EAA1BBB1BFD010DC0AA1F23
:10163000BB1FEE1FFF1FA217B307E407F50720F03B
:10164000A21BB30BE40BF50B661F771F881F991FB6
:101650001A9469F760957095809590959B01AC01FF
:0A166000BD01CF010895F894FFCFFB
:10166A0000000002000000004E0300000000737436
:10167A00617274206D6561737572696E670051518C
:10168A00515151007374617274696E672E2E2E0067
:10169A0072656164696E672063616C69622E207687
:0E16AA00616C73007265616C2074656D700078
:00000001FF
