:1000000012C02CC02BC02AC029C028C027C026C0BF
:1000100025C024C023C036C221C020C01FC01EC0BE
:100020001DC01CC01BC011241FBECFE5D4E0DEBF25
:10003000CDBF10E0A0E6B0E0E0E4FFE002C0059034
:100040000D92AE36B107D9F710E0AEE6B0E001C0D0
:100050001D92A839B107E1F7E0D170C7D1CFCF9396
:10006000DF93CDB7DEB700008BE290E0FC0180812A
:100070008823D4F78CE290E0FC018081DF91CF915E
:100080000895CF93DF931F92CDB7DEB78983000029
:100090008BE290E0FC018081882F90E080729927AC
:1000A0000097B1F38CE290E02981FC0120830F904E
:1000B000DF91CF910895CF93DF9300D0CDB7DEB716
:1000C0009A8389830AC089819A81FC018081D9DF62
:1000D00089819A8101969A83898389819A81FC0119
:1000E0008081882381F70F900F90DF91CF91089541
:1000F000CF93DF93CDB7DEB789E290E023E3FC0135
:10010000208380E490E0FC0110828AE290E028E104
:10011000FC01208380E490E020E430E0F9012081BC
:100120002668FC012083DF91CF910895CF93DF9360
:10013000CDB7DEB781E290E0FC01108280E290E072
:1001400028E4FC012083DF91CF910895CF93DF93C2
:1001500000D0CDB7DEB78A8386E590E024EAFC01C3
:100160002083000086E590E0FC0180818823D4F79D
:1001700081E290E0FC018081887F898389818830D9
:1001800029F08981803111F081E020C083E290E084
:100190002A81FC01208386E590E024E8FC0120838D
:1001A000000086E590E0FC0180818823D4F781E29D
:1001B00090E0FC018081887F89838981883129F0E2
:1001C0008981803411F081E001C080E00F900F90B0
:1001D000DF91CF910895CF93DF9300D0CDB7DEB7F5
:1001E0008A8386E590E024EAFC012083000086E50E
:1001F00090E0FC0180818823D4F781E290E0FC014B
:100200008081887F89838981883019F08981803154
:1002100071F583E290E02A81FC01208386E590E07D
:1002200024E8FC012083000086E590E0FC01808149
:100230008823D4F781E290E0FC018081887F898364
:100240008981803219F08981883599F486E590E0BA
:1002500024E9FC012083000086E590E0FC01808118
:10026000882F90E0807199270097B1F701C00000B6
:10027000B8CF00000F900F90DF91CF910895CF93EA
:10028000DF931F92CDB7DEB7898389815FDF0F903F
:10029000DF91CF910895CF93DF93CDB7DEB786E599
:1002A00090E024E9FC012083000086E590E0FC0159
:1002B0008081882F90E0807199270097B1F7DF91B6
:1002C000CF910895CF93DF9300D0CDB7DEB78A8367
:1002D00083E290E02A81FC01208386E590E024E817
:1002E000FC012083000086E590E0FC0180818823EA
:1002F000D4F781E290E0FC018081887F8983898145
:10030000883211F081E001C080E00F900F90DF9102
:10031000CF910895CF93DF93CDB7DEB786E590E018
:1003200024ECFC012083000086E590E0FC01808144
:100330008823D4F783E290E0FC018081DF91CF91A4
:100340000895CF93DF93CDB7DEB786E590E024E83C
:10035000FC012083000086E590E0FC018081882379
:10036000D4F783E290E0FC018081DF91CF91089582
:10037000CF93DF93CDB7DEB78FE599E0A0E0B0E093
:1003800080938C0090938D00A0938E00B0938F008B
:1003900088E991E090936F0080936E0088EB9FEF67
:1003A000909371008093700081ED97EC90937300AF
:1003B0008093720085EE9FE79093750080937400A0
:1003C00085EF9FE7909377008093760081E79AE529
:1003D00090937900809378008EE298E190937B006F
:1003E00080937A0084E090E090937D0080937C007D
:1003F00081E090E890937F0080937E0089EF9DEDEF
:10040000909381008093800084E39BE0909383002D
:1004100080938200DF91CF910895CF93DF93CDB782
:10042000DEB728970FB6F894DEBF0FBECDBF7EDED5
:100430003BD05EDE32D1DC01CB0189839A83AB8372
:10044000BC83E0D1DC01CB018D839E83AF83B88771
:1004500080E517DE8D819E81AF81B885BC01CD011D
:100460006FD429DE84E50DDE89819A81AB81BC8160
:10047000BC01CD0165D41FDE8AE003DE80E197E296
:1004800031D4D8CF1F920F9200905F000F921124A9
:10049000CF93DF93CDB7DEB7DF91CF910F9000926E
:1004A0005F000F901F901895CF93DF93CDB7DEB705
:1004B00062E08AEA63D0DC01CB0190936F00809305
:1004C0006E0062E08CEA5AD0DC01CB01909371009F
:1004D0008093700062E08EEA51D0DC01CB019093F2
:1004E00073008093720062E080EB48D0DC01CB01A6
:1004F000909375008093740062E082EB3FD0DC0142
:10050000CB01909377008093760062E084EB36D045
:10051000DC01CB01909379008093780062E086EB58
:100520002DD0DC01CB0190937B0080937A0062E0B8
:1005300088EB24D0DC01CB0190937D0080937C007C
:1005400062E08AEB1BD0DC01CB0190937F008093AB
:100550007E0062E08CEB12D0DC01CB019093810035
:100560008093800062E08EEB09D0DC01CB01909398
:10057000830080938200DF91CF9108950F931F93A2
:10058000CF93DF93CDB7DEB72B970FB6F894DEBFCE
:100590000FBECDBF8A876B871E821F821886198681
:1005A00019821A821B821C828B85853010F084E0B0
:1005B0008B878B8581508B878EEEC8DD8A8582DEA6
:1005C0008FEE5DDE1D820EC08D81082F10E0A2DE51
:1005D000282FCE010696800F911FFC0120838D816C
:1005E0008F5F8D839D818B85981770F38D81082F88
:1005F00010E0A7DE282FCE010696800F911FFC0188
:10060000208349DE1D8234C08D81882F90E09E01B9
:100610002A5F3F4F820F931FFC018081882F90E05B
:10062000A0E0B0E02B85422F50E02D81222F30E05A
:10063000BA01621B730B9B01220F331F220F331F62
:10064000220F331F04C0880F991FAA1FBB1F2A95B2
:10065000D2F729813A814B815C81822B932BA42B89
:10066000B52B89839A83AB83BC838D818F5F8D8308
:100670009D818B85891740F689819A81AB81BC81E8
:10068000BC01CD012B960FB6F894DEBF0FBECDBFD7
:10069000DF91CF911F910F910895EF92FF920F93E9
:1006A0001F93CF93DF93CDB7DEB72B970FB6F89498
:1006B000DEBF0FBECDBF19828EEE48DD84EF02DEB5
:1006C0009981890F89838EE2FDDD9981890F898364
:1006D000E2DD86E390E0FC018081882F90E081706C
:1006E00099270097B1F362E086EF48DFDC01CB0188
:1006F0009B838A838A819B819C0140E050E08091AA
:10070000780090917900CC01A0E0B0E0281B390B73
:100710004A0B5B0B8091760090917700CC01A0E0B2
:10072000B0E0BC01CD01B2D3DC01CB01072E7FE0EC
:10073000B595A795979587957A95D1F7702D8C8368
:100740009D83AE83BF838091800090918100AA2712
:1007500097FDA095BA2F072E7BE0880F991FAA1F3F
:10076000BB1F7A95D1F7702D2091820030918300C4
:1007700079010027F7FC0095102F2C813D814E81D7
:100780005F812E0D3F1D401F511FBC01CD01AFD316
:10079000288739874A875B872C813D814E815F811D
:1007A00088859985AA85BB85820F931FA41FB51FD5
:1007B00080938C0090938D00A0938E00B0938F0057
:1007C00080918C0090918D00A0918E00B0918F004F
:1007D0000896A11DB11D689413F8B595A795979536
:1007E00087951694D1F7BC01CD012B960FB6F894DE
:1007F000DEBF0FBECDBFDF91CF911F910F91FF9054
:10080000EF900895EF92FF920F931F93CF93DF9392
:10081000CDB7DEB765970FB6F894DEBF0FBECDBF7C
:100820001D828EEE93DC84EF4DDD9D81890F8D83DB
:1008300084EF48DD9D81890F8D832DDD86E390E077
:10084000FC018081882F90E0817099270097B1F397
:1008500063E086EF93DEDC01CB01689414F8B69573
:10086000A795979587951694D1F78E839F83A88730
:10087000B98780918C0090918D00A0918E00B091ED
:100880008F00805A9F40A109B109809388009093FE
:100890008900A0938A00B0938B0080917C00909196
:1008A0007D007C010027F7FC0095102F2091880027
:1008B0003091890040918A0050918B00809188008E
:1008C00090918900A0918A00B0918B00BC01CD016C
:1008D000DDD2DC01CB01072E7CE0B595A79597957D
:1008E00087957A95D1F7702DA8019701BC01CD01AC
:1008F000CDD2DC01CB01CD01BB2797FDB095AB2F4D
:100900008A879B87AC87BD8780917000909171002A
:100910009C01442737FD4095542F80918800909189
:100920008900A0918A00B0918B00BC01CD01AED2AC
:10093000DC01CB01072E7BE0B595A79597958795B0
:100940007A95D1F7702D8E879F87A88BB98B2A85D2
:100950003B854C855D858E859F85A889B989820FE9
:10096000931FA41FB51F8A8B9B8BAC8BBD8B809173
:100970006E0090916F00AA2797FDA095BA2F9C0159
:10098000AD01220F331F441F551F220F331F441F79
:10099000551F8A899B89AC89BD89820F931FA41F2B
:1009A000B51F880F991FAA1FBB1F880F991FAA1F69
:1009B000BB1F880F991FAA1FBB1F0296A11DB11D47
:1009C000B695A79597958795B695A7959795879589
:1009D0008093940090939500A0939600B093970015
:1009E00080917200909173009C01442737FD4095DF
:1009F000542F8091880090918900A0918A00B09135
:100A00008B00BC01CD0142D2DC01CB01072E7DE081
:100A1000B595A795979587957A95D1F7702D8A8783
:100A20009B87AC87BD8780917A0090917B007C0189
:100A30000027F7FC0095102F209188003091890045
:100A400040918A0050918B0080918800909189009C
:100A5000A0918A00B0918B00BC01CD0117D2DC01BE
:100A6000CB01072E7CE0B595A795979587957A954C
:100A7000D1F7702DA8019701BC01CD0107D2DC018F
:100A8000CB01CD01BB2797FDB095AB2F8E879F87FC
:100A9000A88BB98B2A853B854C855D858E859F8586
:100AA000A889B989820F931FA41FB51F0296A11DA3
:100AB000B11DB595A79597958795B595A7959795E8
:100AC00087958A8B9B8BAC8BBD8B809174009091AA
:100AD00075009C0140E050E08A899B89AC89BD8902
:100AE0009058AF4FBF4FBC01CD01D0D1DC01CB013D
:100AF000072E7FE0B695A795979587957A95D1F7BC
:100B0000702D8093900090939100A0939200B093E9
:100B100093008091940090919500A0919600B091DF
:100B200097002E813F8148855985281B390B4A0B38
:100B30005B0B8AE698E1DC0199D1DC01CB01809363
:100B4000840090938500A0938600B09387008091E5
:100B5000840090918500A0918600B0918700BB230E
:100B6000F4F08091840090918500A0918600B0916E
:100B70008700880F991FAA1FBB1F209190003091FA
:100B800091004091920050919300BC01CD018DD114
:100B9000DA01C90189839A83AB83BC831DC080912C
:100BA000840090918500A0918600B09187002091EB
:100BB0009000309191004091920050919300BC01BF
:100BC000CD0173D1DA01C901880F991FAA1FBB1F7C
:100BD00089839A83AB83BC8389819A81AB81BC81F1
:100BE000292F3A2F4B2F552747FD5A9589819A81F6
:100BF000AB81BC81892F9A2FAB2FBB27A7FDBA955C
:100C0000BC01CD0143D1DC01CB018A879B87AC8736
:100C1000BD872A853B854C855D858EED9BE0DC019B
:100C200025D1DC01CB01CD01BB2797FDB095AB2FC2
:100C30008A879B87AC87BD8729813A814B815C81FC
:100C400083E493EEDC011ED1DC01CB01CD01BB2797
:100C500097FDB095AB2F8E879F87A88BB98B2A8580
:100C60003B854C855D858E859F85A889B989820FD6
:100C7000931FA41FB51F8153914FAF4FBF4F68946F
:100C800013F8B595A795979587951694D1F729816F
:100C90003A814B815C81820F931FA41FB51F89830A
:100CA0009A83AB83BC8389819A81AB81BC81885B49
:100CB000924FAF4FBF4F89839A83AB83BC838981A7
:100CC0009A81AB81BC81BC01CD0165960FB6F894C9
:100CD000DEBF0FBECDBFDF91CF911F910F91FF906F
:100CE000EF900895CF93DF9300D000D000D0CDB720
:100CF000DEB79E838D831A82198212C01C821B82EA
:100D000005C08B819C8101969C838B838B819C8108
:100D100084369105B0F389819A8101969A838983FB
:100D200029813A818D819E812817390738F32696CB
:100D30000FB6F894DEBF0FBECDBFDF91CF910895FF
:100D40000F931F93CF93DF93CDB7DEB729970FB6DD
:100D5000F894DEBF0FBECDBF6E837F8388879987EF
:100D60008E819F81A885B985BB239CF48E819F814C
:100D7000A885B985B095A095909581959F4FAF4F67
:100D8000BF4F8E839F83A887B9878DE280936000D1
:100D900003C08BE28093600081E0898380E09AEC5D
:100DA000AAE9BBE38A839B83AC83BD833FC02E81CA
:100DB0003F81488559858A819B81AC81BD8182179D
:100DC0009307A407B50718F58981082F10E08E81D5
:100DD0009F81A885B9852A813B814C815D81BC01B9
:100DE000CD0163D0DA01C9012AE030E040E050E0F3
:100DF000BC01CD015AD0DC01CB01805D282FC80198
:100E0000805A9F4FFC01208389818F5F89838A816B
:100E10009B81AC81BD812AE030E040E050E0BC0124
:100E2000CD0143D02A833B834C835D838A819B81A0
:100E3000AC81BD810097A105B10509F0B8CF8981CA
:100E40008A3038F48981882F90E0805A9F4FFC01C6
:100E5000108280E690E029960FB6F894DEBF0FBEB0
:100E6000CDBFDF91CF911F910F9108955BD0A59FCA
:100E7000900DB49F900DA49F800D911D1124089595
:100E8000B7FFF4CFF3DF821B930B0895DB018F9341
:100E90009F93ECDFBF91AF91A29F800D911DA39F07
:100EA000900DB29F900D11240895A1E21A2EAA1B55
:100EB000BB1BFD010DC0AA1FBB1FEE1FFF1FA2170A
:100EC000B307E407F50720F0A21BB30BE40BF50B07
:100ED000661F771F881F991F1A9469F76095709590
:100EE000809590959B01AC01BD01CF010895052E21
:100EF00097FB16F4009406D057FD0CD0D6DF07FC04
:100F000009D07EF490958095709561957F4F8F4FB5
:100F10009F4F089550954095309521953F4F4F4FE5
:100F20005F4F0895A29FB001B39FC001A39F01D05E
:100F3000B29F700D811D1124911D0895F894FFCF6B
:0E0F40005858585858585858585858000000DB
:00000001FF
