:1000000012C02CC02BC02AC029C028C027C026C0BF
:1000100025C024C023C09CC421C020C01FC01EC056
:100020001DC01CC01BC011241FBECFE5D4E0DEBF25
:10003000CDBF11E0A0E6B0E0E8E9FCE002C0059029
:100040000D92AC3BB107D9F711E0ACEBB1E001C0C8
:100050001D92AB3EB107E1F76CD51CC6D1CF5F9BBB
:10006000FECF8CB108955D9BFECF8CB90895FC0145
:100070002081222339F031965D9BFECF2CB921914E
:100080002111FACF089583E389B910BC88E18AB9B8
:10009000579A80B5866880BD08955498549A0895FB
:1000A00011B888E480B9089594EA96BF06B607FEB1
:1000B000FDCF91B1987F983021F0903111F081E01F
:1000C000089583B984E886BF06B607FEFDCF91B1D7
:1000D000987F983119F081E0903491F780E008958D
:1000E00024EA34E844E926BF06B607FEFDCF91B105
:1000F000987F983011F09031B1F783B936BF06B6CA
:1001000007FEFDCF91B1987F903219F0983509F034
:10011000089546BF06B604FCFDCFE5CFC5CF84E900
:1001200086BF06B604FCFDCF089583B984E886BF78
:1001300006B607FEFDCF91B1987F81E0983209F0B5
:10014000089580E0089584EC86BF06B607FEFDCFD3
:1001500083B1089584E886BF06B607FEFDCF83B15C
:1001600008950F931F93660F771F881F991F8B01A8
:100170009C010150110921093109672B682B692B5A
:1001800039F0000000000150110921093109C8F7B8
:100190001F910F91089597B341E050E002C0440FC2
:1001A000551F8A95E2F7942B97BB80E090E0000002
:1001B0000000019680362AEE9207C9F797B3842F84
:1001C0008095892387BB80E090E0000000000196C5
:1001D00080359105D1F786B390E084239523892B50
:1001E000D1F786B390E084239523892BD1F386B38E
:1001F00090E084239523892BD1F7ECEBF1E010827A
:10020000A8E060E0660F770B608326B330E024231C
:100210003523232BD1F320E030E0000000002F5FD6
:100220003F4F24363105C9F786B390E084239523E8
:10023000892B41F06160608326B330E024233523AD
:10024000232BD1F7A15011F06081DCCF319681E0F2
:10025000E13CF807A1F686B390E084239523892B2F
:10026000D1F30895009771F040E050E028EE33E0BC
:10027000000021503109E1F74F5F5F4F48175907E0
:10028000A9F7089508953F924F925F926F927F92DF
:100290008F929F92AF92BF92CF92DF92EF92FF9296
:1002A0000F931F93CF93DF934B015C0197FD57C0D2
:1002B0006115710581059105C9F480E380936000A3
:1002C0001092610080E690E0DF91CF911F910F9135
:1002D000FF90EF90DF90CF90BF90AF909F908F9066
:1002E0007F906F905F904F903F900895312CCAE0BF
:1002F000D0E0C12C3AECD32E3AE9E32E3BE3F32EC7
:100300004AE0442E512C612C712CC814D904EA0403
:10031000FB0490F4032D10E0005A1F4FC501B401F7
:10032000A70196016ED4CA01B901A301920169D453
:10033000605DF80160833394C701B601A3019201A7
:1003400060D469017A01219701F7F9E0F31508F407
:10035000B9CFE32DF0E0E05AFF4F1082B3CFB09455
:10036000A09490948094811C911CA11CB11C8DE2DE
:100370008093600033243394BACF813049F18230C6
:10038000E9F0EDEBF0E084E65D9BFECF8CB9819166
:100390008111FACF20E137E288EE93E00000019767
:1003A000E9F721503109C1F729E088E190E00FB663
:1003B000F894A89581BD0FBE21BDFFCFE7E9F0E01D
:1003C00083E65D9BFECF8CB981918111FACFD9CFA5
:1003D000EEE6F0E083E65D9BFECF8CB98191811162
:1003E000FACFCFCFCF92DF92EF92FF920F931F936E
:1003F000CF93DF9300D000D0CDB7DEB7182F19828E
:100400001A821B821C82653008F064E0F62EFA9492
:100410008EEE4ADE811166C013B984E886BF06B647
:1004200007FEFDCF81B18FEE79DEFF2009F453C0C6
:10043000FE013196DF0194EC96BF06B607FEFDCFB4
:1004400083B18D938A2F8E1B8F15B0F36F2D70E0C3
:10045000DB0184E886BF06B607FEFDCF83B1AE0F91
:10046000BF1F8C9384E986BF06B604FCFDCFE12C48
:1004700000E010E098014E2D50E0DF01A40FB51F01
:100480008C9190E0A0E0B0E06B01C41AD50AA601FF
:10049000440F551F440F551F440F551F04C0880FAC
:1004A000991FAA1FBB1F4A95D2F7082B192B2A2B7D
:1004B0003B2BE394FE14F8F6B801C9010F900F909E
:1004C0000F900F90DF91CF911F910F91FF90EF90C0
:1004D000DF90CF900895A0E0B0E0FE01319660E09B
:1004E00070E0B7CF81E049DF4F925F926F927F92C9
:1004F0008F929F92AF92BF92CF92DF92EF92FF9234
:100500000F931F93CF93DF9300D000D0CDB7DEB70A
:100510008EEECADD84EF83B984E886BF06B607FE97
:10052000FDCF81B184EF83B984E886BF06B607FEAC
:10053000FDCF81B184E986BF06B604FCFDCF999951
:1005400003C00000999BFDCF63E086EF4BDF2B01DA
:100550003C01C090DF01D090E001E090E101F0901B
:10056000E20180EAC81A8FE0D80AE108F108C092D7
:10057000DB01D092DC01E092DD01F092DE01A70107
:100580009601C701B6012ED3DC01CB01FCE0B59585
:10059000A79597958795FA95D1F789839A83AB8329
:1005A000BC830091C1011091C201A091CF01B09113
:1005B000D00129813A814B815C810ED34C01BB244F
:1005C00097FCB094AB2CA091C301B091C401A701DA
:1005D000960102D3BBE09595879577956795BA9577
:1005E000D1F7860E971EA81EB91EC801AA2797FD2F
:1005F000A095BA2F880F991FAA1FBB1F880F991F9C
:10060000AA1FBB1F880E991EAA1EBB1E880C991C10
:10061000AA1CBB1CE89480F89FE3B9228092E701F2
:100620009092E801A092E901B092EA01A091C5017F
:10063000B091C601D1D26B017C018DE0F594E794B5
:10064000D794C7948A95D1F7A091CD01B091CE01EE
:1006500029813A814B815C81BFD2BB2797FDB09540
:10066000AB2FC80ED91EEA1EFB1EA2E0CA0ED11C7B
:10067000E11CF11CF594E794D794C794F594E794A2
:10068000D794C794B0E8DB0EE11CF11CA091C70120
:10069000B091C801A701960195D26B017C014FE092
:1006A000F694E794D794C7944A95D1F7C092E301A2
:1006B000D092E401E092E501F092E60155E07694F3
:1006C0006794579447945A95D1F7481859086A087F
:1006D0007B08AAE6B8E1A301920174D26093D70126
:1006E0007093D8018093D9019093DA0197FD57C098
:1006F000660F771F881F991FA701960182D24901B3
:100700005A019927B7FC9A958B2D7A2D692D9B015B
:10071000AC0168D29B01AC01AEEDBBE053D26C01E1
:10072000FF24D7FCF094EF2CA3E4B3EEA5019401D1
:1007300055D2BB2797FDB095AB2FC80ED91EEA1E28
:10074000FB1EEFECCE0EEEE0DE1EE11CF11C44E0E1
:10075000F594E794D794C7944A95D1F7C80CD91C5F
:10076000EA1CFB1CF8E4CF0EFDE0DF1EE11CF11CCF
:10077000B601C7010F900F900F900F90DF91CF91AE
:100780001F910F91FF90EF90DF90CF90BF90AF90AF
:100790009F908F907F906F905F904F900895A701EA
:1007A00096012FD249015A01880C991CAA1CBB1C26
:1007B000A8CF62E08AEA16DE7093C2016093C1019D
:1007C00062E08CEA0FDE7093C4016093C30162E0C3
:1007D0008EEA08DE7093C6016093C50162E080EB8B
:1007E00001DE7093C8016093C70162E082EBFADD1D
:1007F0007093CA016093C90162E084EBF3DD7093EA
:10080000CC016093CB0162E086EBECDD7093CE010E
:100810006093CD0162E088EBE5DD7093D0016093D9
:10082000CF0162E08AEBDEDD7093D2016093D101EB
:1008300062E08CEBD7DD7093D4016093D30162E06A
:100840008EEBD0DD7093D6016093D5010895CF92E1
:10085000DF92EF92FF920F931F938EEE25DC8111B2
:1008600075C084EF83B984E886BF06B607FEFDCF66
:1008700081B18EE283B984E886BF06B607FEFDCF5C
:1008800081B184E986BF06B604FCFDCF999903C007
:100890000000999BFDCF62E086EFA4DD9B01AC01D7
:1008A000442755278091CB019091CC01281B390B0F
:1008B00041095109A091C901B091CA0183D16B01CD
:1008C0007C016FE0F594E794D794C7946A95D1F7CB
:1008D0006091D3017091D401882777FD8095982F7E
:1008E000EBE0660F771F881F991FEA95D1F72091DB
:1008F000D5013091D601442737FD4095542F2C0D5A
:100900003D1D4E1D5F1D9FD12C0D3D1D4E1D5F1DBC
:100910002093DF013093E0014093E1015093E20125
:1009200089019A01085F1F4F2F4F3F4FF4E0359523
:10093000279517950795FA95D1F7B801C9011F9129
:100940000F91FF90EF90DF90CF90089581E015DD3B
:100950001F920F920FB60F921124AF92BF92CF92B7
:10096000DF92EF92FF920F931F932F933F934F933A
:100970005F936F937F938F939F93AF93BF93CF9327
:10098000DF93EF93FF93F8948CB18135A1F1823519
:1009900009F45DC0E4E3F1E083E75D9BFECF8CB931
:1009A00081918111FACF28E532E088EE93E00000D2
:1009B0000197E9F721503109C1F75498549A789476
:1009C000FF91EF91DF91CF91BF91AF919F918F9167
:1009D0007F916F915F914F913F912F911F910F9157
:1009E000FF90EF90DF90CF90BF90AF900F900FBE31
:1009F0000F901F9018952BDF6B017C01EB0174DDCC
:100A00005B018C01AB01BC018CE0C81A8EEFD80AE7
:100A1000E9EECE16E3E0DE0638F44039FFE55F0785
:100A2000F1E06F07710528F5E4EEF0E080E25D9BF0
:100A3000FECF8CB981918111FACF29E088E190E055
:100A40000FB6F894A89581BD0FBE21BDFFCFE7E298
:100A5000F1E05D9BFECF8CB981918111FACF29E045
:100A600088E190E00FB6F894A89581BD0FBE21BD36
:100A7000FFCF413F594462407105B0F6E9E0F1E033
:100A800081E25D9BFECF8CB981918111FACFBE01CD
:100A9000882777FD8095982FF6DBFC0180818823DD
:100AA00039F031965D9BFECF8CB981918111FACFDF
:100AB000E9E1F1E08CE25D9BFECF8CB9819181117F
:100AC000FACFB501C801DFDBFC012081222341F010
:100AD000FC0131965D9BFECF2CB921912111FACFFB
:100AE000EEE1F1E08CE25D9BFECF8CB9819181114A
:100AF000FACF82E050DB6091BC01772767FD7095EB
:100B0000872F972FC0DBFC012081222341F0FC01BD
:100B100031965D9BFECF2CB921912111FACFE3E2F2
:100B2000F1E08CE25D9BFECF8CB981918111FACF0F
:100B30003ACF83E389B910BC88E18AB9579A80B566
:100B4000866880BDE1E6F1E082E65D9BFECF8CB970
:100B500081918111FACF11B888E480B9EDE8F1E014
:100B600089E65D9BFECF8CB981918111FACF21DEA0
:100B7000EFE9F1E089E65D9BFECF8CB981918111AF
:100B8000FACF65DEB1DC85B78F7885BF85B7806821
:100B900085BF7894ECE6F1E085E65D9BFECF8CB9ED
:100BA00081918111FACF04C085B7806885BF88958F
:100BB000E6E5F1E080818823B9F35D9BFECF8CB937
:100BC0003196F8CF5BD0A59F900DB49F900DA49F58
:100BD000800D911D11240895B7FFF4CFF3DF821B20
:100BE000930B0895DB018F939F93ECDFBF91AF913F
:100BF000A29F800D911DA39F900DB29F900D112477
:100C00000895A1E21A2EAA1BBB1BFD010DC0AA1F4D
:100C1000BB1FEE1FFF1FA217B307E407F50720F065
:100C2000A21BB30BE40BF50B661F771F881F991FE0
:100C30001A9469F760957095809590959B01AC0129
:100C4000BD01CF010895052E97FB16F4009406D040
:100C500057FD0CD0D6DF07FC09D07EF49095809527
:100C6000709561957F4F8F4F9F4F08955095409598
:100C7000309521953F4F4F4F5F4F0895A29FB00190
:100C8000B39FC001A39F01D0B29F700D811D11249D
:080C9000911D0895F894FFCFB7
:100C98005858585858585858585858000063616E52
:100CA800742061636365737320746F20424D503004
:100CB80038352073656E736F72206F6E204932432A
:100CC800206275732100636F6D6D756E6963617461
:100CD800696F6E2077697468204454482073656E84
:100CE800736F72206661696C6564210064756520A4
:100CF800746F206572726F722C20706572666F72E5
:100D08006D696E67206465766963652072657365D1
:100D18007421002077726F6E672076616C7565208C
:100D280072657475726E65642C207265736574746F
:100D3800696E672E2E2E2000212C4D554C54495398
:100D48004E53312C54302C002C50302C002C483071
:100D58002C002C240A00526573657474696E672E22
:100D68002E2E0073656E64205120746F20676574A1
:100D78002064617461206F72205220666F72207245
:100D8800657365740A00736C656570696E670A003F
:100D9800626F6F7465642E2E2E0A00656E7465721C
:100DA800696E6720696E66696E69746520736C6523
:100DB8006570206C6F6F702E2E2E0A0069326320CA
:100DC8006275732072656164792E2E2E0A0069326D
:100DD8006320636F6D6D756E69636174696F6E20F2
:0C0DE800737563636573732E2E2E0A0072
:00000001FF
