:1000000012C02CC02BC02AC029C028C027C026C0BF
:1000100025C024C023C078C621C020C01FC01EC078
:100020001DC01CC01BC011241FBECFE5D4E0DEBF25
:10003000CDBF11E0A0E6B0E0EEE8F1E102C005902E
:100040000D92A436B107D9F711E0A4E6B1E001C0E2
:100050001D92A339B107E1F7E3D797C8D1CF5F99D4
:1000600003C000005F9BFDCF8CB108955D9903C074
:1000700000005D9BFDCF8CB90895FC0120812223F7
:1000800049F0319601C000005D9BFDCF2CB9219154
:100090002111FACF08958F929F92AF92BF92CF9283
:1000A000DF92EF92FF92CF936B017C01C42F97FDFB
:1000B00025C181E0C8168AECD8068AE9E8068BE3F8
:1000C000F80614F4CB3070F0C701B60120E03AEC2A
:1000D0004AE95BE31FD8205D5D9903C000005D9B8A
:1000E000FDCF2CB981E0C81681EED80685EFE80671
:1000F00085E0F80614F4CA30A8F0C701B60120E084
:1001000031EE45EF55E006D8CA01B9012AE030E0EA
:1001100040E050E0FFD7605D5D9903C000005D9B4B
:10012000FDCF6CB981E8C81686E9D80688E9E806EB
:10013000F10414F4C930A8F0C701B60120E836E98B
:1001400048E950E0E7D7CA01B9012AE030E040E0D1
:1001500050E0E0D7605D5D9903C000005D9BFDCF7E
:100160006CB981E4C81682E4D8068FE0E806F10491
:1001700014F4C830A8F0C701B60120E432E44FE01F
:1001800050E0C8D7CA01B9012AE030E040E050E0B1
:10019000C1D7605D5D9903C000005D9BFDCF6CB968
:1001A00081EAC81686E8D80681E0E806F10414F46E
:1001B000C730A8F0C701B60120EA36E841E050E0B8
:1001C000A9D7CA01B9012AE030E040E050E0A2D747
:1001D000605D5D9903C000005D9BFDCF6CB981E15E
:1001E000C81687E2D806E104F10414F4C630A8F07A
:1001F000C701B60120E137E240E050E08BD7CA01E9
:10020000B9012AE030E040E050E084D7605D5D99BC
:1002100003C000005D9BFDCF6CB989EEC81683E07A
:10022000D806E104F10414F4C430A8F0C701B60103
:1002300028EE33E040E050E06DD7CA01B9012AE072
:1002400030E040E050E066D7605D5D9903C000009B
:100250005D9BFDCF6CB985E6C816D104E104F104BD
:1002600014F4C330A8F0C701B60124E630E040E042
:1002700050E050D7CA01B9012AE030E040E050E038
:1002800049D7605D5D9903C000005D9BFDCF6CB9EF
:100290008BE0C816D104E104F10414F4C230B0F0CC
:1002A0008AE0882E912CA12CB12CC701B601A501A2
:1002B000940130D7CA01B901A50194012BD7605D23
:1002C0005D9903C000005D9BFDCF6CB9C701B6010D
:1002D0002AE030E040E050E01DD7605D5D9903C04A
:1002E00000005D9BFDCF6CB9CF91FF90EF90DF9048
:1002F000CF90BF90AF909F908F9008955D9903C06D
:1003000000005D9BFDCF8DE28CB9F094E094D09419
:10031000C094C11CD11CE11CF11CCBCE83E389B974
:1003200010BC88E18AB9579A80B5866880BD089567
:100330005498549A089511B888E480B9089594EABD
:1003400096BF06B607FEFDCF91B1987F983021F099
:10035000903111F081E0089583B984E886BF06B634
:1003600007FEFDCF91B1987F983119F081E090346C
:1003700091F780E0089524EA34E844E926BF06B600
:1003800007FEFDCF91B1987F983011F09031B1F711
:1003900083B936BF06B607FEFDCF91B1987F903284
:1003A00019F0983509F0089546BF06B604FCFDCF54
:1003B000E5CFC5CF84E986BF06B604FCFDCF08951E
:1003C00083B984E886BF06B607FEFDCF91B1987F5A
:1003D00081E0983209F0089580E0089584EC86BFAA
:1003E00006B607FEFDCF83B1089584E886BF06B642
:1003F00007FEFDCF83B108950F931F93660F771FFC
:10040000881F991F8B019C01015011092109310995
:10041000672B682B692B39F000000000015011098F
:1004200021093109C8F71F910F910895EF92FF92AA
:100430000F931F93CF93DF93CDE6D0E0EE24E394A8
:1004400014E830E2F32E04E9899179DFE3B816BFAE
:1004500006B607FEFDCF81B1F3B816BF06B607FE9C
:10046000FDCF81B106BF06B604FCFDCF80E0C037EA
:10047000D80751F7DF91CF911F910F91FF90EF9027
:1004800008952F923F924F925F926F927F928F9238
:100490009F92AF92BF92CF92DF92EF92FF920F9313
:1004A0001F93CF93DF93382E412C512C3201882398
:1004B00009F45FC054E0252E64E8962E74E9872E77
:1004C000E0E1AE2EE7E2BE2EF1E7CF2EF2E0DF2E26
:1004D000CDE6D0E040E7E42E40E0F42E8E01F801B6
:1004E00081918F012CDF23B896BE06B607FEFDCFA3
:1004F00081B186BE06B604FCFDCFF0E000371F07D1
:1005000071F780E49DE0A3E0B0E0000000000197F7
:10051000A109B109D1F78991816011DF34EC36BFAF
:1005200006B607FEFDCF23B196BE06B607FEFDCF89
:1005300043B142954F7050E086BE06B604FCFDCF35
:10054000B5012603C001279F900D11244C9D9001F9
:100550004D9D300D5C9D300D1124820F931F480E70
:10056000591E611C711CEC16FD06A9F63A9409F09F
:10057000AFCFC301B20120E030E0A901CBD5CA0161
:10058000B90124E630E040E050E0C4D5822F97E680
:100590002902912D112495959595220F220B921BDE
:1005A000E82F7AE0979FE0191124E53024F0865F68
:1005B000282F220F220B97E68902812D1124859581
:1005C0008595821BDF91CF911F910F91FF90EF9046
:1005D000DF90CF90BF90AF909F908F907F906F9063
:1005E0005F904F903F902F9008950F931F938B0132
:1005F0009C0137FD05C0B801C9011F910F910895F5
:1006000030952095109501951F4F2F4F3F4FB80102
:10061000C9011F910F91089597B341E050E002C0C6
:10062000440F551F8A95E2F7942B97BB80E090E02A
:1006300000000000019680362AEE9207C9F797B3B2
:10064000842F8095892387BB80E090E00000000024
:10065000019680359105D1F786B390E084239523E8
:10066000892BD1F786B390E084239523892BD1F38E
:1006700086B390E084239523892BD1F7E4E6F1E05B
:100680001082A8E060E0660F770B608326B330E04D
:1006900024233523232BD1F320E030E00000000099
:1006A0002F5F3F4F24363105C9F786B390E084238E
:1006B0009523892B41F06160608326B330E02423C9
:1006C0003523232BD1F7A15011F06081DCCF319677
:1006D00081E0E936F807A1F686B390E084239523FC
:1006E000892BD1F30895009771F040E050E028EE97
:1006F00033E0000021503109E1F74F5F5F4F4817A9
:100700005907A9F708950895813071F1823001F1F8
:10071000E0ECF0E084E601C000005D9BFDCF8CB909
:1007200081918111FACF20E137E288EE93E0000059
:100730000197E9F721503109C1F729E088E190E0FC
:100740000FB6F894A89581BD0FBE21BD0000FECF65
:10075000E1E7F0E083E601C000005D9BFDCF8CB9CE
:1007600081918111FACFD4CFE7E9F0E083E601C0AF
:1007700000005D9BFDCF8CB981918111FACFC8CF6C
:10078000CF92DF92EF92FF920F931F93CF93DF935D
:1007900000D000D0CDB7DEB7182F19821A821B8285
:1007A0001C82653008F064E0F62EFA948EEEC7DD08
:1007B000811166C013B984E886BF06B607FEFDCF77
:1007C00081B18FEEF6DDFF2009F453C0FE013196B2
:1007D000DF0194EC96BF06B607FEFDCF83B18D9383
:1007E0008A2F8E1B8F15B0F36F2D70E0DB0184E82C
:1007F00086BF06B607FEFDCF83B1AE0FBF1F8C9339
:1008000084E986BF06B604FCFDCFE12C00E010E0D1
:1008100098014E2D50E0DF01A40FB51F8C9190E0A0
:10082000A0E0B0E06B01C41AD50AA601440F551F21
:10083000440F551F440F551F04C0880F991FAA1F4E
:10084000BB1F4A95D2F7082B192B2A2B3B2BE3947D
:10085000FE14F8F6B801C9010F900F900F900F9099
:10086000DF91CF911F910F91FF90EF90DF90CF908C
:100870000895A0E0B0E0FE01319660E070E0B7CFEF
:1008800081E042DF4F925F926F927F928F929F92B0
:10089000AF92BF92CF92DF92EF92FF920F931F938E
:1008A000CF93DF9300D000D0CDB7DEB78EEE47DD1B
:1008B00084EF83B984E886BF06B607FEFDCF81B119
:1008C00084EF83B984E886BF06B607FEFDCF81B109
:1008D00084E986BF06B604FCFDCF999903C00000E9
:1008E000999BFDCF63E086EF4BDF2B013C01C0906D
:1008F0008701D0908801E0908901F0908A0180EA18
:10090000C81A8FE0D80AE108F108C0928301D0929A
:100910008401E0928501F0928601A7019601C7014A
:10092000B601B4D3DC01CB01FCE0B595A795979552
:100930008795FA95D1F789839A83AB83BC8300911D
:10094000690110916A01A0917701B0917801298124
:100950003A814B815C8194D34C01BB2497FCB094C9
:10096000AB2CA0916B01B0916C01A701960188D3CB
:10097000BBE09595879577956795BA95D1F7860EE3
:10098000971EA81EB91EC801AA2797FDA095BA2FC9
:10099000880F991FAA1FBB1F880F991FAA1FBB1F73
:1009A000880E991EAA1EBB1E880C991CAA1CBB1C73
:1009B000E89480F89FE3B92280928F019092900191
:1009C000A0929101B0929201A0916D01B0916E013F
:1009D00057D36B017C018DE0F594E794D794C794CD
:1009E0008A95D1F7A0917501B091760129813A815C
:1009F0004B815C8145D3BB2797FDB095AB2FC80ECB
:100A0000D91EEA1EFB1EA2E0CA0ED11CE11CF11C7D
:100A1000F594E794D794C794F594E794D794C79442
:100A2000B0E8DB0EE11CF11CA0916F01B0917001E8
:100A3000A70196011BD36B017C014FE0F694E7946C
:100A4000D794C7944A95D1F7C0928B01D0928C016C
:100A5000E0928D01F0928E0155E076946794579460
:100A600047945A95D1F7481859086A087B08AAE6AE
:100A7000B8E1A3019201FAD260937F0170938001E3
:100A8000809381019093820197FD51C0660F771F7B
:100A9000881F991FA70196011BD349015A01992765
:100AA000B7FC9A958B2D7A2D692D9B01AC01EED266
:100AB0009B01AC01AEEDBBE0D9D26C01FF24D7FCA9
:100AC000F094EF2CA3E4B3EEA5019401DBD2BB2795
:100AD00097FDB095AB2FC80ED91EEA1EFB1EEFEC9A
:100AE000CE0EEEE0DE1EE11CF11C44E0F594E7942E
:100AF000D794C7944A95D1F7C80CD91CEA1CFB1CA3
:100B0000B601C7010F900F900F900F90DF91CF911A
:100B10001F910F91FF90EF90DF90CF90BF90AF901B
:100B20009F908F907F906F905F904F900895A70156
:100B30009601CED249015A01880C991CAA1CBB1CF3
:100B4000AECF62E08AEA1CDE70936A0160936901AD
:100B500062E08CEA15DE70936C0160936B0162E0D9
:100B60008EEA0EDE70936E0160936D0162E080EBA1
:100B700007DE7093700160936F0162E082EB00DE2C
:100B8000709372016093710162E084EBF9DD709300
:100B900074016093730162E086EBF2DD709376017D
:100BA0006093750162E088EBEBDD709378016093F0
:100BB000770162E08AEBE4DD70937A01609379015A
:100BC00062E08CEBDDDD70937C0160937B0162E081
:100BD0008EEBD6DD70937E0160937D010895CF92F8
:100BE000DF92EF92FF920F931F938EEEA8DB81119D
:100BF00089C084EF83B984E886BF06B607FEFDCFBF
:100C000081B18EE283B984E886BF06B607FEFDCFC8
:100C100081B184E986BF06B604FCFDCF24E130E053
:100C200088EE93E000000197E9F721503109C1F700
:100C3000999903C00000999BFDCF20E530E088EE34
:100C400093E000000197E9F721503109C1F762E014
:100C500086EF96DD9B01AC014427552780917301F7
:100C600090917401281B390B41095109A091710120
:100C7000B0917201FBD16B017C016FE0F594E794B8
:100C8000D794C7946A95D1F760917B0170917C01EC
:100C9000882777FD8095982FEBE0660F771F881FD8
:100CA000991FEA95D1F720917D0130917E0144276B
:100CB00037FD4095542F2C0D3D1D4E1D5F1D2AD232
:100CC0002C0D3D1D4E1D5F1D209387013093880123
:100CD0004093890150938A0189019A01085F1F4F4F
:100CE0002F4F3F4FF4E03595279517950795FA95C7
:100CF000D1F7B801C9011F910F91FF90EF90DF90DC
:100D0000CF90089581E000DD1F920F920FB60F92F1
:100D100011242F923F924F925F926F927F928F9207
:100D20009F92AF92BF92CF92DF92EF92FF920F937A
:100D30001F932F933F934F935F936F937F938F9363
:100D40009F93AF93BF93EF93FF93CF93DF93CDB771
:100D5000DEB76997DEBFCDBFF8948CB1813509F459
:100D600044C0823509F4F1C0ECE1F1E083E701C051
:100D700000005D9BFDCF8CB981918111FACF28E5F0
:100D800032E088EE93E000000197E9F72150310945
:100D9000C1F75498549A789469960FB6F894DEBFC8
:100DA0000FBECDBFDF91CF91FF91EF91BF91AF917A
:100DB0009F918F917F916F915F914F913F912F9173
:100DC0001F910F91FF90EF90DF90CF90BF90AF9069
:100DD0009F908F907F906F905F904F903F902F905B
:100DE0000F900FBE0F901F901895F5E0FB8BB3E1AD
:100DF0002B2E312C2C0E3D1E13E0C12ED12CE12CBC
:100E0000F12CADE0AA2EB12CAC0EBD1EBE016F5F61
:100E10007F4F798F688F8501412C512C3201812CB5
:100E2000912C4C8A5D8A6E8A7F8A3B012501D7DE30
:100E3000D8016D937D938D01860E971E23DD9B0156
:100E4000AC01F30121933193419351933F016C899C
:100E50007D898E899F89620F731F841F951F6C8BFC
:100E60007D8B8E8B9F8B0215130509F752012B0189
:100E70003C01C40163E070E018D18B01C301B201F1
:100E8000A701960125D1F50181919191D801A81B67
:100E9000B90BCD01AA2797FDA095BA2FB7FD4DC07C
:100EA0000697A105B1050CF042C0A88DB98D4D90F3
:100EB0005D906D907D90B98FA88FDA01C90184197A
:100EC0009509A609B709B7FD27C00B97A105B1057C
:100ED00074F5E215F305C1F629013A01C8018C50F9
:100EE0009E4F893E934008F446C0E7EEF0E080E272
:100EF0005D9903C000005D9BFDCF8CB9819181118C
:100F0000FACF29E088E190E00FB6F894A89581BD6A
:100F10000FBE21BD0000FECFB095A09590958195A4
:100F20009F4FAF4FBF4F0B97A105B10594F28B892F
:100F300081508B8B811165CFD8CFB095A0959095BE
:100F400081959F4FAF4FBF4FABCFEFE3F1E082E50D
:100F500001C000005D9BFDCF8CB981918111FACF5A
:100F600029E088E190E00FB6F894A89581BD0FBE06
:100F700021BD0000FECFB0E94B16BFE55B06B1E036
:100F80006B06710408F4B1CFE1EF4E16E9E45E069A
:100F9000E2E06E06710408F0A8CFECE0F1E081E237
:100FA00001C000005D9BFDCF8CB981918111FACF0A
:100FB000B801882777FD8095982F41E06CD8ECE444
:100FC000F1E08CE201C000005D9BFDCF8CB9819106
:100FD0008111FACF41E0C301B2015DD8E1E5F1E052
:100FE0008CE201C000005D9BFDCF8CB98191811125
:100FF000FACF82E011DB60916401772767FD70957D
:10100000872F972F41E047D8E6E5F1E08CE201C059
:1010100000005D9BFDCF8CB981918111FACFAFCEDD
:1010200083E389B910BC88E18AB9579A80B586688C
:1010300080BDEAE5F1E082E601C000005D9BFDCFE6
:101040008CB981918111FACF11B888E480B979DD2A
:10105000C6DD18DC85B78F7885BF85B7806885BF0A
:10106000789485B7806885BF8895FBCF6ED0A59FA3
:10107000900DB49F900DA49F800D911D1124089593
:10108000B7FFF4CFF3DF821B930B0895DB018F933F
:101090009F93ECDFBF91AF91A29F800D911DA39F05
:1010A000900DB29F900D1124089597FB072E16F412
:1010B000009406D077FD08D054D007FC05D03EF44C
:1010C000909581959F4F0895709561957F4F0895F4
:1010D000A1E21A2EAA1BBB1BFD010DC0AA1FBB1F3C
:1010E000EE1FFF1FA217B307E407F50720F0A21BAE
:1010F000B30BE40BF50B661F771F881F991F1A941B
:1011000069F760957095809590959B01AC01BD0144
:10111000CF010895052E97FB16F4009406D057FDD5
:101120000CD0D6DF07FC09D07EF4909580957095A1
:1011300061957F4F8F4F9F4F089550954095309503
:1011400021953F4F4F4F5F4F0895A29FB001B39F2E
:10115000C001A39F01D0B29F700D811D1124911D6C
:101160000895AA1BBB1B51E107C0AA1FBB1FA617EE
:10117000B70710F0A61BB70B881F991F5A95A9F740
:0E11800080959095BC01CD010895F894FFCFA5
:10118E0058585858585858585858580000909294D3
:10119E00636F6D6D756E69636174696F6E207769CB
:1011AE007468204454482073656E736F72206661B4
:1011BE00696C6564210063616E742061636365739D
:1011CE007320746F20424D503038352073656E7326
:1011DE006F72206F6E204932432062757321006456
:1011EE00756520746F206572726F722C2070657237
:1011FE00666F726D696E67206465766963652072CD
:10120E006573657421002077726F6E672076616C4E
:10121E0075652072657475726E65642C20726573C7
:10122E00657474696E672E2E2E2000212C4D554C40
:10123E005449534E53312C54302C0073656E642038
:10124E005120746F206765742064617461206F7221
:10125E00205220666F722072657365740A005265A3
:10126E0073657474696E672E2E2E002C50302C0010
:10127E002C48302C002C240A00626F6F7465642E8B
:04128E002E2E0A00F6
:00000001FF
