:1000000028C142C141C140C13FC13EC13DC13CC107
:100010003BC13AC139C138C137C136C135C134C11C
:1000200033C132C131C1000000000000005F000098
:100030000007000700147F147F14242A7F2A12234C
:100040001308646236495522500005030000001C65
:100050002241000041221C00082A1C2A0808083EF0
:100060000808005030000008080808080060600018
:100070000020100804023E5149453E00427F4000E6
:1000800042615149462141454B311814127F1027D6
:10009000454545393C4A494930017109050336490E
:1000A000494936064949291E0036360000005636B1
:1000B00000000008142241141414141441221408DE
:1000C000000201510906324979413E7E1111117E2B
:1000D0007F494949363E414141227F4141221C7FAF
:1000E000494949417F090901013E414151327F0897
:1000F00008087F00417F41002040413F017F0814F4
:1001000022417F404040407F0204027F7F0408106C
:100110007F3E4141413E7F090909063E4151215E32
:100120007F09192946464949493101017F01013FAB
:100130004040403F1F2040201F7F2018207F631435
:100140000814630304780403615149454300007FA8
:100150004141020408102041417F00007F7F7F7FE2
:100160007F40404040400001020400205454547835
:100170007F484444383844444420384444487F3815
:1001800054545418087E090102081454543C7F0842
:1001900004047800447D40002040443D00007F106E
:1001A000284400417F40007C041804787C08040443
:1001B0007838444444387C14141408081414187C07
:1001C0007C080404084854545420043F4440203C14
:1001D0004040207C1C2040201C3C4030403C4428B7
:1001E0001028440C5050503C4464544C4400083691
:1001F000410000007F0000004136080008082A1C6A
:1002000008081C2A080838555655084855565524DC
:1002100038454645287C090605084465564D440C7A
:100220005052513C205456557800447E4100385479
:100230005655083C4042217C3C4043237C7C0906C7
:100240000578043F4440233844487F0338444645FA
:10025000380011241FBECFE5D4E0DEBFCDBF10E0D3
:10026000A0E6B0E0EEEBF4E102C005900D92A23DF5
:10027000B107D9F711E0A2EDB0E001C01D92A3359E
:10028000B107E1F72FD519C9BBCECF93DF93CDB717
:10029000DEB786E590E024EAFC012083000086E5D5
:1002A00090E0FC0180818823D4F7DF91CF910895FD
:1002B000CF93DF931F92CDB7DEB7898383E290E0BF
:1002C0002981FC01208386E590E024E8FC0120835D
:1002D000000086E590E0FC0180818823D4F70F9030
:1002E000DF91CF910895CF93DF93CDB7DEB786E549
:1002F00090E024E9FC012083DF91CF910895CF9312
:10030000DF93CDB7DEB785E390E025E330E0F90178
:1003100020812063FC01208380E290E024E3FC0143
:10032000208380E690E09093500180934F011092DB
:100330004C0110924B01A9DF88E7BADF84ECB8DFEB
:100340008CE7B6DFD0DFDF91CF9108951F93CF9375
:10035000DF93CDB7DEB765970FB6F894DEBF0FBE5B
:10036000CDBF8A8B6B8B4C8B2D8B8D8980528D8B67
:100370008D89282F332727FD3095C901880F991FB4
:10038000880F991F820F931F9A8389837EDF88E7E6
:100390008FDF8A89806E8CDF8B89806F89DF9C89F3
:1003A000892F880F880F890F83DF89819A818A5D61
:1003B0009F4F9C838B8389819A8101969A8389833D
:1003C0008B819C81FC0114911D838D8171DF89815A
:1003D0009A818A5D9F4F9F838E8389819A8101963E
:1003E0009A8389838E819F81FC0114911887888567
:1003F0005FDF89819A818A5D9F4F9A87898789818A
:100400009A8101969A83898389859A85FC01149142
:100410001B878B854DDF89819A818A5D9F4F9D87E0
:100420008C8789819A8101969A8389838C859D85A1
:10043000FC0114911E878E853BDF89819A818A5D3C
:100440009F4F988B8F8789819A8101969A838983A0
:100450008F859889FC011491198B898929DF43DFE5
:1004600065960FB6F894DEBF0FBECDBFDF91CF917A
:100470001F9108951F93CF93DF93CDB7DEB7659794
:100480000FB6F894DEBF0FBECDBF8A8B6B8B4C8B43
:100490002D8B8D8980528D8B97E08C89292F281B7D
:1004A000822F8C8B8D89282F332727FD3095C9010A
:1004B000880F991F880F991F820F931F04969A83A4
:1004C0008983E3DE88E7F4DE8A89806EF1DE8B893A
:1004D000806FEEDE9C89892F880F880F890FE8DEF8
:1004E00089819A818A5D9F4F9C838B8389819A81C0
:1004F00001979A8389838B819C81FC0114911D83D0
:100500008D81D6DE89819A818A5D9F4F9F838E83FC
:1005100089819A8101979A8389838E819F81FC01C9
:10052000149118878885C4DE89819A818A5D9F4FDE
:100530009A87898789819A8101979A838983898596
:100540009A85FC0114911B878B85B2DE89819A8183
:100550008A5D9F4F9D878C8789819A8101979A83B5
:1005600089838C859D85FC0114911E878E85A0DE74
:1005700089819A818A5D9F4F988B8F8789819A8123
:1005800001979A8389838F859889FC011491198B2F
:1005900089898EDEA8DE65960FB6F894DEBF0FBEA1
:1005A000CDBFDF91CF911F910895CF93DF931F921D
:1005B000CDB7DEB7898380914C01883050F490919B
:1005C0004C0180914B012981492F682F80E0BEDECC
:1005D0001BC080914C01803160F080914C01982FBC
:1005E000905180914B012981492F682F82E0AEDE26
:1005F0000BC080914C01982F985080914B0129811C
:10060000492F682F81E036DF80914C01873178F0E7
:1006100010924C0180914B01833030F480914B015A
:100620008F5F80934B0108C010924B0105C08091F1
:100630004C018F5F80934C010F90DF91CF91089513
:10064000CF93DF9300D0CDB7DEB79A8389838981BA
:100650009A81FC0180818A3061F410924C01809172
:100660004B018F5F80934B0189819A8101969A8318
:10067000898389819A81FC01808197DF89819A81B0
:1006800001969A83898389819A81FC0180818823DC
:10069000F1F60F900F90DF91CF910895CF93DF93F4
:1006A00000D01F92CDB7DEB789837B836A838981AF
:1006B0008A3041F410924C0180914B018F5F8093FE
:1006C0004B0102C0898171DF80E090E00F900F90B4
:1006D0000F90DF91CF910895CF93DF93CDB7DEB721
:1006E00081E290E0FC01108280E290E028E4FC01CD
:1006F0002083DF91CF910895CF93DF9300D0CDB7C2
:10070000DEB78A8386E590E024EAFC0120830000BE
:1007100086E590E0FC0180818823D4F781E290E0B7
:10072000FC018081887F89838981883029F08981D3
:10073000803111F081E020C083E290E02A81FC0149
:10074000208386E590E024E8FC012083000086E514
:1007500090E0FC0180818823D4F781E290E0FC01E5
:100760008081887F89838981883129F089818034DB
:1007700011F081E001C080E00F900F90DF91CF91E8
:100780000895CF93DF9300D0CDB7DEB78A8386E597
:1007900090E024EAFC012083000086E590E0FC0163
:1007A00080818823D4F781E290E0FC018081887FFA
:1007B00089838981883019F08981803171F583E2DC
:1007C00090E02A81FC01208386E590E024E8FC018A
:1007D0002083000086E590E0FC0180818823D4F727
:1007E00081E290E0FC018081887F89838981803269
:1007F00019F08981883599F486E590E024E9FC01B7
:100800002083000086E590E0FC018081882F90E045
:10081000807199270097B1F701C00000B8CF0000A0
:100820000F900F90DF91CF910895CF93DF931F9298
:10083000CDB7DEB7898389815FDF0F90DF91CF91DC
:100840000895CF93DF93CDB7DEB786E590E024E936
:10085000FC012083000086E590E0FC018081882F68
:1008600090E0807199270097B1F7DF91CF910895BB
:10087000CF93DF9300D0CDB7DEB78A8383E290E0D9
:100880002A81FC01208386E590E024E8FC01208396
:10089000000086E590E0FC0180818823D4F781E2A6
:1008A00090E0FC018081887F89838981883211F002
:1008B00081E001C080E00F900F90DF91CF9108950B
:1008C000CF93DF93CDB7DEB786E590E024ECFC0153
:1008D0002083000086E590E0FC0180818823D4F726
:1008E00083E290E0FC018081DF91CF910895CF9366
:1008F000DF93CDB7DEB786E590E024E8FC012083E6
:10090000000086E590E0FC0180818823D4F783E233
:1009100090E0FC018081DF91CF910895CF93DF9328
:1009200000D0CDB7DEB78A8380913201882309F4E5
:1009300047C083E0898303C089818150898389818D
:100940008823A1F08981282F30E0C901880F991FE1
:10095000820F931F880F991F880F991F880F991F67
:1009600088519F4FFC018081823431F78981282F83
:1009700030E0C901880F991F820F931F880F991FBC
:10098000880F991F880F991F88519F4FFC01808104
:100990008234A1F48981282F30E0C901880F991F82
:1009A000820F931F880F991F880F991F880F991F17
:1009B00088519F4F2A81FC01208302C0109232018E
:1009C000CCD4109232010F900F90DF91CF91089507
:1009D000CF93DF9300D000D0CDB7DEB79A83898361
:1009E0007C836B8389819A81803127E29207C8F0EA
:1009F00089819A81929582958F7089279F70892726
:100A00009C01A7E4B3E026D59695879596958795A2
:100A100096958795805D282F8B819C81FC01208392
:100A200005C08B819C8120E2FC01208389819A8111
:100A3000883EF3E09F0788F18B819C81FC01319611
:100A400089819A81969587959695879596958795AC
:100A50009C01A5ECB0E2FED4AC01529542954F70DA
:100A600045275F7045279A01ADECBCECF3D4969511
:100A700087959695879596958795880F991F9C01E0
:100A8000220F331F220F331F820F931F9A01281B3F
:100A9000390BC901805D808306C08B819C810196E2
:100AA00020E2FC01208389819A818436910558F1E6
:100AB0008B819C81FC01329689819A8196958795DC
:100AC000969587959C01ABE7B4E1C4D4AC015695EB
:100AD00047959A01ADECBCECBDD49695879596955B
:100AE000879596958795880F991F9C01220F331F34
:100AF000220F331F820F931F9A01281B390BC90144
:100B0000805D808306C08B819C81029620E2FC017F
:100B1000208389819A818A30910558F18B819C814B
:100B2000FC01339689819A819C01ADECBCEC92D496
:100B3000AC015695479556954795569547959A0118
:100B4000ADECBCEC87D49695879596958795969550
:100B50008795880F991F9C01220F331F220F331F87
:100B6000820F931F9A01281B390BC901805D808376
:100B700006C08B819C81039620E2FC012083898141
:100B80009A81009701F18B819C81FC013496498107
:100B90005A819A01ADECBCEC5DD4969587959695FB
:100BA000879596958795880F991F9C01220F331F73
:100BB000220F331F820F931F9A01281B390BC90183
:100BC000805D808306C08B819C81049628E5FC01B2
:100BD00020830F900F900F900F90DF91CF91089589
:100BE000CF93DF9300D01F92CDB7DEB78B838EEE0D
:100BF00083DD8B813DDE8FEE18DE62DE898377DE5A
:100C00008A831FDE8981882F90E0382F22278A81EE
:100C1000882F90E0822B932B0F900F900F90DF91F5
:100C2000CF910895CF93DF9300D0CDB7DEB78A83FD
:100C30008EEE62DD8A811CDE8FEEF7DD58DE898361
:100C400000DE8981882F90E00F900F90DF91CF9187
:100C50000895CF93DF93CDB7DEB78AEAC1DF9093D3
:100C60003501809334018CEABBDF90933701809388
:100C700036018EEAB5DF909339018093380180EB1D
:100C8000AFDF90933B0180933A0182EBA9DF909311
:100C90003D0180933C0184EBA3DF90933F0180935F
:100CA0003E0186EB9DDF909341018093400188EBEC
:100CB00097DF90934301809342018AEB91DF9093F9
:100CC0004501809344018CEB8BDF90934701809327
:100CD00046018EEB85DF9093490180934801DF91B7
:100CE000CF910895CF93DF93CDB7DEB72A970FB694
:100CF000F894DEBF0FBECDBF02DB80E6898305C05E
:100D000080E253DC89818150898389818823C1F7FE
:100D100010924C0110924B011A821C821B8286E0B9
:100D2000EBECF0E0DE01159601900D928A95E1F76B
:100D30008EE690E0CCD18EEEDFDC84EF99DD8A8305
:100D40008A81882319F08AE790E0C1D18EE290DD94
:100D50008A81882319F08FE790E0B9D172DD84E8A9
:100D600090E0B5D184E690E047D386E990E0AFD13A
:100D700081EA90E0ACD186EF33DF9C838B8389EAF4
:100D800090E0A5D18B819C819E012B5F3F4FB901E3
:100D90001FDECE0105969BD183EB90E060D259DF38
:100DA00089E5BCDD87EC90E092D180913C01909187
:100DB0003D019E012B5F3F4FB9010ADECE01059632
:100DC00086D180E090E02A960FB6F894DEBF0FBE81
:100DD000CDBFDF91CF910895CF93DF9300D000D0A6
:100DE000CDB7DEB79C838B8380913301882309F0D4
:100DF00047C080911A01882309F442C081E08983A9
:100E00003CC01A8234C08981882F90E09C01215017
:100E100031098A81682F70E08981482F50E08A81EA
:100E2000E82FF0E0CA01880F991F840F951F880FE3
:100E3000991F880F991F880F991F8E0F9F1F8E5221
:100E40009F4FFC014081C901880F991F820F931F9A
:100E5000880F991F880F991F880F991F860F971F5A
:100E60008E529F4FFC0140838A818F5F8A838A81E3
:100E7000883148F289818F5F89838981843008F2C3
:100E8000198203C089818F5F898389818330A0F4AF
:100E90008981282F30E0C901880F991F820F931F85
:100EA000880F991F880F991F880F991F8E529F4F87
:100EB000FC018081882331F7809133018823B9F0C8
:100EC0008981282F30E0C901880F991F820F931F55
:100ED000880F991F880F991F880F991F8E529F4F57
:100EE000FC018081882319F489818150898381E004
:100EF000809333011A8241C08B819C8125E030E0D0
:100F0000B901B4D29B018A81882F90E082179307A0
:100F1000CCF48981282F30E08A81482F50E0C90124
:100F2000880F991F820F931F880F991F880F991F91
:100F3000880F991F840F951F8E529F4F2EE5FC013D
:100F4000208318C08981282F30E08A81482F50E003
:100F5000C901880F991F820F931F880F991F880F4F
:100F6000991F880F991F840F951F8E529F4F20E263
:100F7000FC0120838A818F5F8A838A81843108F40F
:100F8000BBCF84E18A831BC08981282F30E08A810E
:100F9000482F50E0C901880F991F820F931F880FB7
:100FA000991F880F991F880F991F840F951F8E52C4
:100FB0009F4F20E2FC0120838A818F5F8A838A8190
:100FC000883110F38B819C818D599F4F873C91050F
:100FD000E0F08981282F30E08B819C8144E650E04D
:100FE000BA0144D2AB01CA01805D482FC901880F04
:100FF000991F820F931F880F991F880F991F880FC1
:10100000991F8A519F4FFC0140838B819C810996D7
:101010008331910500F18981282F30E08B819C81FB
:1010200044E650E0BA0122D24AE050E0BA011ED2B2
:10103000AB01CA01805D482FC901880F991F820F3B
:10104000931F880F991F880F991F880F991F895127
:101050009F4FFC0140838981282F30E08B819C8148
:101060004AE050E0BA0102D2805D482FC901880FE2
:10107000991F820F931F880F991F880F991F880F40
:10108000991F88519F4FFC0140838981282F30E0B0
:10109000C901880F991F820F931F880F991F880F0E
:1010A000991F880F991F87519F4F25E2FC012083CC
:1010B0008B819C818436910514F0109233014DD1BF
:1010C0000F900F900F900F90DF91CF910895CF93D5
:1010D000DF9300D000D01F92CDB7DEB79D838C8305
:1010E0001B8280911A01882309F442C081E0898320
:1010F0003CC01A8234C08981882F90E09C01215025
:1011000031098A81682F70E08981482F50E08A81F7
:10111000E82FF0E0CA01880F991F840F951F880FF0
:10112000991F880F991F880F991F8E0F9F1F8E522E
:101130009F4FFC014081C901880F991F820F931FA7
:10114000880F991F880F991F880F991F860F971F67
:101150008E529F4FFC0140838A818F5F8A838A81F0
:10116000883148F289818F5F89838981843008F2D0
:10117000198203C089818F5F898389818330A0F4BC
:101180008981282F30E0C901880F991F820F931F92
:10119000880F991F880F991F880F991F8E529F4F94
:1011A000FC018081882331F71A824CC08A81882F04
:1011B00090E02C813D81820F931FFC018081882368
:1011C00011F481E08B838B81882309F58981282F95
:1011D00030E08A81482F50E08A81882F90E06C812E
:1011E0007D81860F971FFC016081C901880F991FBF
:1011F000820F931F880F991F880F991F880F991FBF
:10120000840F951F8E529F4FFC01608318C0898107
:10121000282F30E08A81482F50E0C901880F991F9C
:10122000820F931F880F991F880F991F880F991F8E
:10123000840F951F8E529F4F20E2FC0120838A81EC
:101240008F5F8A838A81883108F4B0CF86D00F906F
:101250000F900F900F900F90DF91CF910895CF9343
:10126000DF93CDB7DEB76C970FB6F894DEBF0FBE35
:10127000CDBF9C8F8B8F1A828BE592E4ADE5888F72
:10128000998FAA8F80913201882311F08FE346DB7A
:10129000198232C08981882F90E02B8D3C8D820F7E
:1012A000931FFC018081882311F481E08A838A8165
:1012B0008823A1F48981882F90E02981222F30E0B2
:1012C0004B8D5C8D240F351FF90140819E012D5FF0
:1012D0003F4F820F931FFC0140830BC08981882FF1
:1012E00090E09E012D5F3F4F820F931F20E2FC0193
:1012F000208389818F5F89838981853158F285E1D7
:10130000898319C08981882F90E02981222F30E0BC
:1013100025513109AE01485E5F4F240F351FF90199
:1013200040819E012D5F3F4F820F931FFC01408340
:1013300089818F5F89838981883120F3CE0103966B
:10134000C6DE81E0809332016C960FB6F894DEBF62
:101350000FBECDBFDF91CF910895CF93DF9300D023
:10136000CDB7DEB710924C0110924B011A823CC0EF
:1013700019821BC08A81282F30E08981482F50E0D4
:10138000C901880F991F820F931F880F991F880F1B
:10139000991F880F991F840F951F8E529F4FFC0134
:1013A000808103D989818F5F898389818831C8F4DD
:1013B0008A81282F30E08981482F50E0C901880FA9
:1013C000991F820F931F880F991F880F991F880FED
:1013D000991F840F951F8E529F4FFC018081882397
:1013E00049F68A818F5F8A838A81843008F20F9060
:1013F0000F90DF91CF910895CF93DF9300D000D06D
:1014000000D0CDB7DEB79E838D831A82198212C0B9
:101410001C821B8205C08B819C8101969C838B83DF
:101420008B819C8184369105B0F389819A810196E4
:101430009A83898329813A818D819E812817390772
:1014400038F326960FB6F894DEBF0FBECDBFDF91FE
:10145000CF910895A29FB001B39FC001A39F01D077
:10146000B29F700D811D1124911D089597FB072EC9
:1014700016F4009406D077FD08D00BD007FC05D0F9
:101480003EF4909581959F4F0895709561957F4F9B
:101490000895AA1BBB1B51E107C0AA1FBB1FA617BB
:1014A000B70710F0A61BB70B881F991F5A95A9F70D
:0E14B00080959095BC01CD010895F894FFCF72
:1014BE0000000002000000004E03000000007374E4
:1014CE00617274696E672E2E2E00455252310045A0
:1014DE00525232006D65617375726520696E697462
:1014EE0069617465640064656C6179206F766572FC
:1014FE000072656164696E670074656D7020726557
:10150E0061640072656164696E672063616C696213
:10151E002E2076616C7300616335003132333435C1
:02152E000000BB
:00000001FF
