:1000000028C142C141C140C13FC13EC13DC13CC107
:100010003BC13AC139C138C137C136C135C134C11C
:1000200033C132C131C1000000000000005F000098
:100030000007000700147F147F14242A7F2A12234C
:100040001308646236495522500005030000001C65
:100050002241000041221C00082A1C2A0808083EF0
:100060000808005030000008080808080060600018
:100070000020100804023E5149453E00427F4000E6
:1000800042615149462141454B311814127F1027D6
:10009000454545393C4A494930017109050336490E
:1000A000494936064949291E0036360000005636B1
:1000B00000000008142241141414141441221408DE
:1000C000000201510906324979413E7E1111117E2B
:1000D0007F494949363E414141227F4141221C7FAF
:1000E000494949417F090901013E414151327F0897
:1000F00008087F00417F41002040413F017F0814F4
:1001000022417F404040407F0204027F7F0408106C
:100110007F3E4141413E7F090909063E4151215E32
:100120007F09192946464949493101017F01013FAB
:100130004040403F1F2040201F7F2018207F631435
:100140000814630304780403615149454300007FA8
:100150004141020408102041417F00007F7F7F7FE2
:100160007F40404040400001020400205454547835
:100170007F484444383844444420384444487F3815
:1001800054545418087E090102081454543C7F0842
:1001900004047800447D40002040443D00007F106E
:1001A000284400417F40007C041804787C08040443
:1001B0007838444444387C14141408081414187C07
:1001C0007C080404084854545420043F4440203C14
:1001D0004040207C1C2040201C3C4030403C4428B7
:1001E0001028440C5050503C4464544C4400083691
:1001F000410000007F0000004136080008082A1C6A
:1002000008081C2A080838555655084855565524DC
:1002100038454645287C090605084465564D440C7A
:100220005052513C205456557800447E4100385479
:100230005655083C4042217C3C4043237C7C0906C7
:100240000578043F4440233844487F0338444645FA
:10025000380011241FBECFE5D4E0DEBFCDBF10E0D3
:10026000A0E6B0E0EAEEFBE102C005900D92A03BF3
:10027000B107D9F711E0A0EBB0E001C01D92A534A1
:10028000B107E1F7ACD7AFCCBBCECF93DF93CDB7FF
:10029000DEB786E590E024EAFC012083000086E5D5
:1002A00090E0FC0180818823D4F7DF91CF910895FD
:1002B000CF93DF931F92CDB7DEB7898383E290E0BF
:1002C0002981FC01208386E590E024E8FC0120835D
:1002D000000086E590E0FC0180818823D4F70F9030
:1002E000DF91CF910895CF93DF93CDB7DEB786E549
:1002F00090E024E9FC012083DF91CF910895CF9312
:10030000DF93CDB7DEB785E390E025E330E0F90178
:1003100020812063FC01208380E290E024E3FC0143
:10032000208380E690E090934201809341011092F7
:100330003E0110923D01A9DF88E7BADF84ECB8DF07
:100340008CE7B6DFD0DFDF91CF9108951F93CF9375
:10035000DF93CDB7DEB765970FB6F894DEBF0FBE5B
:10036000CDBF8A8B6B8B4C8B2D8B8D8980528D8B67
:100370008D89282F332727FD3095C901880F991FB4
:10038000880F991F820F931F9A8389837EDF88E7E6
:100390008FDF8A89806E8CDF8B89806F89DF9C89F3
:1003A000892F880F880F890F83DF89819A818A5D61
:1003B0009F4F9C838B8389819A8101969A8389833D
:1003C0008B819C81FC0114911D838D8171DF89815A
:1003D0009A818A5D9F4F9F838E8389819A8101963E
:1003E0009A8389838E819F81FC0114911887888567
:1003F0005FDF89819A818A5D9F4F9A87898789818A
:100400009A8101969A83898389859A85FC01149142
:100410001B878B854DDF89819A818A5D9F4F9D87E0
:100420008C8789819A8101969A8389838C859D85A1
:10043000FC0114911E878E853BDF89819A818A5D3C
:100440009F4F988B8F8789819A8101969A838983A0
:100450008F859889FC011491198B898929DF43DFE5
:1004600065960FB6F894DEBF0FBECDBFDF91CF917A
:100470001F9108951F93CF93DF93CDB7DEB7659794
:100480000FB6F894DEBF0FBECDBF8A8B6B8B4C8B43
:100490002D8B8D8980528D8B97E08C89292F281B7D
:1004A000822F8C8B8D89282F332727FD3095C9010A
:1004B000880F991F880F991F820F931F04969A83A4
:1004C0008983E3DE88E7F4DE8A89806EF1DE8B893A
:1004D000806FEEDE9C89892F880F880F890FE8DEF8
:1004E00089819A818A5D9F4F9C838B8389819A81C0
:1004F00001979A8389838B819C81FC0114911D83D0
:100500008D81D6DE89819A818A5D9F4F9F838E83FC
:1005100089819A8101979A8389838E819F81FC01C9
:10052000149118878885C4DE89819A818A5D9F4FDE
:100530009A87898789819A8101979A838983898596
:100540009A85FC0114911B878B85B2DE89819A8183
:100550008A5D9F4F9D878C8789819A8101979A83B5
:1005600089838C859D85FC0114911E878E85A0DE74
:1005700089819A818A5D9F4F988B8F8789819A8123
:1005800001979A8389838F859889FC011491198B2F
:1005900089898EDEA8DE65960FB6F894DEBF0FBEA1
:1005A000CDBFDF91CF911F910895CF93DF931F921D
:1005B000CDB7DEB7898380913E01883050F49091A9
:1005C0003E0180913D012981492F682F80E0BEDEE8
:1005D0001BC080913E01803160F080913E01982FD8
:1005E000905180913D012981492F682F82E0AEDE34
:1005F0000BC080913E01982F985080913D01298138
:10060000492F682F81E036DF80913E01873178F0F5
:1006100010923E0180913D01833030F480913D0184
:100620008F5F80933D0108C010923D0105C080910D
:100630003E018F5F80933E010F90DF91CF9108952F
:10064000CF93DF9300D0CDB7DEB79A8389838981BA
:100650009A81FC0180818A3061F410923E01809180
:100660003D018F5F80933D0189819A8101969A8334
:10067000898389819A81FC01808197DF89819A81B0
:1006800001969A83898389819A81FC0180818823DC
:10069000F1F60F900F90DF91CF910895CF93DF93F4
:1006A00000D01F92CDB7DEB789837B836A838981AF
:1006B0008A3041F410923E0180913D018F5F80931A
:1006C0003D0102C0898171DF80E090E00F900F90C2
:1006D0000F90DF91CF910895CF93DF9300D01F92B9
:1006E000CDB7DEB78B8380911101882309F047C015
:1006F0008091F800882309F442C081E089833CC0DE
:100700001A8234C08981882F90E09C0121503109E0
:100710008A81682F70E08981482F50E08A81E82F14
:10072000F0E0CA01880F991F840F951F880F991F49
:10073000880F991F880F991F8E0F9F1F80559F4FFD
:10074000FC014081C901880F991F820F931F880FF8
:10075000991F880F991F880F991F860F971F805523
:100760009F4FFC0140838A818F5F8A838A81883111
:1007700048F289818F5F89838981843008F21982E8
:1007800003C089818F5F898389818330A0F4898147
:10079000282F30E0C901880F991F820F931F880FFF
:1007A000991F880F991F880F991F80559F4FFC0133
:1007B0008081882331F7809111018823B9F08981E4
:1007C000282F30E0C901880F991F820F931F880FCF
:1007D000991F880F991F880F991F80559F4FFC0103
:1007E0008081882319F489818150898381E08093F5
:1007F00011011A823FC09B818DEC989F812D11249D
:10080000982F969596958A818917C8F48981282F03
:1008100030E08A81482F50E0C901880F991F820F6C
:10082000931F880F991F880F991F880F991F840F96
:10083000951F80559F4F2EE5FC01208318C08981AC
:10084000282F30E08A81482F50E0C901880F991F76
:10085000820F931F880F991F880F991F880F991F68
:10086000840F951F80559F4F20E2FC0120838A81D1
:100870008F5F8A838A81843108F4BDCF84E18A83C3
:100880001BC08981282F30E08A81482F50E0C901A0
:10089000880F991F820F931F880F991F880F991F28
:1008A000880F991F840F951F80559F4F20E2FC01F0
:1008B00020838A818F5F8A838A81883110F38B81BC
:1008C0008436D8F08981282F30E09B8189E2989F77
:1008D000812D112482958F70805D482FC901880F6A
:1008E000991F820F931F880F991F880F991F880FD8
:1008F000991F8C539F4FFC0140838B818A3048F1B4
:100900008981282F30E09B8189E2989F812D1124D5
:1009100082958F7044E6849F802D1124F92FF81B57
:100920008F2F9DEC899F812D112486958695869524
:10093000805D482FC901880F991F820F931F880F70
:10094000991F880F991F880F991F8B539F4FFC0188
:1009500040838981282F30E09B818DEC989F812DE9
:100960001124869586958695880F482F440F440F4D
:10097000840FF92FF81B8F2F805D482FC901880F36
:10098000991F820F931F880F991F880F991F880F37
:10099000991F8A539F4FFC0140838981282F30E0A3
:1009A000C901880F991F820F931F880F991F880F05
:1009B000991F880F991F89539F4F25E2FC012083BF
:1009C0008B81843610F01092110153D10F900F904B
:1009D0000F90DF91CF910895CF93DF9300D000D097
:1009E00000D0CDB7DEB79D838C836E831B82809150
:1009F000F800882309F446C08E81882309F442C098
:100A000081E089833CC01A8234C08981882F90E0BC
:100A10009C01215031098A81682F70E08981482F1B
:100A200050E08A81E82FF0E0CA01880F991F840FF7
:100A3000951F880F991F880F991F880F991F8E0F78
:100A40009F1F80559F4FFC014081C901880F991F4E
:100A5000820F931F880F991F880F991F880F991F66
:100A6000860F971F80559F4FFC0140838A818F5FBF
:100A70008A838A81883148F289818F5F898389815D
:100A8000843008F2198203C089818F5F898389814C
:100A90008330A0F48981282F30E0C901880F991F85
:100AA000820F931F880F991F880F991F880F991F16
:100AB00080559F4FFC018081882331F71A824CC0FA
:100AC0008A81882F90E02C813D81820F931FFC0149
:100AD0008081882311F481E08B838B81882309F541
:100AE0008981282F30E08A81482F50E08A81882F21
:100AF00090E06C817D81860F971FFC016081C901A8
:100B0000880F991F820F931F880F991F880F991FB5
:100B1000880F991F840F951F80559F4FFC0160839C
:100B200018C08981282F30E08A81482F50E0C90100
:100B3000880F991F820F931F880F991F880F991F85
:100B4000880F991F840F951F80559F4F20E2FC014D
:100B500020838A818F5F8A838A81883108F4B0CFAD
:100B600088D026960FB6F894DEBF0FBECDBFDF91BA
:100B7000CF910895CF93DF93CDB7DEB76C970FB6C3
:100B8000F894DEBF0FBECDBF9C8F8B8F1A828BE592
:100B900092E4ADE5888F998FAA8F80911001882308
:100BA00011F08FE3B5D0198232C08981882F90E08F
:100BB0002B8D3C8D820F931FFC018081882311F4C3
:100BC00081E08A838A818823A1F48981882F90E03B
:100BD0002981222F30E04B8D5C8D240F351FF901C8
:100BE00040819E012D5F3F4F820F931FFC01408388
:100BF0000BC08981882F90E09E012D5F3F4F820FAF
:100C0000931F20E2FC01208389818F5F8983898182
:100C1000853158F285E1898319C08981882F90E058
:100C20002981222F30E025513109AE01485E5F4F06
:100C3000240F351FF90140819E012D5F3F4F820F28
:100C4000931FFC01408389818F5F8983898188316B
:100C500020F3CE01039661E0BFDE81E080931001B6
:100C60006C960FB6F894DEBF0FBECDBFDF91CF916B
:100C70000895CF93DF9300D0CDB7DEB710923E0139
:100C800010923D011A823CC019821BC08A81282F14
:100C900030E08981482F50E0C901880F991F820FE9
:100CA000931F880F991F880F991F880F991F840F12
:100CB000951F80559F4FFC01808177DC89818F5F74
:100CC000898389818831C8F48A81282F30E089811D
:100CD000482F50E0C901880F991F820F931F880F7A
:100CE000991F880F991F880F991F840F951F805592
:100CF0009F4FFC018081882349F68A818F5F8A8318
:100D00008A81843008F20F900F90DF91CF9108957F
:100D1000CF93DF9300D0CDB7DEB78A8380911001E7
:100D2000882309F447C083E0898303C08981815007
:100D3000898389818823A1F08981282F30E0C90126
:100D4000880F991F820F931F880F991F880F991F73
:100D5000880F991F8A539F4FFC018081823431F79D
:100D60008981282F30E0C901880F991F820F931FB6
:100D7000880F991F880F991F880F991F8A539F4FBB
:100D8000FC0180818234A1F48981282F30E0C901DF
:100D9000880F991F820F931F880F991F880F991F23
:100DA000880F991F8A539F4F2A81FC01208302C01C
:100DB000109210015EDF109210010F900F90DF91E2
:100DC000CF9108950F931F93CF93DF93CDB7DEB7E5
:100DD00029970FB6F894DEBF0FBECDBF6E837F8319
:100DE000888799878E819F81A885B985BB239CF4CC
:100DF0008E819F81A885B985B095A09590958195A4
:100E00009F4FAF4FBF4F8E839F83A887B9878DE2D7
:100E100080936E0003C080E280936E0081E089833E
:100E200080E09AECAAE9BBE38A839B83AC83BD8311
:100E30003FC02E813F81488559858A819B81AC8145
:100E4000BD8182179307A407B50718F58981082F7C
:100E500010E08E819F81A885B9852A813B814C81D4
:100E60005D81BC01CD0176D6DA01C9012AE030E00E
:100E700040E050E0BC01CD016DD6DC01CB01805DCE
:100E8000282FC80182599F4FFC01208389818F5FE1
:100E900089838A819B81AC81BD812AE030E040E07A
:100EA00050E0BC01CD0156D62A833B834C835D8341
:100EB0008A819B81AC81BD810097A105B10509F0B4
:100EC000B8CF89818A3038F48981882F90E082599F
:100ED0009F4FFC0110828EE690E029960FB6F894A1
:100EE000DEBF0FBECDBFDF91CF911F910F9108954F
:100EF000CF93DF93CDB7DEB781E290E0FC011082A3
:100F000080E290E028E4FC012083DF91CF910895F6
:100F1000CF93DF9300D0CDB7DEB78A8386E590E02C
:100F200024EAFC012083000086E590E0FC0180813A
:100F30008823D4F781E290E0FC018081887F898357
:100F40008981883029F08981803111F081E020C0C9
:100F500083E290E02A81FC01208386E590E024E88A
:100F6000FC012083000086E590E0FC01808188235D
:100F7000D4F781E290E0FC018081887F89838981B8
:100F8000883129F08981803411F081E001C080E04E
:100F90000F900F90DF91CF910895CF93DF9300D002
:100FA000CDB7DEB78A8386E590E024EAFC01208392
:100FB000000086E590E0FC0180818823D4F781E27F
:100FC00090E0FC018081887F89838981883019F0D5
:100FD0008981803171F583E290E02A81FC012083D0
:100FE00086E590E024E8FC012083000086E590E09F
:100FF000FC0180818823D4F781E290E0FC018081AC
:10100000887F89838981803219F08981883599F4B4
:1010100086E590E024E9FC012083000086E590E06D
:10102000FC018081882F90E0807199270097B1F7AB
:1010300001C00000B8CF00000F900F90DF91CF915A
:101040000895CF93DF931F92CDB7DEB7898389814F
:101050005FDF0F90DF91CF910895CF93DF93CDB7EE
:10106000DEB786E590E024E9FC012083000086E5F8
:1010700090E0FC018081882F90E080719927009793
:10108000B1F7DF91CF910895CF93DF9300D0CDB723
:10109000DEB78A8383E290E02A81FC01208386E523
:1010A00090E024E8FC012083000086E590E0FC014C
:1010B00080818823D4F781E290E0FC018081887FE1
:1010C00089838981883211F081E001C080E00F902E
:1010D0000F90DF91CF910895CF93DF93CDB7DEB717
:1010E00086E590E024ECFC012083000086E590E09A
:1010F000FC0180818823D4F783E290E0FC018081A9
:10110000DF91CF910895CF93DF93CDB7DEB786E51A
:1011100090E024E8FC012083000086E590E0FC01DB
:1011200080818823D4F783E290E0FC018081DF9105
:10113000CF910895CF93DF93CDB7DEB78FE599E0D8
:10114000A0E0B0E08093300190933101A093320190
:10115000B093330188E991E09093130180931201D9
:1011600088EB9FEF909315018093140181ED97EC2C
:10117000909317018093160185EE9FE790931901D4
:101180008093180185EF9FE790931B0180931A01CC
:1011900081E79AE590931D0180931C018EE298E10E
:1011A00090931F0180931E0184E090E090932101B1
:1011B0008093200181E090E89093230180932201A5
:1011C00089EF9DED909325018093240184E39BE0BA
:1011D0009093270180932601DF91CF910895CF93BB
:1011E000DF93CDB7DEB729970FB6F894DEBF0FBEF9
:1011F000CDBF85D880E6898305C080E2D6D98981B4
:101200008150898389818823C1F710923E01109211
:101210003D0161E08BE790E0DFDB87E890E0AADC4E
:101220002ED089E575DD61E08BE990E0D5DB61E0EA
:1012300085EA90E0D1DB1CD1DC01CB018A839B8362
:10124000AC83BD83CAD1DC01CB018E839F83A88789
:10125000B9878E819F81A885B985BC01CD01B2DD9A
:1012600061E0BADB8A819B81AC81BD81BC01CD018B
:10127000A9DD61E0B1DB80E197E21FD4DCCFCF9341
:10128000DF93CDB7DEB762E08AEA63D0DC01CB0141
:10129000909313018093120162E08CEA5AD0DC0132
:1012A000CB01909315018093140162E08EEA51D036
:1012B000DC01CB01909317018093160162E080EB73
:1012C00048D0DC01CB01909319018093180162E0B2
:1012D00082EB3FD0DC01CB0190931B0180931A017C
:1012E00062E084EB36D0DC01CB0190931D0180934A
:1012F0001C0162E086EB2DD0DC01CB0190931F0135
:1013000080931E0162E088EB24D0DC01CB01909336
:1013100021018093200162E08AEB1BD0DC01CB012C
:10132000909323018093220162E08CEB12D0DC01C8
:10133000CB01909325018093240162E08EEB09D0CC
:10134000DC01CB019093270180932601DF91CF919F
:1013500008950F931F93CF93DF93CDB7DEB72B97ED
:101360000FB6F894DEBF0FBECDBF8A876B871E8293
:101370001F821886198619821A821B821C828B850D
:10138000853010F084E08B878B8581508B878EEEC3
:10139000BFDD8A8579DE8FEE54DE1D820EC08D8121
:1013A000082F10E099DE282FCE010696800F911F9E
:1013B000FC0120838D818F5F8D839D818B859817A4
:1013C00070F38D81082F10E09EDE282FCE01069647
:1013D000800F911FFC01208340DE1D8234C08D816F
:1013E000882F90E09E012A5F3F4F820F931FFC01E0
:1013F0008081882F90E0A0E0B0E02B85422F50E064
:101400002D81222F30E0BA01621B730B9B01220F4A
:10141000331F220F331F220F331F04C0880F991F61
:10142000AA1FBB1F2A95D2F729813A814B815C8183
:10143000822B932BA42BB52B89839A83AB83BC83FC
:101440008D818F5F8D839D818B85891740F6898182
:101450009A81AB81BC81BC01CD012B960FB6F8946B
:10146000DEBF0FBECDBFDF91CF911F910F910895C9
:10147000EF92FF920F931F93CF93DF93CDB7DEB719
:101480002B970FB6F894DEBF0FBECDBF19828EEE3C
:101490003FDD84EFF9DD9981890F89838EE2F4DDE8
:1014A0009981890F8983D9DD86E390E0FC018081F1
:1014B000882F90E0817099270097B1F362E086EF62
:1014C00048DFDC01CB019B838A838A819B819C015D
:1014D00040E050E080911C0190911D01CC01A0E002
:1014E000B0E0281B390B4A0B5B0B80911A019091DD
:1014F0001B01CC01A0E0B0E0BC01CD011CD3DC019C
:10150000CB01072E7FE0B595A795979587957A959E
:10151000D1F7702D8C839D83AE83BF83809124018E
:1015200090912501AA2797FDA095BA2F072E7BE061
:10153000880F991FAA1FBB1F7A95D1F7702D209194
:1015400026013091270179010027F7FC0095102F23
:101550002C813D814E815F812E0D3F1D401F511F0B
:10156000BC01CD0119D3288739874A875B872C8135
:101570003D814E815F8188859985AA85BB85820FD3
:10158000931FA41FB51F8093300190933101A09346
:101590003201B09333018091300190913101A091DB
:1015A0003201B09133010896A11DB11D689413F862
:1015B000B595A795979587951694D1F7BC01CD0160
:1015C0002B960FB6F894DEBF0FBECDBFDF91CF9143
:1015D0001F910F91FF90EF900895EF92FF920F935C
:1015E0001F93CF93DF93CDB7DEB765970FB6F8940F
:1015F000DEBF0FBECDBF1D828EEE8ADC84EF44DDE0
:101600009D81890F8D8384EF3FDD9D81890F8D83BF
:1016100024DD86E390E0FC018081882F90E08170DA
:1016200099270097B1F363E086EF93DEDC01CB01ED
:10163000689414F8B695A795979587951694D1F761
:101640008E839F83A887B987809130019091310163
:10165000A0913201B0913301805A9F40A109B10994
:1016600080932C0190932D01A0932E01B0932F0114
:1016700080912001909121017C010027F7FC0095C9
:10168000102F20912C0130912D0140912E0150916D
:101690002F0180912C0190912D01A0912E01B091EC
:1016A0002F01BC01CD0147D2DC01CB01072E7CE02C
:1016B000B595A795979587957A95D1F7702DA8013F
:1016C0009701BC01CD0137D2DC01CB01CD01BB2795
:1016D00097FDB095AB2F8A879B87AC87BD8780919C
:1016E0001401909115019C01442737FD4095542F1A
:1016F00080912C0190912D01A0912E01B0912F018C
:10170000BC01CD0118D2DC01CB01072E7BE0B595E1
:10171000A795979587957A95D1F7702D8E879F8796
:10172000A88BB98B2A853B854C855D858E859F85E9
:10173000A889B989820F931FA41FB51F8A8B9B8B21
:10174000AC8BBD8B8091120190911301AA2797FD5C
:10175000A095BA2F9C01AD01220F331F441F551FC6
:10176000220F331F441F551F8A899B89AC89BD896D
:10177000820F931FA41FB51F880F991FAA1FBB1F9D
:10178000880F991FAA1FBB1F880F991FAA1FBB1F75
:101790000296A11DB11DB695A79597958795B6950B
:1017A000A795979587958093380190933901A093D9
:1017B0003A01B0933B0180911601909117019C0171
:1017C000442737FD4095542F80912C0190912D0195
:1017D000A0912E01B0912F01BC01CD01ACD1DC0153
:1017E000CB01072E7DE0B595A795979587957A95BE
:1017F000D1F7702D8A879B87AC87BD8780911E01AA
:1018000090911F017C010027F7FC0095102F20917B
:101810002C0130912D0140912E0150912F0180918A
:101820002C0190912D01A0912E01B0912F01BC01AE
:10183000CD0181D1DC01CB01072E7CE0B595A795C8
:10184000979587957A95D1F7702DA8019701BC01DE
:10185000CD0171D1DC01CB01CD01BB2797FDB09546
:10186000AB2F8E879F87A88BB98B2A853B854C85AC
:101870005D858E859F85A889B989820F931FA41FD6
:10188000B51F0296A11DB11DB595A7959795879592
:10189000B595A795979587958A8B9B8BAC8BBD8BC0
:1018A00080911801909119019C0140E050E08A89D3
:1018B0009B89AC89BD899058AF4FBF4FBC01CD010A
:1018C0003AD1DC01CB01072E7FE0B695A79597951D
:1018D00087957A95D1F7702D8093340190933501D7
:1018E000A0933601B093370180913801909139016E
:1018F000A0913A01B0913B012E813F8148855985E5
:10190000281B390B4A0B5B0B8AE698E1DC0103D1FB
:10191000DC01CB018093280190932901A0932A0137
:10192000B0932B018091280190912901A0912A0167
:10193000B0912B01BB23F4F08091280190912901F3
:10194000A0912A01B0912B01880F991FAA1FBB1FDC
:101950002091340130913501409136015091370189
:10196000BC01CD01F7D0DA01C90189839A83AB8329
:10197000BC831DC08091280190912901A0912A016A
:10198000B0912B0120913401309135014091360105
:1019900050913701BC01CD01DDD0DA01C901880FBA
:1019A000991FAA1FBB1F89839A83AB83BC8389813C
:1019B0009A81AB81BC81292F3A2F4B2F552747FDA8
:1019C0005A9589819A81AB81BC81892F9A2FAB2F3F
:1019D000BB27A7FDBA95BC01CD01ADD0DC01CB0181
:1019E0008A879B87AC87BD872A853B854C855D852B
:1019F0008EED9BE0DC018FD0DC01CB01CD01BB275C
:101A000097FDB095AB2F8A879B87AC87BD872981CF
:101A10003A814B815C8183E493EEDC0188D0DC0168
:101A2000CB01CD01BB2797FDB095AB2F8E879F874C
:101A3000A88BB98B2A853B854C855D858E859F85D6
:101A4000A889B989820F931FA41FB51F8153914F95
:101A5000AF4FBF4F689413F8B595A79597958795A5
:101A60001694D1F729813A814B815C81820F931FB3
:101A7000A41FB51F89839A83AB83BC8389819A8114
:101A8000AB81BC81885B924FAF4FBF4F89839A83F4
:101A9000AB83BC8389819A81AB81BC81BC01CD01C0
:101AA00065960FB6F894DEBF0FBECDBFDF91CF9124
:101AB0001F910F91FF90EF900895CF93DF9300D087
:101AC00000D000D0CDB7DEB79E838D831A821982F5
:101AD00012C01C821B8205C08B819C8101969C8355
:101AE0008B838B819C8184369105B0F389819A81A7
:101AF00001969A83898329813A818D819E81281755
:101B0000390738F326960FB6F894DEBF0FBECDBF67
:101B1000DF91CF9108955BD0A59F900DB49F900D5C
:101B2000A49F800D911D11240895B7FFF4CFF3DF1A
:101B3000821B930B0895DB018F939F93ECDFBF9182
:101B4000AF91A29F800D911DA39F900DB29F900D0C
:101B500011240895A1E21A2EAA1BBB1BFD010DC082
:101B6000AA1FBB1FEE1FFF1FA217B307E407F5074D
:101B700020F0A21BB30BE40BF50B661F771F881F29
:101B8000991F1A9469F760957095809590959B01BF
:101B9000AC01BD01CF010895052E97FB16F400940A
:101BA00006D057FD0CD0D6DF07FC09D07EF4909507
:101BB0008095709561957F4F8F4F9F4F08955095F9
:101BC0004095309521953F4F4F4F5F4F0895A29F0D
:101BD000B001B39FC001A39F01D0B29F700D811DC2
:0A1BE0001124911D0895F894FFCF21
:101BEA0000000002000000004E03000000005858E8
:101BFA005858585858585858580000737461727495
:101C0A00696E672E2E2E0072656164696E672063A5
:101C1A00616C69622E2076616C73007265616C205A
:101C2A0074656D700070726573737572653A000041
:00000001FF
