:1000000012C02CC02BC02AC029C028C027C026C0BF
:1000100025C024C023C04DC421C020C01FC01EC0A5
:100020001DC01CC01BC011241FBECFE5D4E0DEBF25
:10003000CDBF10E0A0E6B0E0E8E6FBE002C005902E
:100040000D92AC3DB107D9F711E0ACEDB0E001C0C5
:100050001D92AB30B107E1F7E6D484C5D1CF5F9BE9
:10006000FECF8CB108955D9BFECF8CB90895FC0145
:100070002081222339F031965D9BFECF2CB921914E
:100080002111FACF089583E389B910BC88E18AB9B8
:10009000579A80B5866880BD089511B888E480B904
:1000A000089594EA96BF06B607FEFDCF91B1987FFA
:1000B000983021F0903111F081E0089583B984E8FF
:1000C00086BF06B607FEFDCF91B1987F983119F033
:1000D00081E0903491F780E0089524EA34E844E91F
:1000E00026BF06B607FEFDCF91B1987F983011F07C
:1000F0009031B1F783B936BF06B607FEFDCF91B197
:10010000987F903219F0983509F0089546BF06B6E9
:1001100004FCFDCFE5CFC5CF84E986BF06B604FC5D
:10012000FDCF089583B984E886BF06B607FEFDCFEC
:1001300091B1987F81E0983209F0089580E00895A8
:1001400084EC86BF06B607FEFDCF83B1089584E830
:1001500086BF06B607FEFDCF83B108950F931F93A8
:10016000660F771F881F991F8B019C010150110991
:1001700021093109672B682B692B39F00000000039
:100180000150110921093109C8F71F910F910895F4
:1001900094B341E050E002C0440F551F8A95E2F746
:1001A000342F942B94BB85B3242F2095822385BBB9
:1001B00080E090E000000000019680346CE9960732
:1001C000C9F785B3832B85BB80E090E00000000079
:1001D000019680359105D1F784B3822384BB83B324
:1001E00090E084239523892BD1F783B390E0842377
:1001F0009523892BD1F383B390E084239523892B16
:10020000D1F7ECEDF0E01082A8E060E0660F770B2C
:10021000608323B330E024233523232BD1F320E064
:1002200030E0000000002F5F3F4F24363105C9F752
:1002300083B390E084239523892B41F06160608330
:1002400023B330E024233523232BD1F7A15011F021
:100250006081DCCF319680E0E13EF807A1F683B300
:1002600090E084239523892BD1F30895CF92DF92D8
:10027000EF92FF920F931F93CF93DF9300D000D0A4
:10028000CDB7DEB7182F19821A821B821C82653007
:1002900008F064E0F62EFA948EEE03DF13B984E8DA
:1002A00086BF06B607FEFDCF81B18FEE34DFFF209B
:1002B00009F453C0FE013196DF0194EC96BF06B6F7
:1002C00007FEFDCF83B18D938A2F8E1B8F15B0F360
:1002D0006F2D70E0DB0184E886BF06B607FEFDCF18
:1002E00083B1AE0FBF1F8C9384E986BF06B604FCB2
:1002F000FDCFE12C00E010E098014E2D50E0DF0131
:10030000A40FB51F8C9190E0A0E0B0E06B01C41A7F
:10031000D50AA601440F551F440F551F440F551F02
:1003200004C0880F991FAA1FBB1F4A95D2F7082B3C
:10033000192B2A2B3B2BE394FE14F8F6B801C901C4
:100340000F900F900F900F90DF91CF911F910F9111
:10035000FF90EF90DF90CF900895A0E0B0E0FE0115
:10036000319660E070E0B7CF62E08AEA7FDF709399
:10037000E2006093E10062E08CEA78DF7093E400D1
:100380006093E30062E08EEA71DF7093E6006093B1
:10039000E50062E080EB6ADF7093E8006093E700BD
:1003A00062E082EB63DF7093EA006093E90062E051
:1003B00084EB5CDF7093EC006093EB0062E086EB13
:1003C00055DF7093EE006093ED0062E088EB4EDF46
:1003D0007093F0006093EF0062E08AEB47DF709368
:1003E000F2006093F10062E08CEB40DF7093F40068
:1003F0006093F30062E08EEB39DF7093F600609358
:10040000F5000895CF92DF92EF92FF920F931F9322
:100410008EEE47DE84EF83B984E886BF06B607FE1A
:10042000FDCF81B18EE283B984E886BF06B607FEB0
:10043000FDCF81B184E986BF06B604FCFDCFB09B39
:10044000FECF62E086EF12DF9B01AC014427552707
:100450008091EB009091EC00281B390B4109510968
:10046000A091E900B091EA0015D36B017C018FE007
:10047000F594E794D794C7948A95D1F76091F300E7
:100480007091F400882777FD8095982F2BE0660FF8
:10049000771F881F991F2A95D1F72091F500309179
:1004A000F600442737FD4095542F2C0D3D1D4E1D61
:1004B0005F1D31D32C0D3D1D4E1D5F1D2093FF0090
:1004C00030930001409301015093020189019A0188
:1004D000085F1F4F2F4F3F4F44E0359527951795E5
:1004E00007954A95D1F7B801C9011F910F91FF9067
:1004F000EF90DF90CF9008954F925F926F927F922E
:100500008F929F92AF92BF92CF92DF92EF92FF9223
:100510000F931F93CF93DF9300D000D0CDB7DEB7FA
:100520008EEEBFDD84EF83B984E886BF06B607FE92
:10053000FDCF81B184EF83B984E886BF06B607FE9C
:10054000FDCF81B184E986BF06B604FCFDCFB09B28
:10055000FECF63E086EF8ADE2B013C01C090FF00F6
:10056000D0900001E0900101F090020180EAC81AE9
:100570008FE0D80AE108F108C092FB00D092FC009D
:10058000E092FD00F092FE00A7019601C701B601BE
:1005900091D2DC01CB010CE0B595A7959795879595
:1005A0000A95D1F789839A83AB83BC830091E100DC
:1005B0001091E200A091EF00B091F00029813A8102
:1005C0004B815C8171D24C01BB2497FCB094AB2C65
:1005D000A091E300B091E400A701960165D2EBE0A1
:1005E0009595879577956795EA95D1F7860E971E2D
:1005F000A81EB91EC801AA2797FDA095BA2F880F7B
:10060000991FAA1FBB1F880F991FAA1FBB1F880E07
:10061000991EAA1EBB1E880C991CAA1CBB1CE89420
:1006200080F89FE3B9228092070190920801A0927E
:100630000901B0920A01A091E500B091E60034D220
:100640006B017C01BDE0F594E794D794C794BA950B
:10065000D1F7A091ED00B091EE0029813A814B8154
:100660005C8122D2BB2797FDB095AB2FC80ED91E57
:10067000EA1EFB1EA2E0CA0ED11CE11CF11CF5947F
:10068000E794D794C794F594E794D794C794B0E8C7
:10069000DB0EE11CF11CA091E700B091E800A7017E
:1006A0009601F8D16B017C018FE0F694E794D79422
:1006B000C7948A95D1F7C0920301D0920401E092C9
:1006C0000501F092060195E076946794579447945B
:1006D0009A95D1F7481859086A087B08AAE6B8E144
:1006E000A3019201D7D16093F7007093F800809333
:1006F000F9009093FA0097FD57C0660F771F881F87
:10070000991FA7019601E5D149015A019927B7FC24
:100710009A958B2D7A2D692D9B01AC01CBD19B0134
:10072000AC01AEEDBBE0B6D16C01FF24D7FCF09478
:10073000EF2CA3E4B3EEA5019401B8D1BB2797FD3C
:10074000B095AB2FC80ED91EEA1EFB1EEFECCE0EE5
:10075000EEE0DE1EE11CF11CA4E0F594E794D794D2
:10076000C794AA95D1F7C80CD91CEA1CFB1CF8E465
:10077000CF0EFDE0DF1EE11CF11CB601C7010F909A
:100780000F900F900F90DF91CF911F910F91FF90DD
:10079000EF90DF90CF90BF90AF909F908F907F9021
:1007A0006F905F904F900895A701960192D14901F3
:1007B0005A01880C991CAA1CBB1CA8CF08953F9213
:1007C0004F925F926F927F928F929F92AF92BF9261
:1007D000CF92DF92EF92FF920F931F93CF93DF930D
:1007E0004B015C0197FD57C06115710581059105AD
:1007F000C9F480E3809360001092610080E690E08D
:10080000DF91CF911F910F91FF90EF90DF90CF90EC
:10081000BF90AF909F908F907F906F905F904F9020
:100820003F900895312CCAE0D0E0C12C2AECD22EA2
:100830002AE9E22E2BE3F22E3AE0432E512C612CD2
:10084000712CC814D904EA04FB0490F4032D10E0C1
:10085000005A1F4FC501B401A70196013AD1CA0140
:10086000B901A301920135D1605DF8016083339431
:10087000C701B601A30192012CD169017A01219728
:1008800001F7F9E0F31508F4B9CFE32DF0E0E05AF1
:10089000FF4F1082B3CFB094A09490948094811CA9
:1008A000911CA11CB11C8DE2809360003324339411
:1008B000BACF1F920F920FB60F9211242F933F932E
:1008C0004F935F936F937F938F939F93AF93BF9358
:1008D000EF93FF93F8948CB18135F1F0823509F4F0
:1008E00090C0EAEBF0E083E75D9BFECF8CB981918D
:1008F0008111FACF7894FF91EF91BF91AF919F91C1
:100900008F917F916F915F914F913F912F910F90B8
:100910000FBE0F901F901895EAE8F0E081E25D9B12
:10092000FECF8CB981918111FACF6CDD48DFFC01DB
:100930002081222341F0FC0131965D9BFECF2CB932
:1009400021912111FACFEAE9F0E08CE25D9BFECF24
:100950008CB981918111FACFCFDD31DFFC0120818B
:10096000222341F0FC0131965D9BFECF2CB92191F1
:100970002111FACFEFE9F0E08CE25D9BFECF8CB95C
:1009800081918111FACF04DC6091DC00772767FD4B
:100990007095872F972F13DFFC012081222341F0D0
:1009A000FC0131965D9BFECF2CB921912111FACF2C
:1009B000E4EAF0E08CE25D9BFECF8CB9819181117D
:1009C000FACF81E0E5DB6091DC00772767FD709569
:1009D000872F972FF4DEFC012081222341F0FC01B8
:1009E00031965D9BFECF2CB921912111FACFE9EA16
:1009F000F0E08CE25D9BFECF8CB981918111FACF42
:100A000079CFEDEAF0E05D9BFECF8CB98191811149
:100A1000FACF29E088E190E00FB6F894A89581BD5F
:100A20000FBE21BDFFCF83E389B910BC88E18AB92D
:100A3000579A80B5866880BDE8E7F0E082E65D9B66
:100A4000FECF8CB981918111FACF11B888E480B9B9
:100A50008BDCD8DC51DD85B78F7885BF85B78068A2
:100A600085BF7894E0E8F0E083E75D9BFECF8CB92A
:100A700081918111FACF04C085B7806885BF8895C0
:100A8000EDE6F0E080818823B9F35D9BFECF8CB961
:100A90003196F8CF5BD0A59F900DB49F900DA49F89
:100AA000800D911D11240895B7FFF4CFF3DF821B51
:100AB000930B0895DB018F939F93ECDFBF91AF9170
:100AC000A29F800D911DA39F900DB29F900D1124A8
:100AD0000895A1E21A2EAA1BBB1BFD010DC0AA1F7F
:100AE000BB1FEE1FFF1FA217B307E407F50720F097
:100AF000A21BB30BE40BF50B661F771F881F991F12
:100B00001A9469F760957095809590959B01AC015A
:100B1000BD01CF010895052E97FB16F4009406D071
:100B200057FD0CD0D6DF07FC09D07EF49095809558
:100B3000709561957F4F8F4F9F4F089550954095C9
:100B4000309521953F4F4F4F5F4F0895A29FB001C1
:100B5000B39FC001A39F01D0B29F700D811D1124CE
:080B6000911D0895F894FFCFE8
:100B680058585858585858585858580000736C6571
:100B78006570696E670A00626F6F7465640A007356
:100B880074617274696E670A00212C4D554C544982
:100B9800534E53312C54302C002C50302C002C4800
:100BA800302C002C48312C002C240A005265736527
:100BB8007474696E672E2E2E0073656E6420512042
:100BC800746F206765742064617461206F722052AD
:0C0BD80020666F722072657365740A005D
:00000001FF
