:1000000012C02CC02BC02AC029C028C027C026C0BF
:1000100025C024C023C08FC521C020C01FC01EC062
:100020001DC01CC01BC011241FBECFE5D4E0DEBF25
:10003000CDBF11E0A0E6B0E0ECEBFFE002C0059020
:100040000D92A236B107D9F711E0A2E6B1E001C0E6
:100050001D92A139B107E1F7FAD6AEC7D1CF5F99AA
:1000600003C000005F9BFDCF8CB108955D9903C074
:1000700000005D9BFDCF8CB90895FC0120812223F7
:1000800049F0319601C000005D9BFDCF2CB9219154
:100090002111FACF08958F929F92AF92BF92CF9283
:1000A000DF92EF92FF92CF936B017C01C42F97FDFB
:1000B00025C181E0C8168AECD8068AE9E8068BE3F8
:1000C000F80614F4CB3070F0C701B60120E03AEC2A
:1000D0004AE95BE336D7205D5D9903C000005D9B74
:1000E000FDCF2CB981E0C81681EED80685EFE80671
:1000F00085E0F80614F4CA30A8F0C701B60120E084
:1001000031EE45EF55E01DD7CA01B9012AE030E0D4
:1001100040E050E016D7605D5D9903C000005D9B34
:10012000FDCF6CB981E8C81686E9D80688E9E806EB
:10013000F10414F4C930A8F0C701B60120E836E98B
:1001400048E950E0FED6CA01B9012AE030E040E0BB
:1001500050E0F7D6605D5D9903C000005D9BFDCF68
:100160006CB981E4C81682E4D8068FE0E806F10491
:1001700014F4C830A8F0C701B60120E432E44FE01F
:1001800050E0DFD6CA01B9012AE030E040E050E09B
:10019000D8D6605D5D9903C000005D9BFDCF6CB952
:1001A00081EAC81686E8D80681E0E806F10414F46E
:1001B000C730A8F0C701B60120EA36E841E050E0B8
:1001C000C0D6CA01B9012AE030E040E050E0B9D61B
:1001D000605D5D9903C000005D9BFDCF6CB981E15E
:1001E000C81687E2D806E104F10414F4C630A8F07A
:1001F000C701B60120E137E240E050E0A2D6CA01D3
:10020000B9012AE030E040E050E09BD6605D5D99A6
:1002100003C000005D9BFDCF6CB989EEC81683E07A
:10022000D806E104F10414F4C430A8F0C701B60103
:1002300028EE33E040E050E084D6CA01B9012AE05C
:1002400030E040E050E07DD6605D5D9903C0000085
:100250005D9BFDCF6CB985E6C816D104E104F104BD
:1002600014F4C330A8F0C701B60124E630E040E042
:1002700050E067D6CA01B9012AE030E040E050E022
:1002800060D6605D5D9903C000005D9BFDCF6CB9D9
:100290008BE0C816D104E104F10414F4C230B0F0CC
:1002A0008AE0882E912CA12CB12CC701B601A501A2
:1002B000940147D6CA01B901A501940142D6605DF7
:1002C0005D9903C000005D9BFDCF6CB9C701B6010D
:1002D0002AE030E040E050E034D6605D5D9903C034
:1002E00000005D9BFDCF6CB9CF91FF90EF90DF9048
:1002F000CF90BF90AF909F908F9008955D9903C06D
:1003000000005D9BFDCF8DE28CB9F094E094D09419
:10031000C094C11CD11CE11CF11CCBCE83E389B974
:1003200010BC88E18AB9579A80B5866880BD089567
:100330005498549A089511B888E480B9089594EABD
:1003400096BF06B607FEFDCF91B1987F983021F099
:10035000903111F081E0089583B984E886BF06B634
:1003600007FEFDCF91B1987F983119F081E090346C
:1003700091F780E0089524EA34E844E926BF06B600
:1003800007FEFDCF91B1987F983011F09031B1F711
:1003900083B936BF06B607FEFDCF91B1987F903284
:1003A00019F0983509F0089546BF06B604FCFDCF54
:1003B000E5CFC5CF84E986BF06B604FCFDCF08951E
:1003C00083B984E886BF06B607FEFDCF91B1987F5A
:1003D00081E0983209F0089580E0089584EC86BFAA
:1003E00006B607FEFDCF83B1089584E886BF06B642
:1003F00007FEFDCF83B108950F931F93660F771FFC
:10040000881F991F8B019C01015011092109310995
:10041000672B682B692B39F000000000015011098F
:1004200021093109C8F71F910F9108950F931F9368
:100430008B019C0137FD05C0B801C9011F910F91C7
:10044000089530952095109501951F4F2F4F3F4FE0
:10045000B801C9011F910F91089597B341E050E091
:1004600002C0440F551F8A95E2F7942B97BB80E09A
:1004700090E000000000019680362AEE9207C9F74E
:1004800097B3842F8095892387BB80E090E000009C
:100490000000019680359105D1F786B390E0842362
:1004A0009523892BD1F786B390E084239523892B5C
:1004B000D1F386B390E084239523892BD1F7E2E62C
:1004C000F1E01082A8E060E0660F770B608326B34E
:1004D00030E024233523232BD1F320E030E000004B
:1004E00000002F5F3F4F24363105C9F786B390E0F7
:1004F00084239523892B41F06160608326B330E02B
:1005000024233523232BD1F7A15011F06081DCCFB8
:10051000319681E0E736F807A1F686B390E08423B0
:100520009523892BD1F30895009771F040E050E0B6
:1005300028EE33E0000021503109E1F74F5F5F4FB3
:1005400048175907A9F708950895813071F182304D
:1005500001F1EDEBF0E084E601C000005D9BFDCF12
:100560008CB981918111FACF20E137E288EE93E0D6
:1005700000000197E9F721503109C1F729E088E12E
:1005800090E00FB6F894A89581BD0FBE21BD000084
:10059000FECFEEE6F0E083E601C000005D9BFDCFFC
:1005A0008CB981918111FACFD4CFE4E9F0E083E6F0
:1005B00001C000005D9BFDCF8CB981918111FACF04
:1005C000C8CFCF92DF92EF92FF920F931F93CF93FA
:1005D000DF9300D000D0CDB7DEB7182F19821A8272
:1005E0001B821C82653008F064E0F62EFA948EEED1
:1005F000A6DE811166C013B984E886BF06B607FE81
:10060000FDCF81B18FEED5DEFF2009F453C0FE018E
:100610003196DF0194EC96BF06B607FEFDCF83B19D
:100620008D938A2F8E1B8F15B0F36F2D70E0DB0139
:1006300084E886BF06B607FEFDCF83B1AE0FBF1FAD
:100640008C9384E986BF06B604FCFDCFE12C00E064
:1006500010E098014E2D50E0DF01A40FB51F8C91E2
:1006600090E0A0E0B0E06B01C41AD50AA601440FE7
:10067000551F440F551F440F551F04C0880F991F65
:10068000AA1FBB1F4A95D2F7082B192B2A2B3B2BED
:10069000E394FE14F8F6B801C9010F900F900F9083
:1006A0000F90DF91CF911F910F91FF90EF90DF900E
:1006B000CF900895A0E0B0E0FE01319660E070E0D8
:1006C000B7CF81E042DF4F925F926F927F928F921D
:1006D0009F92AF92BF92CF92DF92EF92FF920F93D1
:1006E0001F93CF93DF9300D000D0CDB7DEB78EEE4F
:1006F00026DE84EF83B984E886BF06B607FEFDCF09
:1007000081B184EF83B984E886BF06B607FEFDCFCA
:1007100081B184E986BF06B604FCFDCF999903C078
:100720000000999BFDCF63E086EF4BDF2B013C017E
:10073000C0908501D0908601E0908701F0908801FB
:1007400080EAC81A8FE0D80AE108F108C092810156
:10075000D0928201E0928301F0928401A701960178
:10076000C701B601AAD3DC01CB01FCE0B595A79582
:1007700097958795FA95D1F789839A83AB83BC8344
:100780000091670110916801A0917501B091760107
:1007900029813A814B815C818AD34C01BB2497FC2F
:1007A000B094AB2CA0916901B0916A01A7019601A8
:1007B0007ED3BBE09595879577956795BA95D1F7E8
:1007C000860E971EA81EB91EC801AA2797FDA095E0
:1007D000BA2F880F991FAA1FBB1F880F991FAA1F26
:1007E000BB1F880E991EAA1EBB1E880C991CAA1C32
:1007F000BB1CE89480F89FE3B92280928D0190920F
:100800008E01A0928F01B0929001A0916B01B091E6
:100810006C014DD36B017C018DE0F594E794D79486
:10082000C7948A95D1F7A0917301B0917401298181
:100830003A814B815C813BD3BB2797FDB095AB2FB1
:10084000C80ED91EEA1EFB1EA2E0CA0ED11CE11C76
:10085000F11CF594E794D794C794F594E794D79452
:10086000C794B0E8DB0EE11CF11CA0916D01B091C2
:100870006E01A701960111D36B017C014FE0F69444
:10088000E794D794C7944A95D1F7C0928901D09242
:100890008A01E0928B01F0928C0155E07694679486
:1008A000579447945A95D1F7481859086A087B0815
:1008B000AAE6B8E1A3019201F0D260937D017093A2
:1008C0007E0180937F019093800197FD51C0660F58
:1008D000771F881F991FA701960111D349015A015B
:1008E0009927B7FC9A958B2D7A2D692D9B01AC0128
:1008F000E4D29B01AC01AEEDBBE0CFD26C01FF2492
:10090000D7FCF094EF2CA3E4B3EEA5019401D1D26F
:10091000BB2797FDB095AB2FC80ED91EEA1EFB1E54
:10092000EFECCE0EEEE0DE1EE11CF11C44E0F5948F
:10093000E794D794C7944A95D1F7C80CD91CEA1C00
:10094000FB1CB601C7010F900F900F900F90DF9125
:10095000CF911F910F91FF90EF90DF90CF90BF90BC
:10096000AF909F908F907F906F905F904F90089581
:10097000A7019601C4D249015A01880C991CAA1CEE
:10098000BB1CAECF62E08AEA1CDE70936801609304
:10099000670162E08CEA15DE70936A016093690179
:1009A00062E08EEA0EDE70936C0160936B0162E090
:1009B00080EB07DE70936E0160936D0162E082EB65
:1009C00000DE7093700160936F0162E084EBF9DDEB
:1009D000709372016093710162E086EBF2DD7093B7
:1009E00074016093730162E088EBEBDD7093760134
:1009F0006093750162E08AEBE4DD709378016093A7
:100A0000770162E08CEBDDDD70937A016093790110
:100A100062E08EEBD6DD70937C0160937B010895DC
:100A2000CF92DF92EF92FF920F931F938EEE87DCAF
:100A300081117FC084EF83B984E886BF06B607FEC4
:100A4000FDCF81B18EE283B984E886BF06B607FE8A
:100A5000FDCF81B184E986BF06B604FCFDCF99992C
:100A600003C00000999BFDCF22E330E088EE93E0C5
:100A700000000197E9F721503109C1F762E086EFE4
:100A8000A0DD9B01AC014427552780917101909115
:100A90007201281B390B41095109A0916F01B091D6
:100AA0007001FBD16B017C016FE0F594E794D79462
:100AB000C7946A95D1F76091790170917A0188277E
:100AC00077FD8095982FEBE0660F771F881F991FA1
:100AD000EA95D1F720917B0130917C01442737FDC5
:100AE0004095542F2C0D3D1D4E1D5F1D2AD22C0DFF
:100AF0003D1D4E1D5F1D209385013093860140935F
:100B000087015093880189019A01085F1F4F2F4F79
:100B10003F4FF4E03595279517950795FA95D1F74E
:100B2000B801C9011F910F91FF90EF90DF90CF9016
:100B3000089581E00ADD1F920F920FB60F921124E3
:100B40002F923F924F925F926F927F928F929F92DD
:100B5000AF92BF92CF92DF92EF92FF920F931F93CB
:100B60002F933F934F935F936F937F938F939F93B5
:100B7000AF93BF93EF93FF93CF93DF93CDB7DEB7E0
:100B80006997DEBFCDBFF8948CB1813509F444C0BC
:100B9000823509F4F1C0E9E1F1E083E701C000002A
:100BA0005D9BFDCF8CB981918111FACF28E532E0B0
:100BB00088EE93E000000197E9F721503109C1F771
:100BC0005498549A789469960FB6F894DEBF0FBE85
:100BD000CDBFDF91CF91FF91EF91BF91AF919F91E9
:100BE0008F917F916F915F914F913F912F911F91C5
:100BF0000F91FF90EF90DF90CF90BF90AF909F90BC
:100C00008F907F906F905F904F903F902F900F90BC
:100C10000FBE0F901F901895F5E0FB8BB3E12B2EC4
:100C2000312C2C0E3D1E13E0C12ED12CE12CF12CC9
:100C3000ADE0AA2EB12CAC0EBD1EBE016F5F7F4F82
:100C4000798F688F8501412C512C3201812C912C98
:100C50004C8A5D8A6E8A7F8A3B012501E1DED801DC
:100C60006D937D938D01860E971E2DDD9B01AC014A
:100C7000F30121933193419351933F016C897D8915
:100C80008E899F89620F731F841F951F6C8B7D8BCC
:100C90008E8B9F8B0215130509F752012B013C0126
:100CA000C40163E070E018D18B01C301B201A70158
:100CB000960125D1F50181919191D801A81BB90B1D
:100CC000CD01AA2797FDA095BA2FB7FD4DC0069775
:100CD000A105B1050CF042C0A88DB98D4D905D9075
:100CE0006D907D90B98FA88FDA01C901841995099B
:100CF000A609B709B7FD27C00B97A105B10574F583
:100D0000E215F305C1F629013A01C8018C509E4F46
:100D1000893E934008F446C0E4EEF0E080E25D993D
:100D200003C000005D9BFDCF8CB981918111FACF8A
:100D300029E088E190E00FB6F894A89581BD0FBE38
:100D400021BD0000FECFB095A095909581959F4F55
:100D5000AF4FBF4F0B97A105B10594F28B8981501E
:100D60008B8B811165CFD8CFB095A095909581954B
:100D70009F4FAF4FBF4FABCFECE3F1E082E501C037
:100D800000005D9BFDCF8CB981918111FACF29E0E4
:100D900088E190E00FB6F894A89581BD0FBE21BD03
:100DA0000000FECFB0E94B16BFE55B06B1E06B0675
:100DB000710408F4B1CFE1EF4E16E9E45E06E2E01B
:100DC0006E06710408F0A8CFE9E0F1E081E201C00D
:100DD00000005D9BFDCF8CB981918111FACFB801E4
:100DE000882777FD8095982F41E055D9E9E4F1E017
:100DF0008CE201C000005D9BFDCF8CB98191811117
:100E0000FACF41E0C301B20146D9EEE4F1E08CE251
:100E100001C000005D9BFDCF8CB981918111FACF9B
:100E200082E01BDB60916201772767FD7095872F59
:100E3000972F41E030D9E3E5F1E08CE201C00000FA
:100E40005D9BFDCF8CB981918111FACFAFCE83E349
:100E500089B910BC88E18AB9579A80B5866880BD87
:100E6000E7E5F1E082E601C000005D9BFDCF8CB9B3
:100E700081918111FACF11B888E480B983DDD0DD8A
:100E800022DC85B78F7885BF85B7806885BF789469
:100E900085B7806885BF8895FBCF6ED0A59F900DE4
:100EA000B49F900DA49F800D911D11240895B7FF4C
:100EB000F4CFF3DF821B930B0895DB018F939F9395
:100EC000ECDFBF91AF91A29F800D911DA39F900D6C
:100ED000B29F900D1124089597FB072E16F40094ED
:100EE00006D077FD08D054D007FC05D03EF490958D
:100EF00081959F4F0895709561957F4F0895A1E268
:100F00001A2EAA1BBB1BFD010DC0AA1FBB1FEE1F83
:100F1000FF1FA217B307E407F50720F0A21BB30BCE
:100F2000E40BF50B661F771F881F991F1A9469F74A
:100F300060957095809590959B01AC01BD01CF01A6
:100F40000895052E97FB16F4009406D057FD0CD09B
:100F5000D6DF07FC09D07EF4909580957095619559
:100F60007F4F8F4F9F4F0895509540953095219515
:100F70003F4F4F4F5F4F0895A29FB001B39FC001F5
:100F8000A39F01D0B29F700D811D1124911D089562
:100F9000AA1BBB1B51E107C0AA1FBB1FA617B7079F
:100FA00010F0A61BB70B881F991F5A95A9F78095BB
:0C0FB0009095BC01CD010895F894FFCF8E
:100FBC0058585858585858585858580000636F6D1E
:100FCC006D756E69636174696F6E207769746820E2
:100FDC004454482073656E736F72206661696C654A
:100FEC0064210063616E74206163636573732074A4
:100FFC006F20424D503038352073656E736F722000
:10100C006F6E204932432062757321006475652030
:10101C00746F206572726F722C20706572666F72BD
:10102C006D696E67206465766963652072657365AA
:10103C007421002077726F6E672076616C75652065
:10104C0072657475726E65642C2072657365747448
:10105C00696E672E2E2E2000212C4D554C54495371
:10106C004E53312C54302C0073656E642051207417
:10107C006F206765742064617461206F7220522048
:10108C00666F722072657365740A005265736574BD
:10109C0074696E672E2E2E002C50302C002C48308C
:1010AC002C002C240A00626F6F7465642E2E2E0A9D
:0210BC00000032
:00000001FF
