:1000000012C02CC02BC02AC029C028C027C026C0BF
:1000100025C024C023C09CC421C020C01FC01EC056
:100020001DC01CC01BC011241FBECFE5D4E0DEBF25
:10003000CDBF10E0A0E6B0E0E0EAFBE002C0059032
:100040000D92A23AB107D9F710E0A2EAB0E001C0E0
:100050001D92A13DB107E1F71ED5A0C5D1CF5F9B91
:10006000FECF8CB108955D9BFECF8CB90895FC0145
:100070002081222339F031965D9BFECF2CB921914E
:100080002111FACF089583E389B910BC88E18AB9B8
:10009000579A80B5866880BD089511B888E480B904
:1000A000089594EA96BF06B607FEFDCF91B1987FFA
:1000B000983021F0903111F081E0089583B984E8FF
:1000C00086BF06B607FEFDCF91B1987F983119F033
:1000D00081E0903491F780E0089524EA34E844E91F
:1000E00026BF06B607FEFDCF91B1987F983011F07C
:1000F0009031B1F783B936BF06B607FEFDCF91B197
:10010000987F903219F0983509F0089546BF06B6E9
:1001100004FCFDCFE5CFC5CF84E986BF06B604FC5D
:10012000FDCF089583B984E886BF06B607FEFDCFEC
:1001300091B1987F81E0983209F0089580E00895A8
:1001400084EC86BF06B607FEFDCF83B1089584E830
:1001500086BF06B607FEFDCF83B108958FE599E00F
:10016000A0E0B0E08093C5009093C600A093C700C4
:10017000B093C80088E991E09093A8008093A7000D
:1001800088EB9FEF9093AA008093A90081ED97ECF4
:100190009093AC008093AB0085EE9FE79093AE0008
:1001A0008093AD0085EF9FE79093B0008093AF0000
:1001B00081E79AE59093B2008093B1008EE298E1D6
:1001C0009093B4008093B30084E090E09093B600E5
:1001D0008093B50081E090E89093B8008093B700D9
:1001E00089EF9DED9093BA008093B90084E39BE082
:1001F0009093BC008093BB0008950F931F93660FEC
:10020000771F881F991F8B019C010150110921093B
:100210003109672B682B692B39F000000000015071
:10022000110921093109C8F71F910F91089594B35D
:1002300041E050E002C0440F551F8A95E2F7342F89
:10024000942B94BB85B3242F2095822385BB80E01B
:1002500090E000000000019680346CE99607C9F731
:1002600085B3832B85BB80E090E000000000019601
:1002700080359105D1F784B3822384BB83B390E0AA
:1002800084239523892BD1F783B390E0842395238E
:10029000892BD1F383B390E084239523892BD1F765
:1002A000E2EAF0E01082A8E060E0660F770B60837E
:1002B00023B330E024233523232BD1F320E030E097
:1002C000000000002F5F3F4F24363105C9F783B38C
:1002D00090E084239523892B41F06160608323B3F0
:1002E00030E024233523232BD1F7A15011F0608176
:1002F000DCCF319680E0E73AF807A1F683B390E0CF
:1003000084239523892BD1F30895CF92DF92EF9226
:10031000FF920F931F93CF93DF9300D000D0CDB700
:10032000DEB7182F19821A821B821C82653008F0F2
:1003300064E0F62EFA948EEEB4DE13B984E886BF3C
:1003400006B607FEFDCF81B18FEEE5DEFF2009F492
:1003500053C0FE013196DF0194EC96BF06B607FE4E
:10036000FDCF83B18D938A2F8E1B8F15B0F36F2D28
:1003700070E0DB0184E886BF06B607FEFDCF83B1DF
:10038000AE0FBF1F8C9384E986BF06B604FCFDCF79
:10039000E12C00E010E098014E2D50E0DF01A40FA9
:1003A000B51F8C9190E0A0E0B0E06B01C41AD50AB3
:1003B000A601440F551F440F551F440F551F04C07D
:1003C000880F991FAA1FBB1F4A95D2F7082B192B1C
:1003D0002A2B3B2BE394FE14F8F6B801C9010F90C9
:1003E0000F900F900F90DF91CF911F910F91FF9081
:1003F000EF90DF90CF900895A0E0B0E0FE0131963D
:1004000060E070E0B7CF62E08AEA7FDF7093A80017
:100410006093A70062E08CEA78DF7093AA00609393
:10042000A90062E08EEA71DF7093AC006093AB00CC
:1004300062E080EB6ADF7093AE006093AD0062E033
:1004400082EB63DF7093B0006093AF0062E084EBF7
:100450005CDF7093B2006093B10062E086EB55DF21
:100460007093B4006093B30062E088EB4EDF70934A
:10047000B6006093B50062E08AEB47DF7093B80086
:100480006093B70062E08CEB40DF7093BA0060933A
:10049000B90062E08EEB39DF7093BC006093BB0063
:1004A0000895CF92DF92EF92FF920F931F938EEEFB
:1004B000F8DD84EF83B984E886BF06B607FEFDCF7A
:1004C00081B18EE283B984E886BF06B607FEFDCF10
:1004D00081B184E986BF06B604FCFDCFB09BFECF98
:1004E00062E086EF12DF9B01AC0144275527809123
:1004F000B1009091B200281B390B41095109A0911C
:10050000AF00B091B000E2D26B017C018FE0F594B6
:10051000E794D794C7948A95D1F76091B900709108
:10052000BA00882777FD8095982F2BE0660F771FFC
:10053000881F991F2A95D1F72091BB003091BC00EC
:10054000442737FD4095542F2C0D3D1D4E1D5F1D3A
:10055000FED22C0D3D1D4E1D5F1D2093C500309316
:10056000C6004093C7005093C80089019A01085FF4
:100570001F4F2F4F3F4F44E035952795179507950F
:100580004A95D1F7B801C9011F910F91FF90EF90E3
:10059000DF90CF9008954F925F926F927F928F92EB
:1005A0009F92AF92BF92CF92DF92EF92FF920F9302
:1005B0001F93CF93DF9300D000D0CDB7DEB78EEE80
:1005C00070DD84EF83B984E886BF06B607FEFDCFF1
:1005D00081B184EF83B984E886BF06B607FEFDCFFC
:1005E00081B184E986BF06B604FCFDCFB09BFECF87
:1005F00063E086EF8ADE2B013C01C090C500D090FD
:10060000C600E090C700F090C80080EAC81A8FE0EA
:10061000D80AE108F108C092C100D092C200E0926D
:10062000C300F092C400A7019601C701B6015ED2D3
:10063000DC01CB010CE0B595A795979587950A95B8
:10064000D1F789839A83AB83BC830091A700109173
:10065000A800A091B500B091B60029813A814B81E4
:100660005C813ED24C01BB2497FCB094AB2CA09192
:10067000A900B091AA00A701960132D2EBE09595AE
:10068000879577956795EA95D1F7860E971EA81EF0
:10069000B91EC801AA2797FDA095BA2F880F991FE8
:1006A000AA1FBB1F880F991FAA1FBB1F880E991E68
:1006B000AA1EBB1E880C991CAA1CBB1CE89480F8BF
:1006C0009FE3B9228092CD009092CE00A092CF00FD
:1006D000B092D000A091AB00B091AC0001D26B0100
:1006E0007C01BDE0F594E794D794C794BA95D1F70F
:1006F000A091B300B091B40029813A814B815C8113
:10070000EFD1BB2797FDB095AB2FC80ED91EEA1EBF
:10071000FB1EA2E0CA0ED11CE11CF11CF594E7946B
:10072000D794C794F594E794D794C794B0E8DB0EB8
:10073000E11CF11CA091AD00B091AE00A7019601A3
:10074000C5D16B017C018FE0F694E794D794C794F0
:100750008A95D1F7C092C900D092CA00E092CB002E
:10076000F092CC0095E076946794579447949A95CC
:10077000D1F7481859086A087B08AAE6B8E1A3012E
:100780009201A4D16093BD007093BE008093BF001E
:100790009093C00097FD57C0660F771F881F991F61
:1007A000A7019601B2D149015A019927B7FC9A9540
:1007B0008B2D7A2D692D9B01AC0198D19B01AC0149
:1007C000AEEDBBE083D16C01FF24D7FCF094EF2C9D
:1007D000A3E4B3EEA501940185D1BB2797FDB095A5
:1007E000AB2FC80ED91EEA1EFB1EEFECCE0EEEE0BC
:1007F000DE1EE11CF11CA4E0F594E794D794C794A5
:10080000AA95D1F7C80CD91CEA1CFB1CF8E4CF0E42
:10081000FDE0DF1EE11CF11CB601C7010F900F9037
:100820000F900F90DF91CF911F910F91FF90EF905C
:10083000DF90CF90BF90AF909F908F907F906F9000
:100840005F904F900895A70196015FD149015A0129
:10085000880C991CAA1CBB1CA8CF08953F924F92EC
:100860005F926F927F928F929F92AF92BF92CF9240
:10087000DF92EF92FF920F931F93CF93DF934B0181
:100880005C0197FD57C06115710581059105C9F49B
:1008900080E3809360001092610080E690E0DF9139
:1008A000CF911F910F91FF90EF90DF90CF90BF906D
:1008B000AF909F908F907F906F905F904F903F9000
:1008C0000895312CCAE0D0E0C12C2AECD22E2AE9BE
:1008D000E22E2BE3F22E3AE0432E512C612C712CA8
:1008E000C814D904EA04FB0490F4032D10E0005A64
:1008F0001F4FC501B401A701960107D1CA01B90173
:10090000A301920102D1605DF80160833394C701B5
:10091000B601A3019201F9D069017A01219701F78B
:10092000F9E0F31508F4B9CFE32DF0E0E05AFF4FFA
:100930001082B3CFB094A09490948094811C911CA9
:10094000A11CB11C8DE28093600033243394BACF94
:100950001F920F920FB60F9211242F933F934F9334
:100960005F936F937F938F939F93AF93BF93EF9317
:10097000FF938CB18135D1F0EFE8F0E083E75D9B28
:10098000FECF8CB981918111FACFFF91EF91BF9188
:10099000AF919F918F917F916F915F914F913F9117
:1009A0002F910F900FBE0F901F901895EEE6F0E07C
:1009B0008DE45D9BFECF8CB981918111FACFEBDD87
:1009C0004DDFFC012081222341F0FC0131965D9B2B
:1009D000FECF2CB921912111FACFECE7F0E08CE2A7
:1009E0005D9BFECF8CB981918111FACF5ADD36DF44
:1009F000FC012081222341F0FC0131965D9BFECF5A
:100A00002CB921912111FACFE1E8F0E08CE25D9B55
:100A1000FECF8CB981918111FACF09DC6091A200DF
:100A2000772767FD7095872F972F18DFFC012081AE
:100A3000222341F0FC0131965D9BFECF2CB9219120
:100A40002111FACFE6E8F0E08CE25D9BFECF8CB995
:100A500081918111FACF81E0EADB6091A2007727D2
:100A600067FD7095872F972FF9DEFC0120812223E7
:100A700041F0FC0131965D9BFECF2CB921912111F3
:100A8000FACFEBE8F0E08CE25D9BFECF8CB9819170
:100A90008111FACF7ACF83E389B910BC88E18AB992
:100AA000579A80B5866880BD11B888E480B9ABDC00
:100AB000F8DC71DD85B78F7885BF85B7806885BF25
:100AC000789485B7806885BF8895FBCF5BD0A59F5C
:100AD000900DB49F900DA49F800D911D1124089539
:100AE000B7FFF4CFF3DF821B930B0895DB018F93E5
:100AF0009F93ECDFBF91AF91A29F800D911DA39FAB
:100B0000900DB29F900D11240895A1E21A2EAA1BF8
:100B1000BB1BFD010DC0AA1FBB1FEE1FFF1FA217AD
:100B2000B307E407F50720F0A21BB30BE40BF50BAA
:100B3000661F771F881F991F1A9469F76095709533
:100B4000809590959B01AC01BD01CF010895052EC4
:100B500097FB16F4009406D057FD0CD0D6DF07FCA7
:100B600009D07EF490958095709561957F4F8F4F59
:100B70009F4F089550954095309521953F4F4F4F89
:100B80005F4F0895A29FB001B39FC001A39F01D002
:100B9000B29F700D811D1124911D0895F894FFCF0F
:100BA000585858585858585858585800004D554C8F
:100BB0005449534E53312C50302C002C54302C00BF
:100BC0002C48302C002C48312C002C240A00736552
:100BD0006E64205120746F206765742064617461B5
:020BE0000A0009
:00000001FF
