:1000000012C02CC02BC02AC029C028C027C026C0BF
:1000100025C024C023C049C121C020C01FC01EC0AC
:100020001DC01CC01BC011241FBECFE5D4E0DEBF25
:10003000CDBF10E0A0E6B0E0ECE6FBE002C005902A
:100040000D92AC37B107D9F710E0ACE7B0E001C0D2
:100050001D92AB3AB107E1F755D486C5D1CF5F9B6E
:10006000FECF8CB108955D9BFECF8CB90895FC0145
:100070002081222339F031965D9BFECF2CB921914E
:100080002111FACF089583E389B910BC88E18AB9B8
:1000900080B5866880BD089511B888E480B9089558
:1000A00094EA96BF06B607FEFDCF91B1987F9830CF
:1000B00021F0903111F081E0089583B984E886BF82
:1000C00006B607FEFDCF91B1987F983119F081E017
:1000D000903491F780E0089524EA34E844E926BF9B
:1000E00006B607FEFDCF91B1987F983011F09031A0
:1000F000B1F783B936BF06B607FEFDCF91B1987F41
:10010000903219F0983509F0089546BF06B604FC00
:10011000FDCFE5CFC5CF84E986BF06B604FCFDCF91
:10012000089583B984E886BF06B607FEFDCF91B176
:10013000987F81E0983209F0089580E0089584EC7A
:1001400086BF06B607FEFDCF83B1089584E886BF5B
:1001500006B607FEFDCF83B108958FE599E0A0E0D4
:10016000B0E080939F009093A000A093A100B09373
:10017000A20088E991E0909382008093810088EB4F
:100180009FEF909384008093830081ED97EC909390
:1001900086008093850085EE9FE79093880080938A
:1001A000870085EF9FE790938A008093890081E71D
:1001B0009AE590938C0080938B008EE298E1909367
:1001C0008E0080938D0084E090E090939000809367
:1001D0008F0081E090E8909392008093910089EFE6
:1001E0009DED909394008093930084E39BE0909323
:1001F00096008093950008950F931F93660F771FC5
:10020000881F991F8B019C01015011092109310997
:10021000672B682B692B39F0000000000150110991
:1002200021093109C8F71F910F910895B99AC19812
:1002300080E090E000000000019680342CE99207F5
:10024000C9F7C19A80E090E0000000000196803577
:100250009105D1F7B998B199FECFB19BFECFB19975
:10026000FECFECE7F0E0108248E020E0220F330BF5
:100270002083B19BFECF80E090E00000000001965B
:1002800084369105D1F7B19B04C021602083B199D8
:10029000FECF415011F02081E9CF319680E0E13866
:1002A000F80709F7B19BFECF08951F920F920FB682
:1002B0000F9211240F900FBE0F901F901895CF92A0
:1002C000DF92EF92FF920F931F93CF93DF9300D0B3
:1002D00000D0CDB7DEB7182F19821A821B821C827C
:1002E000653008F064E0F62EFA948EEED9DE13B98C
:1002F00084E886BF06B607FEFDCF81B18FEE0ADF28
:10030000FF2009F453C0FE013196DF0194EC96BF43
:1003100006B607FEFDCF83B18D938A2F8E1B8F15F6
:10032000B0F36F2D70E0DB0184E886BF06B607FEF0
:10033000FDCF83B1AE0FBF1F8C9384E986BF06B695
:1003400004FCFDCFE12C00E010E098014E2D50E0C0
:10035000DF01A40FB51F8C9190E0A0E0B0E06B012D
:10036000C41AD50AA601440F551F440F551F440F48
:10037000551F04C0880F991FAA1FBB1F4A95D2F7AB
:10038000082B192B2A2B3B2BE394FE14F8F6B8010B
:10039000C9010F900F900F900F90DF91CF911F9197
:1003A0000F91FF90EF90DF90CF900895A0E0B0E024
:1003B000FE01319660E070E0B7CF62E08AEA7FDF4D
:1003C000709382006093810062E08CEA78DF709322
:1003D00084006093830062E08EEA71DF7093860090
:1003E0006093850062E080EB6ADF70938800609321
:1003F000870062E082EB63DF70938A00609389007C
:1004000062E084EB5CDF70938C0060938B0062E0B1
:1004100086EB55DF70938E0060938D0062E088EB71
:100420004EDF7093900060938F0062E08AEB47DFAD
:10043000709392006093910062E08CEB40DF7093C8
:1004400094006093930062E08EEB39DF7093960026
:10045000609395000895CF92DF92EF92FF920F93F1
:100460001F938EEE1DDE84EF83B984E886BF06B647
:1004700007FEFDCF81B18EE283B984E886BF06B660
:1004800007FEFDCF81B184E986BF06B604FCFDCF2F
:10049000B09BFECF62E086EF12DF9B01AC014427E8
:1004A000552780918B0090918C00281B390B4109B6
:1004B0005109A0918900B0918A00EED26B017C01B4
:1004C0008FE0F594E794D794C7948A95D1F760911B
:1004D000930070919400882777FD8095982F2BE0EA
:1004E000660F771F881F991F2A95D1F720919500D5
:1004F00030919600442737FD4095542F2C0D3D1D1B
:100500004E1D5F1D0AD32C0D3D1D4E1D5F1D2093FA
:100510009F003093A0004093A1005093A200890156
:100520009A01085F1F4F2F4F3F4F44E035952795A5
:10053000179507954A95D1F7B801C9011F910F91F9
:10054000FF90EF90DF90CF9008954F925F926F925F
:100550007F928F929F92AF92BF92CF92DF92EF9253
:10056000FF920F931F93CF93DF9300D000D0CDB7AE
:10057000DEB78EEE95DD84EF83B984E886BF06B6DC
:1005800007FEFDCF81B184EF83B984E886BF06B64C
:1005900007FEFDCF81B184E986BF06B604FCFDCF1E
:1005A000B09BFECF63E086EF8ADE2B013C01C0905A
:1005B0009F00D090A000E090A100F090A20080EAFF
:1005C000C81A8FE0D80AE108F108C0929B00D092C7
:1005D0009C00E0929D00F0929E00A7019601C70149
:1005E000B6016AD2DC01CB010CE0B595A7959795D1
:1005F00087950A95D1F789839A83AB83BC83009151
:10060000810010918200A0918F00B091900029810B
:100610003A814B815C814AD24C01BB2497FCB09457
:10062000AB2CA0918300B0918400A70196013ED22B
:10063000EBE09595879577956795EA95D1F7860EC6
:10064000971EA81EB91EC801AA2797FDA095BA2F0C
:10065000880F991FAA1FBB1F880F991FAA1FBB1FB6
:10066000880E991EAA1EBB1E880C991CAA1CBB1CB6
:10067000E89480F89FE3B9228092A7009092A800A6
:10068000A092A900B092AA00A0918500B091860026
:100690000DD26B017C01BDE0F594E794D794C7942B
:1006A000BA95D1F7A0918D00B0918E0029813A8141
:1006B0004B815C81FBD1BB2797FDB095AB2FC80E5A
:1006C000D91EEA1EFB1EA2E0CA0ED11CE11CF11CC1
:1006D000F594E794D794C794F594E794D794C79486
:1006E000B0E8DB0EE11CF11CA0918700B0918800FE
:1006F000A7019601D1D16B017C018FE0F694E794BC
:10070000D794C7948A95D1F7C092A300D092A40041
:10071000E092A500F092A60095E076946794579435
:1007200047949A95D1F7481859086A087B08AAE6B1
:10073000B8E1A3019201B0D1609397007093980043
:100740008093990090939A0097FD57C0660F771F8A
:10075000881F991FA7019601BED149015A01992707
:10076000B7FC9A958B2D7A2D692D9B01AC01A4D1F4
:100770009B01AC01AEEDBBE08FD16C01FF24D7FC37
:10078000F094EF2CA3E4B3EEA501940191D1BB2723
:1007900097FDB095AB2FC80ED91EEA1EFB1EEFECDD
:1007A000CE0EEEE0DE1EE11CF11CA4E0F594E79411
:1007B000D794C794AA95D1F7C80CD91CEA1CFB1C86
:1007C000F8E4CF0EFDE0DF1EE11CF11CB601C7010D
:1007D0000F900F900F900F90DF91CF911F910F917D
:1007E000FF90EF90DF90CF90BF90AF909F908F9051
:1007F0007F906F905F904F900895A70196016BD105
:1008000049015A01880C991CAA1CBB1CA8CF089549
:100810003F924F925F926F927F928F929F92AF9290
:10082000BF92CF92DF92EF92FF920F931F93CF93DD
:10083000DF934B015C0197FD57C061157105810580
:100840009105C9F480E3809360001092610080E616
:1008500090E0DF91CF911F910F91FF90EF90DF908B
:10086000CF90BF90AF909F908F907F906F905F9050
:100870004F903F900895312CCAE0D0E0C12C2AEC73
:10088000D22E2AE9E22E2BE3F22E3AE0432E512C0F
:10089000612C712CC814D904EA04FB0490F4032DD4
:1008A00010E0005A1F4FC501B401A701960113D1F2
:1008B000CA01B901A30192010ED1605DF801608304
:1008C0003394C701B601A301920105D169017A01F0
:1008D000219701F7F9E0F31508F4B9CFE32DF0E023
:1008E000E05AFF4F1082B3CFB094A09490948094BC
:1008F000811C911CA11CB11C8DE2809360003324EB
:100900003394BACF11B888E480B957DD83E389B94D
:1009100010BC88E18AB980B5866880BD40E5A42E08
:1009200014E5DAE058E4B52ECEE203E494DD6B0181
:100930007C010BDEEEE6F0E022E45D9BFECF2CB9FD
:1009400021912111FACF5D9BFECFACB861DFFC0194
:100950002081222339F031965D9BFECF2CB9219165
:100960002111FACF5D9BFECF1CB9C701B60150DF44
:10097000FC012081222339F031965D9BFECF2CB9FA
:1009800021912111FACF5D9BFECFDCB94FDCE6E768
:10099000F0E084E45D9BFECF8CB981918111FACFA8
:1009A0005D9BFECFBCB860917C00772767FD70959A
:1009B000872F972F2DDFFC012081222339F03196DC
:1009C0005D9BFECF2CB921912111FACF5D9BFECF0B
:1009D000CCB960917D00772767FD7095872F972FA1
:1009E00017DFFC012081222339F031965D9BFECF79
:1009F0002CB921912111FACF5D9BFECF1CB96091DA
:100A00007E00772767FD7095872F972F01DFFC0108
:100A10002081222339F031965D9BFECF2CB92191A4
:100A20002111FACF5D9BFECFCCB960917F00772773
:100A300067FD7095872F972FEBDEFC012081222325
:100A400039F031965D9BFECF2CB921912111FACF5F
:100A50005D9BFECF0CB960918000772767FD709594
:100A6000872F972FD5DEFC012081222339F0319684
:100A70005D9BFECF2CB921912111FACF5D9BFECF5A
:100A8000DCB980E89DE8ABE5B0E00000000001972C
:100A9000A109B109D1F74ACF5BD0A59F900DB49FB2
:100AA000900DA49F800D911D11240895B7FFF4CFE0
:100AB000F3DF821B930B0895DB018F939F93ECDF91
:100AC000BF91AF91A29F800D911DA39F900DB29FEA
:100AD000900D11240895A1E21A2EAA1BBB1BFD0143
:100AE0000DC0AA1FBB1FEE1FFF1FA217B307E4070D
:100AF000F50720F0A21BB30BE40BF50B661F771F65
:100B0000881F991F1A9469F7609570958095909544
:100B10009B01AC01BD01CF010895052E97FB16F492
:100B2000009406D057FD0CD0D6DF07FC09D07EF428
:100B300090958095709561957F4F8F4F9F4F089549
:100B400050954095309521953F4F4F4F5F4F0895F9
:100B5000A29FB001B39FC001A39F01D0B29F700DAF
:0C0B6000811D1124911D0895F894FFCF11
:100B6C0058585858585858585858580000424D50D2
:0C0B7C003038350A0044485431310A007A
:00000001FF
